:100000000C945E000C94550C0C942E0C0C948600F1
:100010000C9486000C9486000C9486000C94860048
:100020000C9486000C9486000C9486000C94860038
:100030000C9486000C9486000C9486000C94860028
:100040000C94E40B0C9486000C94A20C0C947C0C85
:100050000C9486000C9486000C9486000C94860008
:100060000C94D40C0C94860000000000240027009F
:100070002A0000000008000201000003040700003D
:10008000000000000000010204081020408001026E
:1000900004081020010204081020000000002500C0
:1000A00028002B00040404040404040402020202D5
:1000B0000202030303030303F30D4B1611241FBEB7
:1000C000CFEFD8E0DEBFCDBF11E0A0E0B1E0E2E8C5
:1000D000F3E302C005900D92A635B107D9F723E0EE
:1000E000A6E5B1E001C01D92A835B207E1F710E026
:1000F000CDE5D0E004C02197FE010E948918CC35DF
:10010000D107C9F70E94A70E0C94B4190C940000F3
:1001100080E480937C0080917A00806480937A00F0
:1001200080917A0086FDFCCF8091780090917900D3
:1001300008958F929F92AF92BF92CF92DF92EF92EB
:10014000FF92CF9320914003309141038217930790
:10015000E8F54B01AA24BB24C82DC52ED62EE72EC8
:10016000FF24BC2DA42F20914603222361F0829E00
:1001700040011124C92D2C9D60011124BD2D249F07
:10018000F0011124AF2FE0914C03E0904703F09071
:10019000480330914903E31323C09C01220F331F0E
:1001A000820F931F8E0D9F1DE0914903E80FF92FD9
:1001B000F11DC083E0914A03E80FF92FF11DB083D0
:1001C00020914B03820F911DFC01A083CF91FF90E2
:1001D000EF90DF90CF90BF90AF909F908F90089559
:1001E000880F991F880F991F8E0D9F1D472F552728
:1001F00066277727222349F030E0249F7001259F4E
:10020000F00C349FF00C11244F2DE80FF92FF11D45
:100210004083CACF90E0FC01EE58FF4F2491FC01CF
:10022000EA57FF4F3491FC01EC55FF4FE491EE2368
:10023000C9F0222339F0233001F1A8F4213019F15B
:10024000223029F1F0E0EE0FFF1FE656FF4FA59197
:10025000B4918FB7F894EC91611126C030953E238C
:100260003C938FBF08952730A9F02830C9F024307F
:1002700049F7809180008F7D03C0809180008F7747
:1002800080938000DFCF84B58F7784BDDBCF84B5CA
:100290008F7DFBCF8091B0008F778093B000D2CF5D
:1002A0008091B0008F7DF9CF3E2BDACFCF93DF93D3
:1002B00090E0FC01EA57FF4F24918C559F4FFC01C1
:1002C00084918823C9F090E0880F991FFC01E859B8
:1002D000FF4FA591B491FC01E656FF4FC591D49113
:1002E00061110DC09FB7F8948C91209582238C9357
:1002F0008881282328839FBFDF91CF9108956230A2
:1003000051F49FB7F8943C91822F809583238C936E
:10031000E8812E2BEFCF8FB7F894EC912E2B2C93F6
:100320008FBFEACF3FB7F89480914102909142028B
:10033000A0914302B091440226B5A89B05C02F3F6F
:1003400019F00196A11DB11D3FBFBA2FA92F982FFB
:100350008827BC01CD01620F711D811D911D42E0F6
:10036000660F771F881F991F4A95D1F708950F933D
:100370001F93CF93DF93CDB7DEB729970FB6F894CD
:10038000DEBF0FBECDBF8091470390914803892BFC
:1003900009F467C00E94920100914D0310914E0331
:1003A00020914F0330915003601B710B820B930B14
:1003B0006C3271408105910568F3F8948091420395
:1003C000909143039A838983E0914703F091480316
:1003D000DF0111968081898790913E03E09151035E
:1003E000F091520380915303992309F445C0908101
:1003F000982B98879081809589238F838F818C8318
:1004000088E08B8358856F8149853B812C81898168
:100410009A81508347FD252F3A952083262F39F066
:10042000441F00C000006083000000C0F2CF38E02D
:100430004D9160830000019761F7F0935203E093C0
:10044000510349873B832C839A83898378940E9444
:10045000920160934D0370934E0380934F039093EA
:10046000500329960FB6F894DEBF0FBECDBFDF91C3
:10047000CF911F910F9108959081982B988790812B
:10048000809589238F838F818E8388E08D83588523
:100490006F8149853D812E8189819A81508347FDF5
:1004A000252F00C000C0208300C000C000C000C0D5
:1004B00000C060830000262F3A9541F0441F0000E1
:1004C00000C000C000C000C000C0E8CF38E04D91BF
:1004D00000C0608300C0019709F7F0935203E093D6
:1004E000510349873D832E83AFCF8F929F92AF9266
:1004F000BF92CF92DF92EF92FF926B017C010E943C
:1005000092014B015C01C114D104E104F104B9F082
:100510000E949201681979098A099B09683E734013
:100520008105910580F321E0C21AD108E108F108A4
:1005300088EE880E83E0981EA11CB11CE4CFFF90CA
:10054000EF90DF90CF90BF90AF909F908F900895E5
:100550008091C5019091C401891B990B089508955C
:1005600008950895AF92BF92CF92DF92EF92FF92DB
:100570000F931F93CF93DF936C017B018B01040FCB
:10058000151FEB015E01AE18BF08C017D10759F067
:100590006991D601ED91FC910190F081E02DC601A9
:1005A0000995892B79F7C501DF91CF911F910F91A3
:1005B000FF90EF90DF90CF90BF90AF900895FC0137
:1005C000538D448D252F30E0842F90E0821B930BB8
:1005D000541710F0CF96089501970895FC01918D5E
:1005E000828D981761F0A28DAE0FBF2FB11D5D9661
:1005F0008C91928D9F5F9F73928F90E008958FEF03
:100600009FEF0895FC01918D828D981731F0828DB6
:10061000E80FF11D858D90E008958FEF9FEF08950D
:10062000FC01918D228D892F90E0805C9F4F821B71
:1006300091098F739927089585E992E00E9410032C
:1006400021E0892B09F420E0822F089580E090E0DA
:10065000892B29F00E941C0381110C94000008953D
:10066000FC01A48DA80FB92FB11DA35ABF4F2C9127
:10067000848D90E001968F739927848FA689B7891E
:100680002C93A089B1898C91837080648C93938D15
:10069000848D981306C00288F389E02D80818F7DB8
:1006A00080830895EF92FF920F931F93CF93DF9370
:1006B000EC0181E0888F9B8D8C8D98131AC0E8899E
:1006C000F989808185FF15C09FB7F894EE89FF896D
:1006D0006083E889F98980818370806480839FBF0B
:1006E00081E090E0DF91CF911F910F91FF90EF900B
:1006F0000895F62E0B8D10E00F5F1F4F0F7311271B
:10070000E02E8C8D8E110CC00FB607FCFACFE88955
:10071000F989808185FFF5CFCE010E943003F1CFAA
:10072000EB8DEC0FFD2FF11DE35AFF4FF0829FB7C9
:10073000F8940B8FEA89FB8980818062CFCFCF93B9
:10074000DF93EC01888D8823B9F0AA89BB89E889F9
:10075000F9898C9185FD03C0808186FD0DC00FB69F
:1007600007FCF7CF8C9185FFF2CF808185FFEDCF1D
:10077000CE010E943003E9CFDF91CF9108952091FF
:100780007901260F3327331F21323105ECF42091F4
:100790006B02FC0190E080E0243069F082E0089573
:1007A000A09179012191AC01475A5E4FA40FB52F5A
:1007B000B11D2C930196861798F380917901680FEB
:1007C0006093790180E0089581E0089510926B02B2
:1007D00081E080936A021092450261E082E10E940A
:1007E0000A0161E083E10E940A01E9EBF0E0808107
:1007F0008E7F808380818D7F808388E48093B800A2
:1008000085E48093BC000895CF93DF9391E09093AB
:1008100058018823B9F0C091B800D091BA008091F6
:10082000BC008A7B8093BC0060E082E10E940A01E8
:1008300060E083E10E940A010E94E603D093BA00BF
:10084000C093B800DF91CF910895CF92DF92EF92DD
:10085000FF920F931F93CF93DF93D091940281E087
:10086000D13208F09CC0C09193020E9492016B01AA
:100870007C0180916B0281116CC082E080936B02DD
:1008800081E080936A028FEF809369021092680280
:10089000D0936702A3E7B2E0E7E4F2E080E0D81388
:1008A0008DC01092460280914602CC0FC82BC09397
:1008B000460280914502813009F084C010924502C1
:1008C0000E9492016B017C01809146028093BB00E3
:1008D00080916D0290916E02A0916F02B0917002B2
:1008E000892B8A2B8B2BA1F00E94920100916D0223
:1008F00010916E0220916F02309170026C197D0987
:100900008E099F09061717072807390708F442C000
:100910008091BC0083FDD8CF85EC8093BC000E9401
:1009200092016B017C0180916B02823009F44CC012
:10093000809169028F3F09F469C080916902803219
:1009400009F466C080916902803309F463C084E0D1
:1009500026C080916D0290916E02A0916F02B091BD
:100960007002892B8A2B8B2B09F483CF0E94920172
:1009700000916D0210916E0220916F023091700211
:100980006C197D098E099F09061717072807390773
:1009900008F06FCF80916C020E94040485E01092F1
:1009A00072021092940210927102DF91CF911F9106
:1009B0000F91FF90EF90DF90CF9008959D919193CC
:1009C0008F5F6DCF85EEA9CF80916D0290916E0201
:1009D000A0916F02B0917002892B8A2B8B2B09F4A6
:1009E000A2CF0E94920100916D0210916E0220919F
:1009F0006F02309170026C197D098E099F090617EC
:100A000017072807390708F08ECFC4CF80E0C7CF7B
:100A100082E0C5CF83E0C3CF0895E091C401809107
:100A2000C501E81730F4F0E0EC55FE4F808190E00E
:100A300008958FEF9FEF08959091C4018091C501B3
:100A40002FEF3FEF981748F4E92FF0E0EC55FE4FF9
:100A5000208130E09F5F9093C401C9010895CF9237
:100A6000DF92EF92FF920F931F93CF93DF937C015E
:100A7000CB018A0120917102222389F0EB016B01E5
:100A8000C40ED51ECC15DD0569F06991D701ED9135
:100A9000FC910190F081E02DC7010995F3CF642FFF
:100AA0000E94BF03C801DF91CF911F910F91FF906A
:100AB000EF90DF90CF900895CF93DF931F92CDB743
:100AC000DEB76983209171022223F9F0209194020C
:100AD000203258F021E030E0FC013383228390E0A3
:100AE00080E00F90DF91CF91089580917202E82FFE
:100AF000F0E0ED58FD4F998190838F5F80937202F3
:100B00008093940281E090E0ECCF61E0CE01019609
:100B10000E94BF03F7CF90E080E0089580913202F9
:100B2000909133020197F1F080913202909133025B
:100B30000297C1F08091320290913302892B99F48F
:100B400083E090E0909333028093320281E090E062
:100B500090933502809334020E948800909337026C
:100B60008093360208958091320290913302039768
:100B700069F484E090E0909333028093320281E044
:100B800090E09093A3018093A201E0CF8091320284
:100B9000909133020497D1F61092330210923202F0
:100BA00081E090E09093570180935601CFCF8091E0
:100BB0003202909133020397F1F0809132029091CA
:100BC00033020497C1F08091320290913302892B55
:100BD00099F481E090E0909333028093320281E0B7
:100BE00090E090933502809334020E9488009093A5
:100BF0003702809336020895809132029091330239
:100C00008130910559F422E030E030933302209393
:100C100032029093A1018093A001E1CF8091320232
:100C2000909133020297D9F6109233021092320259
:100C300081E090E0EECF8F929F92AF92BF92CF92E1
:100C4000DF92EF92FF9230E020E043E75FEF6FEF3B
:100C500070E0F901EE0FFF1FEE0FFF1FE853FE4F8C
:100C600040835183628373832F5F3F4F2931310566
:100C700081F7009721F580E09FEFA0E0B0E080933E
:100C8000C8019093C901A093CA01B093CB0180E041
:100C90009FEFAFEFB0E08093D4019093D501A09384
:100CA000D601B093D7018FEF90E0DC018093200252
:100CB00090932102A0932202B09323028AC0813034
:100CC0009105A9F48DEC91EEAFEFB0E08093C801EF
:100CD0009093C901A093CA01B093CB018093D40132
:100CE0009093D501A093D601B093D701DFCF823086
:100CF000910571F590E080E042E351EE61EE70E025
:100D0000FC01EE0FFF1FEE0FFF1FE853FE4F408365
:100D100051836283738301968931910589F780E05D
:100D200090E0AFEFB0E08093C8019093C901A09329
:100D3000CA01B093CB018093D4019093D501A093C5
:100D4000D601B093D70180E09FEFA0E0B0E0AECF36
:100D50008330910509F046C090E080E047E453E617
:100D60006FEF70E0FC01EE0FFF1FEE0FFF1FE85367
:100D7000FE4F4083518362837383019689319105CD
:100D800089F78AE790EAAFEFB0E08093C8019093CB
:100D9000C901A093CA01B093CB0180E095E4AFEF05
:100DA000B0E08093D4019093D501A093D601B09385
:100DB000D70180E09CE8AFEFB0E0809320029093F1
:100DC0002102A0932202B093230280E095EAAFEFC4
:100DD000B0E08093280290932902A0932A02B09356
:100DE0002B02A5C084309105F1F590E080E04DE53F
:100DF0005DE56DE570E0FC01EE0FFF1FEE0FFF1FDC
:100E0000E853FE4F40835183628373830196893197
:100E1000910589F780E090E0ACE0B0E08093C801F4
:100E20009093C901A093CA01B093CB0181E091E0F6
:100E3000ADE0B0E08093D4019093D501A093D601AA
:100E4000B093D70182E19AE0A6E1B0E0809320025E
:100E500090932102A0932202B093230286E298E1AC
:100E6000ADE2B0E0B6CF8530910591F590E080E03D
:100E700042E252E763EE70E0FC01EE0FFF1FEE0F5F
:100E8000FF1FE853FE4F40835183628373830196B3
:100E90008931910589F78BE999E9A7E0B0E0809362
:100EA000C8019093C901A093CA01B093CB018FEB05
:100EB00099EBA6E6B0E08093D4019093D501A0937E
:100EC000D601B093D7018BE79AEAAEEEB0E0EECE52
:100ED0008630910509F043C090E080E020E130E0E9
:100EE0008D309105CCF52B5F3F4FC22ED12CF12CCC
:100EF000E12CB6015527442788249C2CAD2CBE2C10
:100F0000482959296A297B29422B5D296E297F2985
:100F1000FC01EE0FFF1FEE0FFF1FE853FE4F408353
:100F2000518362837383019689319105C9F680E00C
:100F300090E0AFEFB0E08093C8019093C901A09317
:100F4000CA01B093CB01FF90EF90DF90CF90BF909C
:100F5000AF909F908F90089525503109C6CF87306C
:100F60009105F1F590E080E04DE451EC6DE570E025
:100F7000FC01EE0FFF1FEE0FFF1FE853FE4F4083F3
:100F800051836283738301968931910589F780E6E5
:100F90009FEBA8E3B0E08093C8019093C901A093B0
:100FA000CA01B093CB018FE39CEAA2E1B0E0809349
:100FB000D4019093D501A093D601B093D7018DE2CF
:100FC00090E4A5E0B0E08093200290932102A093EA
:100FD0002202B09323028BE190E3A0E0B0E0F9CECF
:100FE0008830910591F590E080E041EC56EB6FEF91
:100FF00070E0FC01EE0FFF1FEE0FFF1FE853FE4FE6
:10100000408351836283738301968931910589F707
:1010100084EB99E6AFEFB0E08093C8019093C901EB
:10102000A093CA01B093CB0183E994E1AFEFB0E0A4
:101030008093D4019093D501A093D601B093D701AA
:1010400085E895E1A7ECB0E031CE8930910509F053
:101050001DC18FE29FEFADEAB0E08093C80190938D
:10106000C901A093CA01B093CB0180E09FEFAFE725
:10107000B0E08093CC019093CD01A093CE01B093CA
:10108000CF0180E09CEFACE7B0E08093D00190937B
:10109000D101A093D201B093D30180E09FEFA0E0F3
:1010A000B0E08093D4019093D501A093D601B09382
:1010B000D70182E39DECA2E3B0E08093D801909346
:1010C000D901A093DA01B093DB0188E99BEFA8E98D
:1010D000B0E08093DC019093DD01A093DE01B0933A
:1010E000DF0180E99EEEA0E9B0E08093E0019093FB
:1010F000E101A093E201B093E3018AE99AEFA0E055
:10110000B0E08093E4019093E501A093E601B093F1
:10111000E7018FE79FEFA0E0B0E08093E8019093B4
:10112000E901A093EA01B093EB018093EC01909365
:10113000ED01A093EE01B093EF0181E793EBACE3F7
:10114000B0E08093F0019093F101A093F201B0938D
:10115000F30187E59BE8AEE2B0E08093F401909361
:10116000F501A093F601B093F70182E29BE8A2E2B9
:10117000B0E08093F8019093F901A093FA01B09345
:10118000FB0180E090E8A0E0B0E08093FC01909348
:10119000FD01A093FE01B093FF0180E094E6A0E082
:1011A000B0E08093000290930102A0930202B093FA
:1011B000030282E39DECAAE9B0E0809304029093DD
:1011C0000502A0930602B093070280930802909351
:1011D0000902A0930A02B0930B0283E29EE8ABE6F9
:1011E000B0E080930C0290930D02A0930E02B09396
:1011F0000F0280E090E8A0E8B0E0809310029093A6
:101200001102A0931202B09313028FE29BE6A5E5B0
:10121000B0E08093140290931502A0931602B0934D
:1012200017028AEA9DECA6E6B0E08093180290933C
:101230001902A0931A02B0931B028FE89CEBAFE84F
:10124000B0E080931C0290931D02A0931E02B09305
:101250001F028AEA92EBA0E2B0E080932002909312
:101260002102A0932202B09323028BE89BE8A0E026
:10127000B0E08093240290932502A0932602B093BD
:10128000270280E890E8A0E0B0E0A3CD8A30910585
:1012900009F021C18FEF9FEFA0E0B0E08093C8017B
:1012A0009093C901A093CA01B093CB018093CC0164
:1012B0009093CD01A093CE01B093CF018FEF9FEF1C
:1012C000A0EEB0E08093D0019093D101A093D20121
:1012D000B093D3018EEE9EEEAFEAB0E08093D401DE
:1012E0009093D501A093D601B093D7018AED9FEFDB
:1012F000AFE7B0E08093D8019093D901A093DA01D1
:10130000B093DB0180ED90EEA0E4B0E08093DC01CF
:101310009093DD01A093DE01B093DF018CEC91EDA1
:10132000A8E4B0E08093E0019093E101A093E20192
:10133000B093E30181ED9EECA0E0B0E08093E40186
:101340009093E501A093E601B093E70180EA9EE95E
:10135000AFE5B0E08093E8019093E901A093EA0142
:10136000B093EB0184EB92E8A6E4B0E08093EC014B
:101370009093ED01A093EE01B093EF018EED94EC0C
:10138000A0EBB0E08093F0019093F101A093F20103
:10139000B093F30186EE90EEA0EBB0E08093F40101
:1013A0009093F501A093F601B093F70186EE98EDC6
:1013B000ADEAB0E08093F8019093F901A093FA01AF
:1013C000B093FB018BEE9EECA7E8B0E08093FC01AC
:1013D0009093FD01A093FE01B093FF018AEF9EEC74
:1013E000A7E8B0E08093000290930102A09302026C
:1013F000B09303028FEF9FEBA0E0B0E08093040274
:1014000090930502A0930602B09307028FEF90E934
:10141000AEE1B0E08093080290930902A0930A0223
:10142000B0930B028DEE95E9A4E6B0E080930C0238
:1014300090930D02A0930E02B0930F028EEE98E6E9
:10144000ABE7B0E08093100290931102A0931202D8
:10145000B093130281EE99E6A1E4B0E08093140208
:1014600090931502A0931602B09317028FEF90E0AD
:10147000A0E0B0E08093180290931902A0931A02A2
:10148000B0931B028DEC90E0A0E0B0E080931C02D2
:1014900090931D02A0931E02B0931F028BE890E070
:1014A000A0E0B0E08093200290932102A09322025A
:1014B000B093230280E890E0A0E0B0E080932402A3
:1014C00090932502A0932602B093270280E799E12A
:1014D000A9E1B0E07ECC8B30910571F590E080E021
:1014E00040E65FEF6FEF70E0FC01EE0FFF1FEE0FC5
:1014F000FF1FE853FE4F408351836283738301963D
:101500008931910589F780E097EDAFEFB0E08093E6
:10151000C8019093C901A093CA01B093CB018093F5
:10152000D4019093D501A093D601B093D70180E068
:101530009FEFAFEFB0E0BACB8C309105E9F480E3D8
:101540009FEFA0E3B0E08093C8019093C901A093FE
:10155000CA01B093CB0180E39FEFAFEFB0E080937F
:10156000D4019093D501A093D601B093D7018FEB0E
:1015700090E3AFEBB0E09ACB0D9771F590E080E08F
:1015800044EB5FEF64EB70E0FC01EE0FFF1FEE0F2A
:10159000FF1FE853FE4F408351836283738301969C
:1015A0008931910589F782E292E2A2EBB0E0809363
:1015B000C8019093C901A093CA01B093CB01809355
:1015C000D4019093D501A093D601B093D70180E0C8
:1015D00090E0ABE8B0E06ACB87ED97E3A7EDB0E031
:1015E0008093C8019093C901A093CA01B093CB0125
:1015F00087ED9FEFAFEFB0E08093D4019093D501DA
:10160000A093D601B093D70187ED9FEFA7E3B0E099
:101610008093200290932102A0932202B093230290
:1016200087ED97E3AFEFB0E0D4CBCF93DF93D0E07B
:10163000C0E040E050E0BA01CE010E94990021963E
:10164000C931D105B1F7DF91CF910C94B701CF9299
:10165000DF92EF92FF92CF93DF936B01770FEE084B
:10166000FF08FE2CED2CDC2CCC24052E000C660B88
:10167000770BC42AD52AE62AF72A092E000CAA0BD2
:10168000BB0BDC0199278827C82AD92AEA2AFB2A1A
:10169000D0E0C0E0B701A601CE010E9499002196DA
:1016A000C931D105B9F7DF91CF91FF90EF90DF906D
:1016B000CF900C94B701FC0101900020E9F731971D
:1016C000AF01481B590BBC0185E992E00C94B202B2
:1016D0008F929F92AF92BF920F931F93CF93DF93FE
:1016E000CDB7DEB7A1970FB6F894DEBF0FBECDBF62
:1016F00019A2423008F44AE08E010F5D1F4F842E7C
:10170000912CB12CA12CA50194010E944818E62F20
:10171000B901CA01EA30F4F4E05DD801EE938D011D
:10172000232B242B252B79F790E080E0109719F0DC
:10173000CD010E945B0BA1960FB6F894DEBF0FBEE1
:10174000CDBFDF91CF911F910F91BF90AF909F9030
:101750008F900895E95CE1CF85ED8093BC00809186
:101760006D0290916E02A0916F02B0917002079687
:10177000A11DB11D23E0B695A795979587952A954C
:10178000D1F72091BC0024FD03C010926B02089594
:1017900040916D0250916E0260916F0270917002E3
:1017A000452B462B472B69F30097A105B10541F066
:1017B00025E32A95F1F700000197A109B109E1CFCE
:1017C00080916C020C9404041F920F920FB60F923A
:1017D00011242F933F938F939F93AF93BF93809147
:1017E0003D0290913E02A0913F02B09140023091A3
:1017F0003C0223E0230F2D3758F50196A11DB11DA2
:1018000020933C0280933D0290933E02A0933F02BE
:10181000B09340028091410290914202A091430214
:10182000B09144020196A11DB11D80934102909395
:101830004202A0934302B0934402BF91AF919F91A3
:101840008F913F912F910F900FBE0F901F90189581
:1018500026E8230F0296A11DB11DD2CF1F920F9231
:101860000FB60F9211242F933F934F935F936F9373
:101870007F938F939F93AF93BF93EF93FF93E091E9
:101880000201F09103010995FF91EF91BF91AF9192
:101890009F918F917F916F915F914F913F912F9188
:1018A0000F900FBE0F901F9018951F920F920FB6BA
:1018B0000F9211242F933F934F935F936F937F93D6
:1018C0008F939F93AF93BF93EF93FF93E0910001AA
:1018D000F09101010995FF91EF91BF91AF919F9117
:1018E0008F917F916F915F914F913F912F910F90C9
:1018F0000FBE0F901F9018951F920F920FB60F9268
:1019000011242F933F934F935F936F937F938F9304
:101910009F93AF93BF93EF93FF9385E992E00E946B
:101920003003FF91EF91BF91AF919F918F917F9184
:101930006F915F914F913F912F910F900FBE0F903C
:101940001F9018951F920F920FB60F9211242F938C
:101950008F939F93EF93FF93E091A502F091A602DE
:101960008081E091AB02F091AC0282FD1BC09081BE
:101970008091AE028F5F8F732091AF02821741F08A
:10198000E091AE02F0E0EB56FD4F958F8093AE02F2
:10199000FF91EF919F918F912F910F900FBE0F901C
:1019A0001F9018958081F4CF1F920F920FB60F925F
:1019B00011242F933F934F935F936F937F938F9354
:1019C0009F93AF93BF93EF93FF938091B900887F6C
:1019D000803609F44AC0F0F5883209F4A7C018F53A
:1019E000803109F49BC0B8F4882309F4F9C0883029
:1019F00009F494C0FF91EF91BF91AF919F918F91A6
:101A00007F916F915F914F913F912F910F900FBEFA
:101A10000F901F901895883109F488C0803251F7D3
:101A20008093690214C0803409F49DC040F480336F
:101A3000B9F38833F9F68093690285ECB0C080353C
:101A400009F485C0883509F496C0883499F60E9457
:101A5000AC0BD0CF883909F48CC038F5883729F021
:101A600050F4883611F0803729F683E080936B02BA
:101A700010929B0157C0883809F47BC0803919F057
:101A8000803809F0B7CF80919B01803208F071C097
:101A9000E0919B0181E08E0F80939B018091BB00C0
:101AA000F0E0E558FE4F80833DC0803B39F0E0F424
:101AB000803A09F479C0883A09F09CCF84E0809399
:101AC0006B0210927A0110927901E0919E01F091DF
:101AD0009F0109958091790181110FC081E0809368
:101AE00079011092590109C0803C09F4A6CF883CC5
:101AF00009F4A3CF883B09F07DCFE0917A0181E022
:101B00008E0F80937A01F0E0E75AFE4F8081809338
:101B1000BB0090917A018091790129C080914602A1
:101B20008093BB0085EC8093BC0064CF90916802E9
:101B300080916702981758F5E091680281E08E0F56
:101B400080936802F0E0E95BFD4F8081E9CFE0918E
:101B5000680281E08E0F809368028091BB00F0E004
:101B6000E95BFD4F8083909168028091670298172E
:101B7000C8F285E8D8CFE091680281E08E0F8093AB
:101B800068028091BB00F0E0E95BFD4F80838091AB
:101B90006A0281115CCF81E08093450284EA8093E0
:101BA000BC0010926B0226CF85EC8093BC00109293
:101BB0006B0280919B01803230F4E0919B01F0E058
:101BC000E558FE4F108260919B0170E0E0919C010E
:101BD000F0919D018BE791E0099510929B010ACF4E
:101BE0001092690234CF109298021092970288EEF8
:101BF00093E0A0E0B0E08093990290939A02A093C2
:101C00009B02B0939C0223E131E030939602209333
:101C1000950225EC30E03093A2022093A10224EC3F
:101C200030E03093A4022093A30220EC30E0309304
:101C3000A6022093A50221EC30E03093A802209365
:101C4000A70222EC30E03093AA022093A90226ECEE
:101C500030E03093AC022093AB021092AE021092AF
:101C6000AF021092B0021092B1021092350310929E
:101C700034038093360390933703A0933803B093D3
:101C8000390385E291E090933303809332031092FD
:101C90003F031092460310924D0310924E03109290
:101CA0004F031092500381E080934C0380934903CB
:101CB00010924A0392E090934B0380933E038BE48F
:101CC00090E090934303809342030E948F18909377
:101CD000480380934703009789F12BE4FC0111929C
:101CE0002A95E9F789E190E09093410380934003BE
:101CF00084E090E0909345038093440380913F03F8
:101D0000882341F061E084E00E94560160E084E0B5
:101D10000E940A01E8EAF0E0E491F0E0EE0FFF1F14
:101D2000E656FF4F8591949190935203809351030F
:101D3000EAE8F0E0E491E09353030895109243033E
:101D4000109242031092410310924003D1CFCF93DF
:101D5000DF93CDB7DEB728970FB6F894DEBF0FBE7E
:101D6000CDBF789484B5826084BD84B5816084BD24
:101D700085B5826085BD85B5816085BD80916E0029
:101D8000816080936E00109281008091810082605A
:101D90008093810080918100816080938100809197
:101DA00080008160809380008091B1008460809386
:101DB000B1008091B00081608093B00080917A0082
:101DC000846080937A0080917A00826080937A00A8
:101DD00080917A00816080937A0080917A00806897
:101DE00080937A001092C100809144039091450342
:101DF00097FD08C061E00E94560160E080914403B5
:101E00000E940A0181E080933F03F12CE12C10E055
:101E100000E0E114F10409F07AC250E040E070E023
:101E200060E0C8010E94270B6AE070E080E090E06B
:101E30000E9475020F5F1F4F0F3F110551F73FEFD3
:101E4000E31AF30A83E0E816F10409F70E94150B80
:101E5000FCEFAF2EBB24BA9410E000E0A0E89A2E6D
:101E6000C12CD12C760109311105ACF4B6015527EE
:101E700044274C295D296E297F29BE2DAD2D9C2D2F
:101E80008827482B592B6A2B7B2BC8010E9499006D
:101E900004301105C4F0492D4C19842F90E0B0E0B6
:101EA000A0E0BC01552744274424582E692E7A2EE1
:101EB0004429552966297729482B592B6A2B7B2BD6
:101EC000C5010E9499000E94B70161E070E080E0C6
:101ED00090E00E9475029FEFC91AD90AE90AF90A2F
:101EE000E1E8CE16D104E104F10409F0BCCF0F5FA4
:101EF0001F4FFFEFAF1ABF0A0F31110509F0B0CF26
:101F00000E94150B90E080E00E945B1680932C02EB
:101F100081E090E00E945B168093080180912C0282
:101F200090E00E941B06E091A502F091A60282E0DB
:101F30008083E091A102F091A2021082E091A302BD
:101F4000F091A4028FEC80831092AD02E091A9027F
:101F5000F091AA0286E08083E091A702F091A802A6
:101F6000808180618083E091A702F091A802808146
:101F700088608083E091A702F091A8028081806848
:101F80008083E091A702F091A80280818F7D8083F9
:101F90001092C4011092C501109272021092940224
:101FA0000E94E6038FEA92E090939F0180939E0146
:101FB00080EB92E090939D0180939C0162E082E02F
:101FC0000E94560187ED95E09093010180930001F6
:101FD000809169008C7F826080936900E89A62E05A
:101FE00083E00E9456018EE895E090930301809370
:101FF000020180916900837F886080936900E99A7B
:1020000060E08EE00E94560183E391E00E945B0B4A
:1020100084E491E00E945B0B60912C0270E090E000
:1020200080E04AE00E94680B84E491E00E945B0B30
:102030009E01295F3F4F38872F8322242A94322C18
:10204000412C512CFEE0EF2EF12CA3E1CA2ED12C15
:1020500070E1672E712C8091A0019091A1010197F0
:1020600009F0A2C01092A1011092A00182E1809318
:1020700004011092C70111E01093C60110930501ED
:1020800087E491E00E945B0B6091070170E090E0B3
:1020900080E04AE00E94680B83E591E00E945B0BC0
:1020A00060912D0270E090E080E04AE00E94680BB1
:1020B00083E591E00E945B0B6091C70170E090E0C6
:1020C00080E04AE00E94680B84E491E00E945B0B90
:1020D0001093710288E6809393021092720210921C
:1020E000940260E082E393E00E945C058091C70166
:1020F0001AE0612F0E9414188295807F682F690F63
:1021000082E393E00E945C0580912D02612F0E9482
:1021100014188295807F682F690F82E393E00E94F4
:102120005C0580910701612F0E9414188295807FC1
:10213000682F690F82E393E00E945C05809106019D
:10214000612F0E9414188295807F682F690F82E3A7
:1021500093E00E945C058091C601612F0E941418D3
:102160008295807F682F690F82E393E00E945C056F
:1021700080910501612F0E9414188295807F682F3D
:10218000690F82E393E00E945C0580910401612F56
:102190000E9414188295807F682F690F82E393E074
:1021A0000E945C050E9425048091A2019091A301E8
:1021B000019779F41092A3011092A20180912C0250
:1021C00090E00E941B0660912C0290E080E00E944B
:1021D000631680913A0290913B029C012F5F3F4F22
:1021E00030933B0220933A0262E370E00E9434187D
:1021F000892B09F090C1209138023091390281E099
:1022000090E0232B11F090E080E0909339028093CE
:10221000380281E08093710288E6809393021092E5
:1022200072021092940260E082E393E00E945C05E7
:102230000E9425040E9492014B015C0180916B0277
:10224000811172C081E080936B0280936A029FEFDC
:10225000909369021092680296E0909367028093CF
:10226000460280914602806D80934602809145022D
:10227000813009F0A8C0109245020E9492014B01E2
:102280005C01809146028093BB0080916D02909129
:102290006E02A0916F02B0917002892B8A2B8B2B5A
:1022A000A1F00E94920100916D0210916E022091A6
:1022B0006F0230917002681979098A099B09061723
:1022C00017072807390708F450C08091BC0083FD28
:1022D000D8CF85EC8093BC000E9492014B015C0139
:1022E00080916B02813009F470C080916802873060
:1022F00008F08DC080916802A7E4B2E0E4EAF1E062
:1023000090E09817B9F12D9121939F5FFACF50E09B
:1023100040E0B80121E0E216F10419F0A80170E0F4
:1023200060E090E080E07ECD80916D0290916E0241
:10233000A0916F02B0917002892B8A2B8B2B09F42C
:102340007DCF0E94920100916D0210916E0220914A
:102350006F0230917002681979098A099B09061782
:1023600017072807390708F069CF80916C020E948F
:10237000040480E01092C4018093C501811149C01A
:1023800040E050E060E870E088E090E00E94990052
:102390000E94B70164E670E080E090E00E94750260
:1023A00064E670E080E090E00E94750280E090E0DA
:1023B000892B09F450CE0E941C03882309F448CECF
:1023C0000E94000045CE85EE85CF80916D029091F0
:1023D0006E02A0916F02B0917002892B8A2B8B2B19
:1023E00009F47ECF0E94920100916D0210916E025D
:1023F00020916F0230917002681979098A099B094E
:10240000061717072807390708F06ACFAECF87E00D
:1024100073CF82E393E00E941C058093C70182E39F
:1024200093E00E941C0580932D0282E393E00E94BA
:102430001C058093070182E393E00E941C058093B2
:10244000060182E393E00E941C058093C60182E3AB
:1024500093E00E941C058093050182E393E00E94B3
:102460001C05809304019091C7018091C70192954A
:102470009F702AE08F70929F800D11248093C70176
:1024800090912D0280912D0292959F708F70929F56
:10249000800D112480932D02809107013091070156
:1024A00090E054E0959587955A95E1F783703F70D9
:1024B000829F300D112430930701809106018770AF
:1024C000809306018091C6013091C60190E064E0DE
:1024D000959587956A95E1F783703F70829F300DDF
:1024E00011243093C60190910501809105019295C8
:1024F00091708F70299F800D112480930501909118
:1025000004018091040192959F708F70929F800DBD
:102510001124809304010091080110E0B12CA12C3A
:1025200040E050E0BA01C5010E9499003FEFA31AB4
:10253000B30A89E1A816B10499F70E948800BC018A
:102540008091360290913702FB01E81BF90B1E16B1
:102550001F060CF0E5C080913602909137029B0176
:10256000281B390BC9010B9724F0109235021092E9
:1025700034028091320290913302019709F0D7C062
:1025800080913002909131021816190634F080E0E3
:1025900091E0909331028093300210922F021092BA
:1025A0002E028091340290913502892B91F4072EEE
:1025B000000C880B990B0E941B1729E93AEA4AE2A2
:1025C00052E40E9471160E94E31660930701109274
:1025D0002D0220913202309133028091320290918B
:1025E0003302019709F462C1809132029091330263
:1025F000029709F45BC180913202909133020397F4
:1026000009F454C18091320290913302BB24B394F7
:10261000049709F0B12C80910701863028F0909141
:10262000070181E0923108F080E090910701992341
:1026300031F090910701AA24A394953008F0A12CC1
:1026400090912C029C3008F0A12C24303105C9F067
:10265000811117C0B801012E000C880B990B0E9444
:102660001B172AE939E949E15FE3AA2021F02DECA3
:102670003CEC4CE45FE30E94A7170E94E316061BA4
:10268000170B4091C8015091C9016091CA01709126
:10269000CB0190E080E00E9499004091D4015091DC
:1026A000D5016091D6017091D70183E090E00E943E
:1026B0009900B1100CC04091D4015091D5016091A6
:1026C000D6017091D70188E090E00E9499001A82AB
:1026D00019821C821B821E821D82E0910701E93152
:1026E00008F0EBC0F0E0E958FC4E0C948918FD149A
:1026F0005914CB14CE14D114D414DD14E014E714FF
:10270000EE14F514F814FD145914CB14CE14D1148E
:10271000D414DD14E014E714EE14F514F814FD14C9
:102720008091360290913702861B970B1CCF8091C7
:10273000320290913302029779F5809130029091A4
:1027400031021816190634F080E091E090933102BE
:102750008093300210922F0210922E028091340248
:1027600090913502892B09F034CF60547109072EFE
:10277000000C880B990B0E941B1720E030E040EA08
:1027800052E40E9471160E94E316862F880F880F6C
:10279000680F60932D021DCF809132029091330219
:1027A000039709F058C080913002909131021816B9
:1027B000190634F080E091E090933102809330026A
:1027C00081E090E090932F0280932E02809134025A
:1027D00090913502892B61F4CB0166E470E00E9490
:1027E000341860932C0280912C0290E00E941B060A
:1027F0004091C8015091C9016091CA017091CB010B
:1028000090E080E00E9499004091D4015091D50160
:102810006091D6017091D70183E090E00E94990009
:102820004091200250912102609122027091230276
:1028300086E190E00E94990040912802509129027F
:1028400060912A0270912B0288E190E00E94990029
:102850000FEF10E0BECE80913202909133020497C8
:1028600009F0B7CE8091340290913502892B51F452
:1028700077FF02C06D5F7F4F75956795759567957A
:102880006093080180913002909131021816190668
:1028900034F080E091E0909331028093300282E046
:1028A00090E090932F0280932E0293CEBB24B3949A
:1028B000B2CE85E190E09A838983CE0101965C01D6
:1028C0004C01F401819191914F01009769F0FC0155
:1028D000EE0FFF1FEE0FFF1FE853FE4F40815181A7
:1028E000628173810E9499002F8138858216930638
:1028F00041F7409120025091210260912202709193
:10290000230286E190E00E949900E0912D021A8254
:1029100019821C821B82E550E73308F075C0F0E095
:10292000EC56FB4E0C9489188C158C158C158C1557
:102930008C15021502150215021502158A158A1545
:102940008A158A158A158F158F158F158F158F1576
:10295000961596159615961596159D159D159D150A
:102960009D159D15A615A615A615A615A615B11596
:10297000B115B115B115B115B415B415B415B4151B
:10298000B415B715B715B715B715B715BC15BC15E0
:10299000BC15BC15BC1581E190E08DCF8FE090E0B7
:1029A0008ACF84E190E087CF85E090E09A838983A5
:1029B00086E090E09C838B8380CF81E090E0F6CF2F
:1029C0008AE090E09A8389838BE090E0F3CF81E006
:1029D00090E09A83898382E090E0ECCF87E090E0FA
:1029E0009A8389838CE090E0E5CF7A82698265CF13
:1029F0007A82698285E190E0DDCF7A82698281E125
:102A000090E0D8CFFA82E982F501819191915F013E
:102A1000009769F0FC01EE0FFF1FEE0FFF1FE85358
:102A2000FE4F40815181628173810E9499008A1416
:102A30009B0451F789819A81892B41F48B819C8178
:102A4000892B21F48D819E81892B61F04091280290
:102A50005091290260912A0270912B0288E190E046
:102A60000E94990080913202909133028130910549
:102A700009F487C0029709F49AC0809132029091BC
:102A80003302892BC1F080912E0290912F02009782
:102A900009F0A1C0809130029091310218161906F8
:102AA0000CF4BAC080913002909131020697909355
:102AB000310280933002802F0F5F2091460302176E
:102AC00009F4C9C0A0904703B0904803215070E0BA
:102AD00060E059F08F3F09F0B2C030E050E040E0D4
:102AE000C201B1010E946A18B901F5014091420387
:102AF00050914303CF018A199B098417950708F069
:102B0000A8C04081469FC001479F900D112490832B
:102B10003196ECCFFA82E982DC82CB8275CF8DE0F0
:102B200090E09A838983FC82EB826ECFEDE0F0E047
:102B3000FA83E983FC82EB8211C022E130E03A8320
:102B4000298387E190E09C838B835ECFE2E1F0E014
:102B5000FA83E98327E130E03C832B83DE82CD8258
:102B600053CF84E090E0DDCFE4E0F0E0E1CF29E076
:102B700030E03A832983D7CF89E090E09A83898334
:102B8000D9CF809138029091390240E050E0BA01EB
:102B9000019741F44091200250912102609122025C
:102BA0007091230286E190E00E94990066CF8091A7
:102BB00038029091390240E050E0BA01019741F4A7
:102BC000409128025091290260912A0270912B02B3
:102BD00088E190E0E9CF8130910561F440913002C5
:102BE00050913102141615060CF05CCF50E070E0E5
:102BF00060E020C0029709F055CF4091300250911B
:102C00003102141615060CF04DCF50E070E060E074
:102C1000BA01552744270EC090E0B0E0A0E0BC0107
:102C200055274427BA2FA92F982F8827482B592B8F
:102C30006A2B7B2B88E090E00E94990033CF802F95
:102C400090E0982F88270197622F70E00E9420184B
:102C50004CCF009346030E94B701809132029091BD
:102C60003302019799F080913202909133020297DA
:102C700069F08091320290913302039739F080918C
:102C8000320290913302049709F08ACB68E070E039
:102C900080E090E089CB80914703909148030E94A7
:102CA0002B19809144039091450397FD03C060E088
:102CB0000C9456010895F999FECF92BD81BDF89A02
:102CC000992780B50895262FF999FECF1FBA92BD96
:102CD00081BD20BD0FB6F894FA9AF99A0FBE0196FD
:102CE00008950E9485160C946D170E94661758F07F
:102CF0000E945F1740F029F45F3F29F00C945617AB
:102D000051110C94A1170C945C170E947E1768F364
:102D10009923B1F3552391F3951B550BBB27AA2794
:102D200062177307840738F09F5F5F4F220F331FCE
:102D3000441FAA1FA9F335D00E2E3AF0E0E832D096
:102D400091505040E695001CCAF72BD0FE2F29D099
:102D5000660F771F881FBB1F261737074807AB076B
:102D6000B0E809F0BB0B802DBF01FF2793585F4FE0
:102D70003AF09E3F510578F00C9456170C94A11729
:102D80005F3FE4F3983ED4F3869577956795B795C2
:102D9000F7959F5FC9F7880F911D9695879597F9CD
:102DA0000895E1E0660F771F881FBB1F6217730746
:102DB0008407BA0720F0621B730B840BBA0BEE1F5B
:102DC00088F7E09508950E94EA166894B1110C9472
:102DD000A11708950E94861788F09F5798F0B92F81
:102DE0009927B751B0F0E1F0660F771F881F991F40
:102DF0001AF0BA95C9F714C0B13091F00E94A0172B
:102E0000B1E008950C94A017672F782F8827B85F3A
:102E100039F0B93FCCF3869577956795B395D9F797
:102E20003EF490958095709561957F4F8F4F9F4FA1
:102E30000895E89409C097FB3EF4909580957095AD
:102E400061957F4F8F4F9F4F9923A9F0F92F96E9F6
:102E5000BB279395F695879577956795B795F1116B
:102E6000F8CFFAF4BB0F11F460FF1BC06F5F7F4F08
:102E70008F4F9F4F16C0882311F096E911C077231A
:102E800021F09EE8872F762F05C0662371F096E823
:102E9000862F70E060E02AF09A95660F771F881FF2
:102EA000DAF7880F9695879597F9089597F99F67B0
:102EB00080E870E060E008959FEF80EC08950024C2
:102EC0000A941616170618060906089500240A948F
:102ED00012161306140605060895092E0394000C15
:102EE00011F4882352F0BB0F40F4BF2B11F460FFA4
:102EF00004C06F5F7F4F8F4F9F4F089557FD9058CD
:102F0000440F551F59F05F3F71F04795880F97FBAD
:102F1000991F61F09F3F79F0879508951216130667
:102F20001406551FF2CF4695F1DF08C01616170696
:102F30001806991FF1CF86957105610508940895CB
:102F4000E894BB2766277727CB0197F908950E945D
:102F5000BA170C946D170E945F1738F00E9466171D
:102F600020F0952311F00C9456170C945C17112443
:102F70000C94A1170E947E1770F3959FC1F3950FD3
:102F800050E0551F629FF001729FBB27F00DB11DED
:102F9000639FAA27F00DB11DAA1F649F6627B00D7D
:102FA000A11D661F829F2227B00DA11D621F739F66
:102FB000B00DA11D621F839FA00D611D221F749F74
:102FC0003327A00D611D231F849F600D211D822FBB
:102FD000762F6A2F11249F5750409AF0F1F08823E2
:102FE0004AF0EE0FFF1FBB1F661F771F881F91500F
:102FF0005040A9F79E3F510580F00C9456170C9451
:10300000A1175F3FE4F3983ED4F3869577956795D3
:10301000B795F795E7959F5FC1F7FE2B880F911D38
:103020009695879597F90895991B79E004C0991FA3
:10303000961708F0961B881F7A95C9F78095089512
:10304000AA1BBB1B51E107C0AA1FBB1FA617B707CE
:1030500010F0A61BB70B881F991F5A95A9F78095EA
:103060009095BC01CD01089597FB072E16F40094AE
:1030700007D077FD09D00E94201807FC05D03EF448
:10308000909581959F4F0895709561957F4F089514
:10309000A1E21A2EAA1BBB1BFD010DC0AA1FBB1F5C
:1030A000EE1FFF1FA217B307E407F50720F0A21BCE
:1030B000B30BE40BF50B661F771F881F991F1A943B
:1030C00069F760957095809590959B01AC01BD0165
:1030D000CF010895052E97FB1EF400940E948118DD
:1030E00057FD07D00E94481807FC03D04EF40C94FB
:1030F000811850954095309521953F4F4F4F5F4F28
:10310000089590958095709561957F4F8F4F9F4F53
:103110000895EE0FFF1F0590F491E02D09940F9391
:103120001F93CF93DF938230910510F482E090E0FB
:10313000E0915603F091570330E020E0B0E0A0E0CA
:10314000309799F42115310509F44AC0281B390B31
:1031500024303105D8F58A819B816115710589F18B
:10316000FB0193838283FE0111C040815181028162
:10317000138148175907E0F04817590799F4109739
:1031800061F012960C93129713961C933296CF010E
:10319000DF91CF911F910F910895009356031093E3
:1031A0005703F4CF2115310551F04217530738F07A
:1031B000A901DB019A01BD01DF01F801C1CFEF01D7
:1031C000F9CF9093570380935603CDCFFE01E20FC2
:1031D000F31F819391932250310939832883D7CFEC
:1031E0002091540330915503232B41F420910B017E
:1031F00030910C0130935503209354032091090121
:1032000030910A012115310541F42DB73EB74091A7
:103210000D0150910E01241B350BE0915403F091E8
:103220005503E217F307A0F42E1B3F0B28173907AD
:1032300078F0AC014E5F5F4F2417350748F04E0F12
:103240005F1F5093550340935403819391939FCFF5
:10325000F0E0E0E09CCFCF93DF930097E9F0FC0132
:10326000329713821282A0915603B0915703ED0159
:1032700030E020E01097A1F420813181820F931F6C
:1032800020915403309155032817390709F061C084
:10329000F0935503E0935403DF91CF910895EA0131
:1032A000CE17DF07E8F54A815B819E014115510584
:1032B000B1F7E901FB83EA8349915991C40FD51F06
:1032C000EC17FD0761F4808191810296840F951FB0
:1032D000E90199838883828193819B838A83F0E0CB
:1032E000E0E012968D919C9113970097B9F52D917E
:1032F0003C911197CD010296820F931F20915403A8
:10330000309155032817390739F6309751F5109247
:10331000570310925603B0935503A0935403BCCFA8
:10332000D383C28340815181840F951FC817D90769
:1033300061F44E5F5F4F88819981480F591F518317
:1033400040838A819B81938382832115310509F013
:10335000B0CFF0935703E09356039ECFFD01DC01FD
:10336000C0CF13821282D7CF10E0CDE5D0E004C0E9
:10337000FE010E9489182196CE35D107C9F7F8942D
:02338000FFCF7D
:10338200B102B1021201010CFF00005803800000DB
:103392000000005203B202DF029F031003EE02029A
:1033A20003000000005C052F058B050C05A8021C1C
:1033B200050D052D2D2D207468656D65206E756DCA
:1033C200202D2D000D0A002053657454696D65206F
:0633D2003A20003A000061
:00000001FF
