:100000000C94BA000C949B090C9474090C94E200B3
:100010000C94E2000C94E2000C94E2000C94E200D8
:100020000C94E2000C94E2000C94E2000C94E200C8
:100030000C94E2000C94E2000C94E2000C94E200B8
:100040000C942A090C94E2000C9411080C94EB0710
:100050000C94E2000C94E2000C94E2000C94E20098
:100060000C94C2090C94E200A0117411F9137911D7
:100070007E11831186118B119011951198119B118E
:100080006C12311234123D124012431246124D12BC
:1000900054125B12621265126C12311234123D124C
:1000A0004012431246124D1254125B126212651234
:1000B0006C12AE12AE12AE12AE12AE12A912A9128C
:1000C000A912A912A912AC12AC12AC12AC12AC1249
:1000D000B112B112B112B112B112B412B412B412FF
:1000E000B412B412B712B712B712B712B712C012C5
:1000F000C012C012C012C012C912C912C912C9124C
:10010000C912CE12CE12CE12CE12CE12D312D312EA
:10011000D312D312D312DA12DA12DA12DA12DA1294
:1001200000000000240027002A0000000008000250
:1001300001000003040700000000000000000102AD
:100140000408102040800102040810200102040865
:10015000102000000000250028002B0004040404E7
:100160000404040402020202020203030303030361
:100170000E14FE1311241FBECFEFD8E0DEBFCDBF9B
:1001800011E0A0E0B1E0E4E6F0E302C005900D92DA
:10019000AC37B107D9F723E0ACE7B1E001C01D925D
:1001A000AB37B207E1F710E0C9EBD0E004C021970C
:1001B000FE010E943415C83BD107C9F70E94EC0C20
:1001C0000C9425180C9400008F929F92AF92BF92CE
:1001D000CF92DF92EF92FF9220E030E043E75FEFB3
:1001E0006FEF70E0F901EE0FFF1FEE0FFF1FEE55EE
:1001F000FE4F40835183628373832F5F3F4F2931CA
:10020000310581F70097E1F480E09FEFA0E0B0E0D6
:100210008093A2019093A301A093A401B093A501A0
:1002200080E09FEFAFEFB0E08093AE019093AF011D
:10023000A093B001B093B1018FEF90E0DC011DC439
:1002400081309105A9F48DEC91EEAFEFB0E0809391
:10025000A2019093A301A093A401B093A501809360
:10026000AE019093AF01A093B001B093B10105C46A
:100270008230910571F580E090E042E351EE61EE4D
:1002800070E0FC01EE0FFF1FEE0FFF1FEE55FE4F5B
:10029000408351836283738301968931910589F785
:1002A00080E090E0AFEFB0E08093A2019093A301D3
:1002B000A093A401B093A5018093AE019093AF01E8
:1002C000A093B001B093B10180E09FEFA0E0B0E057
:1002D000D4C383309105F1F580E090E047E453E624
:1002E0006FEF70E0FC01EE0FFF1FEE0FFF1FEE55EA
:1002F000FE4F408351836283738301968931910558
:1003000089F78AE790EAAFEFB0E08093A20190937B
:10031000A301A093A401B093A50180E095E4AFEF01
:10032000B0E08093AE019093AF01A093B001B09381
:10033000B10180E09CE8AFEFB0E08093FA019093C8
:10034000FB01A093FC01B093FD0180E095EAAFEFC3
:10035000B0E0C4C384309105F1F580E090E04DE554
:100360005DE56DE570E0FC01EE0FFF1FEE0FFF1F76
:10037000EE55FE4F4083518362837383019689312A
:10038000910589F780E090E0ACE0B0E08093A201B5
:100390009093A301A093A401B093A50181E091E003
:1003A000ADE0B0E08093AE019093AF01A093B001B7
:1003B000B093B10182E19AE0A6E1B0E08093FA0146
:1003C0009093FB01A093FC01B093FD0186E298E1BC
:1003D000ADE2B0E083C38530910591F580E090E017
:1003E00042E252E763EE70E0FC01EE0FFF1FEE0FFA
:1003F000FF1FEE55FE4F4083518362837383019646
:100400008931910589F78BE999E9A7E0B0E08093FC
:10041000A2019093A301A093A401B093A5018FEB37
:1004200099EBA6E6B0E08093AE019093AF01A09364
:10043000B001B093B1018BE79AEAAEEEB0E01DC314
:100440008630910579F580E090E020E130E08D3054
:1004500091051CF42B5F3F4F02C025503109422FFC
:1004600050E060E070E05A0199248824CC24D42E16
:10047000E52EF62EC828D928EA28FB284C295D2924
:100480006E297F29FC01EE0FFF1FEE0FFF1FEE55B7
:10049000FE4F4083518362837383019689319105B6
:1004A000B1F624C387309105F1F580E090E04DE48A
:1004B00051EC6DE570E0FC01EE0FFF1FEE0FFF1F2A
:1004C000EE55FE4F408351836283738301968931D9
:1004D000910589F780E69FEBA8E3B0E08093A20145
:1004E0009093A301A093A401B093A5018FE39CEA8C
:1004F000A2E1B0E08093AE019093AF01A093B00170
:10050000B093B1018DE290E4A5E0B0E08093FA01F0
:100510009093FB01A093FC01B093FD018BE190E36C
:10052000A0E0B0E0DBC28830910591F580E090E07A
:1005300041EC56EB6FEF70E0FC01EE0FFF1FEE0F8A
:10054000FF1FEE55FE4F40835183628373830196F4
:100550008931910589F784EB99E6AFEFB0E080939C
:10056000A2019093A301A093A401B093A50183E9F4
:1005700094E1AFEFB0E08093AE019093AF01A09310
:10058000B001B093B10185E895E1A7ECB0E075C288
:100590008930910509F01DC18FE29FEFADEAB0E00F
:1005A0008093A2019093A301A093A401B093A5010D
:1005B00080E09FEFAFE7B0E08093A6019093A701A2
:1005C000A093A801B093A90180E09CEFACE7B0E054
:1005D0008093AA019093AB01A093AC01B093AD01BD
:1005E00080E09FEFA0E0B0E08093AE019093AF0178
:1005F000A093B001B093B10182E39DECA2E3B0E01F
:100600008093B2019093B301A093B401B093B5016C
:1006100088E99BEFA8E9B0E08093B6019093B70119
:10062000A093B801B093B90180E99EEEA0E9B0E0D3
:100630008093BA019093BB01A093BC01B093BD011C
:100640008AE99AEFA0E0B0E08093BE019093BF01E9
:10065000A093C001B093C1018FE79FEFA0E0B0E08D
:100660008093C2019093C301A093C401B093C501CC
:100670008093C6019093C701A093C801B093C901AC
:1006800081E793EBACE3B0E08093CA019093CB0198
:10069000A093CC01B093CD0187E59BE8AEE2B0E03A
:1006A0008093CE019093CF01A093D001B093D1015C
:1006B00082E29BE8A2E2B0E08093D2019093D30162
:1006C000A093D401B093D50180E090E8A0E0B0E021
:1006D0008093D6019093D701A093D801B093D9010C
:1006E00080E094E6A0E0B0E08093DA019093DB0133
:1006F000A093DC01B093DD0182E39DECAAE9B0E0B8
:100700008093DE019093DF01A093E001B093E101BB
:100710008093E2019093E301A093E401B093E5019B
:1007200083E29EE8ABE6B0E08093E6019093E701B8
:10073000A093E801B093E90180E090E8A0E8B0E080
:100740008093EA019093EB01A093EC01B093ED014B
:100750008FE29BE6A5E5B0E08093EE019093EF0178
:10076000A093F001B093F1018AEA9DECA6E6B0E017
:100770008093F2019093F301A093F401B093F501FB
:100780008FE89CEBAFE8B0E08093F6019093F7011F
:10079000A093F801B093F9018AEA92EBA0E2B0E0ED
:1007A0008093FA019093FB01A093FC01B093FD01AB
:1007B0008BE89BE8A0E0B0E08093FE019093FF01FE
:1007C000A0930002B093010280E890E8A0E0B0E0BE
:1007D00085C18A30910509F021C18FEF9FEFA0E01C
:1007E000B0E08093A2019093A301A093A401B093E1
:1007F000A5018093A6019093A701A093A801B093AF
:10080000A9018FEF9FEFA0EEB0E08093AA01909333
:10081000AB01A093AC01B093AD018EEE9EEEAFEABA
:10082000B0E08093AE019093AF01A093B001B0937C
:10083000B1018AED9FEFAFE7B0E08093B2019093F2
:10084000B301A093B401B093B50180ED90EEA0E4A4
:10085000B0E08093B6019093B701A093B801B09334
:10086000B9018CEC91EDA8E4B0E08093BA019093CB
:10087000BB01A093BC01B093BD0181ED9EECA0E053
:10088000B0E08093BE019093BF01A093C001B093EC
:10089000C10180EA9EE9AFE5B0E08093C201909388
:1008A000C301A093C401B093C50184EB92E8A6E410
:1008B000B0E08093C6019093C701A093C801B093A4
:1008C000C9018EED94ECA0EBB0E08093CA01909347
:1008D000CB01A093CC01B093CD0186EE90EEA0EBBE
:1008E000B0E08093CE019093CF01A093D001B0935C
:1008F000D10186EE98EDADEAB0E08093D2019093FD
:10090000D301A093D401B093D5018BEE9EECA7E860
:10091000B0E08093D6019093D701A093D801B09313
:10092000D9018AEF9EECA7E8B0E08093DA019093BA
:10093000DB01A093DC01B093DD018FEF9FEBA0E022
:10094000B0E08093DE019093DF01A093E001B093CB
:10095000E1018FEF90E9AEE1B0E08093E201909386
:10096000E301A093E401B093E5018DEE95E9A4E6DF
:10097000B0E08093E6019093E701A093E801B09383
:10098000E9018EEE98E6ABE7B0E08093EA01909340
:10099000EB01A093EC01B093ED0181EE99E6A1E4A7
:1009A000B0E08093EE019093EF01A093F001B0933B
:1009B000F1018FEF90E0A0E0B0E08093F20190931E
:1009C000F301A093F401B093F5018DEC90E0A0E069
:1009D000B0E08093F6019093F701A093F801B093F3
:1009E000F9018BE890E0A0E0B0E08093FA019093E9
:1009F000FB01A093FC01B093FD0180E890E0A0E032
:100A0000B0E08093FE019093FF01A0930002B093A9
:100A1000010280E799E1A9E1B0E060C00B97B1F570
:100A200080E090E040E65FEF6FEF70E0FC01EE0FDA
:100A3000FF1FEE0FFF1FEE55FE4F40835183628371
:100A4000738301968931910589F780E097EDAFEFC7
:100A5000B0E08093A2019093A301A093A401B0936E
:100A6000A5018093AE019093AF01A093B001B09324
:100A7000B10180E09FEFAFEFB0E08093FA01909377
:100A8000FB01A093FC01B093FD0128C087ED97E323
:100A9000A7EDB0E08093A2019093A301A093A401DD
:100AA000B093A50187ED9FEFAFEFB0E08093AE016B
:100AB0009093AF01A093B001B093B10187ED9FEF88
:100AC000A7E3B0E08093FA019093FB01A093FC01AF
:100AD000B093FD0187ED97E3AFEFB0E080930202A2
:100AE00090930302A0930402B0930502FF90EF904D
:100AF000DF90CF90BF90AF909F908F900895CF934D
:100B0000DF93C0E0D0E040E050E0BA01CE010E94A7
:100B1000C30B2196C931D105B1F7DF91CF910C9468
:100B2000030BCF92DF92EF92FF92CF93DF93C42E0D
:100B3000D12CE12CF12CD62AE82AC0E0D0E0B70174
:100B4000A601CE010E94C30B2196C931D105B9F788
:100B5000DF91CF91FF90EF90DF90CF900C94030B3B
:100B6000CF92DF92EF92FF920F931F93CF93DF9379
:100B70006C017A018B01C0E0D0E0CE15DF0589F071
:100B8000D8016D918D01D601ED91FC910190F0811C
:100B9000E02DC6010995892B11F47E0102C0219632
:100BA000ECCFC701DF91CF911F910F91FF90EF9094
:100BB000DF90CF900895FC01918D828D981761F0A0
:100BC000828DDF01A80FB11D5D968C91928D9F5F84
:100BD0009F73928F90E008958FEF9FEF0895FC012F
:100BE000918D828D981731F0828DE80FF11D858DE2
:100BF00090E008958FEF9FEF0895FC01918D228D75
:100C0000892F90E0805C9F4F821B91098F739927F9
:100C1000089589EB92E00E94FD0521E0892B09F4FB
:100C200020E0822F0895FC01848DDF01A80FB11D03
:100C3000A35ABF4F2C91848D90E001968F73992712
:100C4000848FA689B7892C93A089B1898C918064FF
:100C50008C93938D848D981306C00288F389E02DC0
:100C600080818F7D80830895EF92FF920F931F9371
:100C7000CF93DF93EC0181E0888F9B8D8C8D98134F
:100C800005C0E889F989808185FD24C0F62E0B8D89
:100C900010E00F5F1F4F0F731127E02E8C8DE812AD
:100CA0000CC00FB607FCFACFE889F989808185FF6F
:100CB000F5CFCE010E941306F1CF8B8DFE01E80F18
:100CC000F11DE35AFF4FF0820B8FEA89FB89808187
:100CD000806207C0EE89FF896083E889F989808195
:100CE0008064808381E090E0DF91CF911F910F912C
:100CF000FF90EF900895CF93DF93EC01888D8823C8
:100D0000C9F0EA89FB89808185FD05C0A889B98978
:100D10008C9186FD0FC00FB607FCF5CF808185FF53
:100D2000F2CFA889B9898C9185FFEDCFCE010E94C1
:100D30001306E7CFDF91CF91089580E090E0892BF3
:100D400029F00E94090681110C940000089508956D
:100D500085ED8093BC008091BC0084FDFCCF109297
:100D60009402089540914002262F30E0240F311D57
:100D700021323105DCF4209194022430C9F4FC01C5
:100D800080E090E0861758F4309140022191DC0118
:100D9000A25EBD4FA30FB11D2C930196F3CF80919E
:100DA0004002680F6093400280E0089581E008955A
:100DB00082E008950895E091A0018091A101E817D3
:100DC00030F4F0E0E058FE4F808190E008958FEF1E
:100DD0009FEF08959091A0018091A101981750F480
:100DE000E92FF0E0E058FE4F208130E09F5F9093C4
:100DF000A00102C02FEF3FEFC90108958091A1012A
:100E000090E02091A001821B91090895CF92DF927A
:100E1000EF92FF920F931F93CF93DF937C01262FC6
:100E2000972F8A0180919502882391F0C62FD72FA2
:100E30006E01C40ED51ECC15DD0571F06991D70188
:100E4000ED91FC910190F081E02DC7010995F3CF60
:100E5000642F822F0E94B206C801DF91CF911F91AB
:100E60000F91FF90EF90DF90CF900895CF93DF9395
:100E70001F92CDB7DEB76983209195022223D1F06E
:100E80002091B802203240F021E030E0FC013383B1
:100E9000228380E090E015C080919602E82FF0E078
:100EA000E956FD4F998190838F5F809396028093DE
:100EB000B80205C061E0CE0101960E94B20681E051
:100EC00090E00F90DF91CF9108950E940A188091D1
:100ED000080290910902181619062CF410920902C2
:100EE00010920802089580910602909107020196DF
:100EF000909307028093060263E070E00E94DF1483
:100F00009093070280930602809106029091070257
:100F1000029731F481E090E090937F0180937E010D
:100F20008091060290910702892B31F481E090E0D4
:100F300090931D0280931C0281E090E090930B023D
:100F400080930A020E94F00A90930D0280930C0293
:100F500008958091060290910702181619062CF444
:100F60001092070210920602089580910802909153
:100F700009020196909309028093080263E070E0F1
:100F80000E94DF1490930902809308028091080266
:100F900090910902029731F481E090E090937D01F5
:100FA00080937C018091080290910902892B31F491
:100FB00081E090E090937D0180937C0181E090E05E
:100FC00090930B0280930A020E94F00A90930D0204
:100FD00080930C0208951F920F920FB60F92112466
:100FE0002F933F934F935F936F937F938F939F9331
:100FF000AF93BF93EF93FF9389EB92E00E941306A8
:10100000FF91EF91BF91AF919F918F917F916F91E0
:101010005F914F913F912F910F900FBE0F901F90B6
:1010200018951F920F920FB60F9211242F938F9342
:101030009F93EF93FF93E091C902F091CA028081E0
:10104000E091CF02F091D00282FD12C09081809198
:10105000D2028F5F8F732091D302821751F0E091FB
:10106000D202F0E0E754FD4F958F8093D20201C089
:101070008081FF91EF919F918F912F910F900FBEE3
:101080000F901F90189590E0FC01E65DFE4F3491A3
:10109000FC01E25CFE4F2491FC01E45AFE4FE49116
:1010A000EE2309F43BC0332339F1333091F038F4A7
:1010B0003130A9F0323001F584B58F7D12C0373060
:1010C00091F03830A1F03430B9F4809180008F7DF8
:1010D00003C0809180008F77809380000DC084B51D
:1010E0008F7784BD09C08091B0008F7703C0809155
:1010F000B0008F7D8093B000F0E0EE0FFF1FEE5A3E
:10110000FE4FA591B4918FB7F894EC91611103C093
:1011100020952E2301C02E2B2C938FBF0895CF93A3
:10112000DF9390E0FC01E25CFE4F2491FC01E45A65
:10113000FE4F8491882361F190E0880F991FFC0194
:10114000E05EFE4FC591D491FC01EE5AFE4FA59191
:10115000B491611109C09FB7F894888120958223CA
:101160008883EC912E230BC0623061F49FB7F89412
:101170003881822F809583238883EC912E2B2C93AA
:101180009FBF06C08FB7F894E8812E2B28838FBFAE
:10119000DF91CF9108953FB7F89480916A029091C2
:1011A0006B02A0916C02B0916D0226B5A89B05C0A0
:1011B0002F3F19F00196A11DB11D3FBFBA2FA92FD6
:1011C000982F8827820F911DA11DB11DBC01CD0153
:1011D00042E0660F771F881F991F4A95D1F708953F
:1011E0008F929F92AF92BF92CF92DF92EF92FF9237
:1011F0006B017C010E94CB084B015C01C114D1043E
:10120000E104F104F1F00E94CB08DC01CB01881964
:101210009909AA09BB09883E9340A105B10570F35D
:1012200021E0C21AD108E108F10888EE880E83E0B7
:10123000981EA11CB11CC114D104E104F10419F7DA
:10124000DDCFFF90EF90DF90CF90BF90AF909F9059
:101250008F9008951F920F920FB60F9211242F9323
:101260003F938F939F93AF93BF938091660290912A
:101270006702A0916802B09169023091650223E093
:10128000230F2D3720F40196A11DB11D05C026E8BE
:10129000230F0296A11DB11D209365028093660263
:1012A00090936702A0936802B093690280916A02EA
:1012B00090916B02A0916C02B0916D020196A11DFC
:1012C000B11D80936A0290936B02A0936C02B0935D
:1012D0006D02BF91AF919F918F913F912F910F9090
:1012E0000FBE0F901F9018951F920F920FB60F927E
:1012F00011242F933F934F935F936F937F938F931B
:101300009F93AF93BF93EF93FF93E0910201F0910E
:1013100003010995FF91EF91BF91AF919F918F913B
:101320007F916F915F914F913F912F910F900FBEE1
:101330000F901F9018951F920F920FB60F921124C5
:101340002F933F934F935F936F937F938F939F93CD
:10135000AF93BF93EF93FF93E0910001F0910101F0
:101360000995FF91EF91BF91AF919F918F917F91DF
:101370006F915F914F913F912F910F900FBE0F9002
:101380001F9018951F920F920FB60F9211242F9352
:101390003F934F935F936F937F938F939F93AF93FD
:1013A000BF93EF93FF938091B900887F803609F453
:1013B0009CC068F5883209F45BC090F4803109F470
:1013C00054C038F4882309F4F6C0883009F44DC0BD
:1013D000F6C0883109F44CC0803209F45DC0EFC01A
:1013E000803409F468C048F4803309F455C0883368
:1013F00009F0E5C080939202D8C0803509F44FC04F
:10140000883509F45DC0883409F0D9C0D6C0883960
:1014100009F4C7C0A8F4883709F467C038F48836DF
:1014200009F463C0803709F460C0C9C0883809F482
:10143000B8C0803909F45FC0803809F0C0C05BC013
:10144000803B09F486C038F4803A09F466C0883AD3
:1014500009F47FC0B4C0803C09F4A7C0883C09F4FB
:10146000A4C0883B09F48AC0AAC080916F0210C052
:101470009091910280919002981770F5E0919102FD
:1014800081E08E0F80939102F0E0E059FD4F808162
:101490008093BB0085EC86C0809392028EC0E09161
:1014A000910281E08E0F809391028091BB00F0E069
:1014B000E059FD4F808390919102809190026EC01F
:1014C000E091910281E08E0F809391028091BB00A8
:1014D000F0E0E059FD4F80838091930281116DC04F
:1014E00081E080936E0284EA61C083E0809394027D
:1014F00010926402CFCF80916402803208F051C014
:10150000E091640281E08E0F809364028091BB00C1
:10151000F0E0EC5BFD4F8083BDCF85EC8093BC0099
:101520001092940280916402803230F4E09164025F
:10153000F0E0EC5BFD4F10826091640270E0E0919E
:101540004202F091430284E492E009951092640211
:1015500036C084E0809394021092410210924002BF
:10156000E0913E02F0913F02099580914002811185
:1015700005C081E08093400210921E02E09141027A
:1015800081E08E0F80934102F0E0E25EFD4F8081AA
:101590008093BB009091410280914002981708F41B
:1015A00079CF85E88093BC000AC085EC8093BC00AD
:1015B0001092940204C0109292020E94A806FF9119
:1015C000EF91BF91AF919F918F917F916F915F91BB
:1015D0004F913F912F910F900FBE0F901F90189534
:1015E00080E480937C0080917A00806480937A000C
:1015F00080917A0086FDFCCF80917800209179005F
:1016000090E0922B08950F931F93CF93DF93CDB764
:10161000DEB729970FB6F894DEBF0FBECDBF80911D
:101620006A0390916B03892B09F4A2C00E94CB0836
:101630000091700310917103209172033091730334
:10164000DC01CB01801B910BA20BB30B8C329140C0
:10165000A105B10558F3F894809166039091670352
:101660009A838983E0916A03F0916B03DF011196FD
:101670008081898790916203E0917403F0917503F2
:1016800080917603992309F42EC09081982B988736
:101690009081809589238F838F818C8388E08B83D1
:1016A00058856F8149853B812C8189819A8150833E
:1016B00047FD252F3A952083262F39F0441F00C07F
:1016C00000006083000000C0F2CF38E04D916083DD
:1016D0000000019761F7F0937503E0937403498765
:1016E0003B832C8338C09081982B9887908180957C
:1016F00089238F838F818E8388E08D8358856F81C6
:1017000049853D812E8189819A81508347FD252F0E
:1017100000C000C0208300C000C000C000C000C0E6
:1017200060830000262F3A9541F0441F000000C05E
:1017300000C000C000C000C0E8CF38E04D9100C03C
:10174000608300C0019709F7F0937503E093740379
:1017500049873D832E839A83898378940E94CB089E
:10176000609370037093710380937203909373037B
:1017700029960FB6F894DEBF0FBECDBFDF91CF9193
:101780001F910F9108958F929F92AF92BF92CF9227
:10179000DF92EF92FF9220916403309165038217EC
:1017A000930708F052C04B01AA24BB24E82DC52E94
:1017B000D62EE72EFF24FC2D342F209169032223FF
:1017C00061F0829E40011124E92DC29E6001112426
:1017D000FD2D429FD00111243B2FF0906F03E0902C
:1017E0006C03A0916A03B0916B03FE1008C0AC01BA
:1017F000440F551F840F951F8A0F9B1F14C0880F1D
:10180000991F880F991F8A0F9B1F472F55276627FF
:101810007727DC01AF0DB11D222321F0429FA001EB
:101820001124452F4C9320916C03DC01A20FB11DB4
:10183000EC9320916D03DC01A20FB11DFC9320916C
:101840006E03FC01E20FF11D3083FF90EF90DF90FB
:10185000CF90BF90AF909F908F900895009769F0C0
:10186000FC0101900020E9F73197AF01481B590BAB
:10187000BC0189EB92E00C94B00580E090E0089503
:101880008F929F92AF92BF920F931F93CF93DF934C
:10189000CDB7DEB7A1970FB6F894DEBF0FBECDBFB0
:1018A00019A2423008F44AE08E010F5D1F4F842ECA
:1018B000912CA12CB12CA50194010E94F314E62FC8
:1018C000B901CA0101501109EA3014F4E05D01C008
:1018D000E95CD801EC93232B242B252B61F7C8015D
:1018E0000E942E0CA1960FB6F894DEBF0FBECDBF9E
:1018F000DF91CF911F910F91BF90AF909F908F90EC
:101900000895CF93DF930E942E0CEC0180E491E0C8
:101910000E942E0C8C0F9D1FDF91CF910895209176
:10192000B8029091B702213208F04AC08091940227
:101930008111FCCF32E03093940231E03093930276
:101940003FEF309392021092910220939002A7E908
:10195000B2E040E752E0FA013E2F341B321718F490
:101960003D913193F9CF10926F0220916F02990F40
:10197000922B90936F0290916E02913061F41092CD
:101980006E0290916F029093BB009091BC0093FD0A
:10199000F8CF95EC01C095EE9093BC009091940225
:1019A0009230E1F3909192029F3F79F08091920200
:1019B000803241F080919202803331F084E005C0A2
:1019C00081E003C082E001C083E010929602109291
:1019D000B802109295020895CF93DF9300D000D003
:1019E00000D0CDB7DEB7789484B5826084BD84B56D
:1019F000816084BD85B5826085BD85B5816085BD0A
:101A000080916E00816080936E00109281008091C1
:101A10008100826080938100809181008160809349
:101A20008100809180008160809380008091B1006E
:101A300084608093B1008091B00081608093B00099
:101A400080917A00846080937A0080917A0082602D
:101A500080937A0080917A00816080937A008091EF
:101A60007A00806880937A001092C10080916803A8
:101A700087FD08C061E00E948F0860E080916803E4
:101A80000E94430881E080936303E12CF12C00E085
:101A900010E0E114F10431F440E050E060E070E067
:101AA000C8010DC021E0E216F10421F440E050E04D
:101AB000B80103C0A80160E070E080E090E00E94FF
:101AC00091056AE070E080E090E00E94F0080F5F0E
:101AD0001F4F0F3F1105E9F63FEFE31AF30A83E0CA
:101AE000E816F104A1F60E947F05FCEFAF2EBB249F
:101AF000BA9400E010E0A0E89A2EC12CD12C760117
:101B000009311105ACF4B60155274427BE2DAD2D82
:101B10009C2D8827482B592B6A2B7B2B4C295D2920
:101B20006E297F29C8010E94C30B04301105BCF047
:101B3000892D8C1990E0A0E0B0E03C0155244424AC
:101B40004427582F692F7A2F442955296629772948
:101B5000482B592B6A2B7B2BC5010E94C30B0E947B
:101B6000030B61E070E080E090E00E94F0089FEFDE
:101B7000C91AD90AE90AF90AE1E8CE16D104E10442
:101B8000F10409F0BDCF0F5F1F4FFFEFAF1ABF0A7F
:101B90000F31110509F0B1CF0E947F0580E090E080
:101BA0000E940F188093120281E090E00E940F18AB
:101BB000809307018091120290E00E94E400E0917E
:101BC000C902F091CA0282E08083E091C502F091DF
:101BD000C6021082E091C702F091C8028FEC8083A8
:101BE0001092D102E091CD02F091CE0286E0808386
:101BF000E091CB02F091CC02808180618083E09102
:101C0000CB02F091CC02808188608083E091CB028E
:101C1000F091CC02808180688083E091CB02F091CA
:101C2000CC0280818F7D80831092A0011092A1014F
:101C3000109296021092B8021092940281E0809362
:101C4000930210926E0261E082E10E94430861E01B
:101C500083E10E9443088091B9008E7F8093B90090
:101C60008091B9008D7F8093B90088E48093B8009B
:101C700085E48093BC0062E082E00E948F0889EADC
:101C800097E09093010180930001809169008C7F1F
:101C9000826080936900E89A62E083E00E948F0886
:101CA00087E697E090930301809302018091690099
:101CB000837F886080936900E99A60E08EE00E94EB
:101CC0008F088FE291E00E94810C6091120270E017
:101CD00080E090E04AE00E94400C80E491E00E94A5
:101CE0002E0C44244A94542C612C712C1E0127E0A4
:101CF000220E311C3EE0E32EF12C43E1C42ED12C08
:101D000080917C0190917D01019709F0A9C010920A
:101D10007D0110927C0182E18093040110920F02F8
:101D200011E010930E021093050183E491E00E94EC
:101D30002E0C6091080170E080E090E04AE00E9483
:101D4000400C8FE491E00E942E0C6091150270E02F
:101D500080E090E04AE00E94400C8FE491E00E9415
:101D60002E0C60910F0270E080E090E04AE00E944B
:101D7000400C80E491E00E942E0C1093950288E6BE
:101D80008093B702109296021092B80260E086E546
:101D900093E00E94360780910F021AE0612F0E94A3
:101DA000BF14692F30E1839F600D112486E593E015
:101DB0000E94360780911502612F0E94BF14692F7F
:101DC000E0E18E9F600D112486E593E00E943607C6
:101DD00080910801612F0E94BF14692FF0E18F9F4D
:101DE000600D112486E593E00E943607809106017C
:101DF000612F0E94BF14692F20E1829F600D112482
:101E000086E593E00E94360780910E02612F0E94C2
:101E1000BF14692F30E1839F600D112486E593E0A4
:101E20000E94360780910501612F0E94BF14692F1F
:101E3000E0E18E9F600D112486E593E00E94360755
:101E400080910401612F0E94BF14692FF0E18F9FE0
:101E5000600D112486E593E00E9436070E948F0CE6
:101E600080917E0190917F01019779F410927F011A
:101E700010927E018091120290E00E94E400609135
:101E8000120280E090E00E94171880911A0290914F
:101E90001B029C012F5F3F4F30931B0220931A02BD
:101EA00062E370E00E94DF14892B09F0EEC02091FC
:101EB00018023091190281E090E0232B11F080E0AC
:101EC00090E0909319028093180281E0809395022C
:101ED00088E68093B702109296021092B80260E0F2
:101EE00086E593E00E9436070E948F0C8091940251
:101EF0008111FCCF81E080939402809393029FEF45
:101F0000909392021092910296E0909390028093A7
:101F10006F0280916F02806D80936F0280916E02DC
:101F2000813061F410926E0280916F028093BB0049
:101F30008091BC0083FDF8CF85EC01C085EE8093D5
:101F4000BC00809194028130E1F38091910287304E
:101F500018F48091910201C087E0A0E7B2E020E888
:101F600031E0F9019E2F921B981718F49D919193DF
:101F7000F9CF1092A0018093A101882309F424C411
:101F800086E593E00E94EA0680930F0286E593E0DF
:101F90000E94EA068093150286E593E00E94EA0615
:101FA0008093080186E593E00E94EA06809306018B
:101FB00086E593E00E94EA0680930E0286E593E0B0
:101FC0000E94EA068093050186E593E00E94EA06F6
:101FD0008093040190910F0280910F0292959F705F
:101FE0008F702AE0929F800D112480930F029091B0
:101FF00015028091150292959F708F703AE0939F21
:10200000800D1124809315028091080190910801A0
:102010008073869586958695282F220F220F820F32
:102020009F70890F809308018091060187708093CB
:10203000060180910E0290910E028073869586951E
:102040008695282F220F220F820F9F70890F809371
:102050000E02809105019091050182958170880F93
:10206000282F220F220F820F9F70890F8093050166
:10207000909104018091040192959F708F70EAE025
:102080009E9F800D11248093040180910801873068
:1020900030F080910801BB24B394823108F0B12C58
:1020A00080910801882331F080910801AA24A3942B
:1020B000853008F0A12C0091070110E0B11018C084
:1020C0006091070170E080E090E00E94E215A110AD
:1020D00005C02AE939E949E15FE304C02DEC3CEC95
:1020E0004CE45FE30E9470160E94AC15061B170BB0
:1020F000812C912C40E050E0BA01C4010E94C30B36
:10210000FFEF8F1A9F0A29E18216910499F70E9426
:10211000F00A4C0180910C0290910D02F401E81B31
:10212000F90B1E161F064CF480910C0290910D02C3
:102130009401281B390BC90106C080910C029091B3
:102140000D02881999090B9724F010920B02109236
:102150000A0280910802909109028130910519F0DC
:10216000029761F15BC081E591E00E94810C809152
:102170001602909117021816190634F080E091E0CB
:10218000909317028093160280910A0290910B029D
:10219000892B09F030C1B401990C880B990B0E946E
:1021A000E41529E93AEA4AE252E40E943A150E940B
:1021B000AC1560930801109215021DC181E591E0F4
:1021C0000E94810C80911602909117021816190630
:1021D00034F080E091E09093170280931602809192
:1021E0000A0290910B02892B09F005C1B4016054D9
:1021F0007109072E000C880B990B0E94E41520E052
:1022000030E040EA52E40E943A150E94AC15862F55
:10221000880F880F680F60931502EDC08091060249
:10222000909107028130910521F0029709F4C5C011
:10223000E2C088E691E00E94810C809113029091A7
:1022400014021816190634F080E091E090931402FD
:102250008093130280910A0290910B02892B61F402
:10226000C4016AE570E00E94DF146093120280915D
:10227000120290E00E94E40000E010E0F801EE0F8E
:10228000FF1FEE0FFF1FEE55FE4F4081518162810F
:102290007381C8010E94C30B0F5F1F4F09311105E5
:1022A00069F74091A2015091A3016091A40170913E
:1022B000A50180E090E00E94C30B4091AE015091D7
:1022C000AF016091B0017091B10183E090E00E9494
:1022D000C30BE0911202F0E0EC30F10508F052C0BF
:1022E000EC5CFF4F0C94341500E010E081E190E0CD
:1022F0002BC000E010E084E190E026C006E010E092
:1023000085E090E021C006E010E007C00BE010E09F
:102310008AE090E019C002E010E081E090E014C093
:102320000CE010E087E090E00FC000E010E005C096
:1023300005E110E002C001E110E080E190E004C09E
:1023400000E010E085E190E0FC01EE0FFF1FEE0FD2
:10235000FF1FEE55FE4F40815181628173810E94C3
:10236000C30B0115110571F0F801EE0FFF1FEE0F01
:10237000FF1FEE55FE4F4081518162817381C8017C
:102380000E94C30B4091FA015091FB016091FC0146
:102390007091FD0186E190E00E94C30B4091020222
:1023A00050910302609104027091050288E190E06F
:1023B0000E94C30B0FEF10E068C180910A02909158
:1023C0000B02892B59F4B40197FE02C06D5F7F4F59
:1023D00075956795759567956093070180911002D3
:1023E000909111021816190634F080E091E0909354
:1023F000110280931002BB2049F04091A20150913C
:10240000A3016091A4017091A50103C040E050E0D8
:10241000BA0180E090E00E94C30BB11009C0409166
:10242000AE015091AF016091B0017091B10103C054
:1024300040E050E0BA0183E090E00E94C30B1A82B2
:1024400019821C821B821E821D82E09108018E2F40
:1024500090E08931910560F4FC01E05CFF4F0C9441
:10246000341585E190E002C081E190E09A83898390
:10247000CE0101965C014C013BC08FE090E0F6CFAD
:1024800084E190E0F3CF85E090E002C081E090E04D
:102490009A83898386E090E025C08AE090E09A8361
:1024A00089838BE090E01EC081E090E09A8389836D
:1024B00082E090E017C087E090E09A8389838CE007
:1024C00090E010C080E190E0D1CF80E190E09A836D
:1024D000898385E190E006C080E190E09A8389835A
:1024E00081E190E09C838B83C3CF82149304A1F09D
:1024F000F401819191914F010097B9F3FC01EE0F26
:10250000FF1FEE0FFF1FEE55FE4F4081518162818C
:1025100073810E94C30BE9CF4091FA015091FB01F6
:102520006091FC017091FD0186E190E00E94C30B77
:10253000E09115021A8219821C821B828E2F90E074
:10254000FC013597E733F105E8F5E75AFF4F0C94A6
:102550003415FA82E98236C0FA82E982DC82CB82C3
:1025600031C08DE090E017C08DE090E025C022E101
:1025700030E03A83298387E190E09C838B8322C0FB
:10258000E2E1F0E0FA83E98327E130E03C832B834A
:1025900017C084E090E09A83898309C0E4E0F0E00A
:1025A000FA83E9830BC029E030E03A832983FC8277
:1025B000EB8208C089E090E09A838983FC82EB82F9
:1025C000DE82CD82F501819191915F01009769F0E2
:1025D000FC01EE0FFF1FEE0FFF1FEE55FE4F408177
:1025E0005181628173810E94C30BA214B30451F71D
:1025F00089819A81892B41F48B819C81892B21F4DB
:102600008D819E81892B61F04091020250910302DD
:10261000609104027091050288E190E00E94C30B72
:1026200080910802909109028130910519F002977A
:10263000B1F02BC08091180290911902019749F4D2
:102640004091FA015091FB016091FC017091FD01F4
:1026500003C040E050E0BA0186E190E014C08091F0
:10266000180290911902019749F440910202509189
:102670000302609104027091050203C040E050E043
:10268000BA0188E190E00E94C30B809116029091FC
:10269000170218161906E4F4809116029091170299
:1026A000409116025091170250E060E070E0BA01CC
:1026B00055274427582B88E090E00E94C30B809157
:1026C0001602909117020C979093170280931602AE
:1026D000809113029091140218161906A4F44091E7
:1026E00013025091140250E060E070E088E090E046
:1026F0000E94C30B80911302909114020C97909347
:102700001402809313028091100290911102181606
:102710001906BCF4409110025091110250E060E0A3
:1027200070E0BA015527442788E090E00E94C30B6F
:1027300080911002909111020C9790931102809356
:102740001002802F0F5F20916903021791F1A09072
:102750006A03B0906B032150A9F08F3F49F430E039
:1027600040E050E0C301B2010E941515B9010CC050
:10277000802F90E0982F88270197622F70E00E94A9
:10278000CB1402C060E070E0F50140916603509107
:102790006703CF018A199B098417950740F440818C
:1027A000469FC001479F900D11249193EECF009357
:1027B00069030E94030B6AE070E080E090E00E94F1
:1027C000F0080E949D069CCA40E050E060E870E07E
:1027D00088E090E00E94C30B0E94030B64E670E067
:1027E00080E090E00E94F00864E670E080E090E015
:1027F000E6CF00E010E08FE090E0A6CD80916A0384
:1028000090916B03009711F00E94721780916803FA
:1028100087FD03C060E00C948F0808951092BC02FD
:102820001092BB0288EE93E0A0E0B0E08093BD027E
:102830009093BE02A093BF02B093C00223E131E0A7
:102840003093BA022093B90225EC30E03093C602EF
:102850002093C50224EC30E03093C8022093C702D5
:1028600020EC30E03093CA022093C90221EC30E022
:102870003093CC022093CB0222EC30E03093CE0296
:102880002093CD0226EC30E03093D0022093CF028B
:102890001092D2021092D3021092D4021092D5025A
:1028A000109259031092580380935A0390935B033C
:1028B000A0935C03B0935D0383E291E09093570390
:1028C0008093560310926303109269031092700371
:1028D00010927103109272031092730381E080933F
:1028E0006F0380936C0310926D0392E090936E03DC
:1028F000809362038BE490E0909367038093660378
:102900000E94DD1690936B0380936A03009761F039
:102910002BE4FC0111922A95E9F789E190E090936C
:1029200065038093640308C01092670310926603E6
:10293000109265031092640384E080936803809191
:102940006303882341F061E084E00E948F0860E027
:1029500084E00E944308E0E6F1E0E491F0E0EE0F4D
:10296000FF1FEE5AFE4F85919491909375038093CB
:102970007403E2E4F1E0E491E09376030895991B97
:1029800079E004C0991F961708F0961B881F7A9566
:10299000C9F780950895AA1BBB1B51E107C0AA1F68
:1029A000BB1FA617B70710F0A61BB70B881F991FF0
:1029B0005A95A9F780959095BC01CD01089597FB94
:1029C000072E16F4009407D077FD09D00E94CB148F
:1029D00007FC05D03EF4909581959F4F0895709522
:1029E00061957F4F0895A1E21A2EAA1BBB1BFD0122
:1029F0000DC0AA1FBB1FEE1FFF1FA217B307E407DE
:102A0000F50720F0A21BB30BE40BF50B661F771F35
:102A1000881F991F1A9469F7609570958095909515
:102A20009B01AC01BD01CF010895052E97FB1EF45B
:102A300000940E942C1557FD07D00E94F31407FC48
:102A400003D04EF40C942C1550954095309521955B
:102A50003F4F4F4F5F4F08959095809570956195CA
:102A60007F4F8F4F9F4F0895EE0FFF1F0590F491FA
:102A7000E02D09940E944E150C9436160E942F16D4
:102A800058F00E94281640F029F45F3F29F00C947A
:102A90001F1651110C946A160C9425160E944716A5
:102AA00068F39923B1F3552391F3951B550BBB277D
:102AB000AA2762177307840738F09F5F5F4F220FC2
:102AC000331F441FAA1FA9F335D00E2E3AF0E0E8B9
:102AD00032D091505040E695001CCAF72BD0FE2F03
:102AE00029D0660F771F881FBB1F26173707480797
:102AF000AB07B0E809F0BB0B802DBF01FF2793584F
:102B00005F4F3AF09E3F510578F00C941F160C94DD
:102B10006A165F3FE4F3983ED4F386957795679500
:102B2000B795F7959F5FC9F7880F911D9695879583
:102B300097F90895E1E0660F771F881FBB1F6217A2
:102B400073078407BA0720F0621B730B840BBA0B60
:102B5000EE1F88F7E09508950E94B3156894B111AF
:102B60000C946A1608950E944F1688F09F5798F0AB
:102B7000B92F9927B751B0F0E1F0660F771F881F82
:102B8000991F1AF0BA95C9F714C0B13091F00E949C
:102B90006916B1E008950C946916672F782F88277D
:102BA000B85F39F0B93FCCF3869577956795B395C3
:102BB000D9F73EF490958095709561957F4F8F4F32
:102BC0009F4F0895E89409C097FB3EF49095809537
:102BD000709561957F4F8F4F9F4F9923A9F0F92FE3
:102BE00096E9BB279395F695879577956795B79561
:102BF000F111F8CFFAF4BB0F11F460FF1BC06F5F47
:102C00007F4F8F4F9F4F16C0882311F096E911C058
:102C1000772321F09EE8872F762F05C0662371F079
:102C200096E8862F70E060E02AF09A95660F771F8D
:102C3000881FDAF7880F9695879597F9089597F981
:102C40009F6780E870E060E008959FEF80EC089552
:102C500000240A941616170618060906089500247B
:102C60000A9412161306140605060895092E0394F5
:102C7000000C11F4882352F0BB0F40F4BF2B11F469
:102C800060FF04C06F5F7F4F8F4F9F4F089557FDC8
:102C90009058440F551F59F05F3F71F04795880FCA
:102CA00097FB991F61F09F3F79F087950895121661
:102CB00013061406551FF2CF4695F1DF08C016160D
:102CC00017061806991FF1CF8695710561050894BE
:102CD0000895E894BB2766277727CB0197F90895D5
:102CE0000E9483160C9436160E94281638F00E9413
:102CF0002F1620F0952311F00C941F160C94251616
:102D000011240C946A160E94471670F3959FC1F324
:102D1000950F50E0551F629FF001729FBB27F00D89
:102D2000B11D639FAA27F00DB11DAA1F649F6627DE
:102D3000B00DA11D661F829F2227B00DA11D621F2D
:102D4000739FB00DA11D621F839FA00D611D221FE7
:102D5000749F3327A00D611D231F849F600D211DCB
:102D6000822F762F6A2F11249F5750409AF0F1F04E
:102D700088234AF0EE0FFF1FBB1F661F771F881FB7
:102D800091505040A9F79E3F510580F00C941F16BA
:102D90000C946A165F3FE4F3983ED4F386957795DA
:102DA0006795B795F795E7959F5FC1F7FE2B880F5D
:102DB000911D9695879597F90895CF93DF9382306B
:102DC000910510F482E090E0E0917903F0917A03AC
:102DD00020E030E0C0E0D0E0309711F14081518137
:102DE00048175907C0F04817590761F48281938149
:102DF000209719F09B838A832BC090937A0380934A
:102E0000790326C02115310519F04217530718F42C
:102E10009A01BE01DF01EF010280F381E02DDCCFDA
:102E20002115310509F1281B390B2430310590F4A7
:102E300012968D919C9113976115710521F0FB01FC
:102E40009383828304C090937A0380937903FD0176
:102E5000329644C0FD01E20FF31F819391932250FB
:102E600031092D933C933AC0209177033091780338
:102E7000232B41F420910B0130910C013093780306
:102E8000209377032091090130910A012115310522
:102E900041F42DB73EB740910D0150910E01241B16
:102EA000350BE0917703F0917803E217F307A0F474
:102EB0002E1B3F0B2817390778F0AC014E5F5F4F90
:102EC0002417350748F04E0F5F1F50937803409347
:102ED00077038193919302C0E0E0F0E0CF01DF91AE
:102EE000CF9108950F931F93CF93DF93009709F429
:102EF0008CC0FC01329713821282009179031091E9
:102F00007A030115110581F420813181820F931F0D
:102F100020917703309178032817390779F5F093DA
:102F20007803E093770371C0D80140E050E0AE171A
:102F3000BF0750F412962D913C911397AD012115C6
:102F4000310509F1D901F3CF9D01DA0133832283E1
:102F500060817181860F971F8217930769F4EC01D6
:102F600028813981260F371F2E5F3F4F3183208301
:102F70008A819B8193838283452B29F4F0937A0382
:102F8000E093790342C01396FC93EE931297ED0100
:102F9000499159919E01240F351FE217F30771F4EF
:102FA00080819181840F951F029611969C938E9338
:102FB0008281938113969C938E931297E0E0F0E0C8
:102FC000D80112968D919C911397009719F0F801F2
:102FD0008C01F6CF8D919C9198012E5F3F4F820F0F
:102FE000931F20917703309178032817390769F4EC
:102FF000309729F410927A031092790302C0138259
:1030000012821093780300937703DF91CF911F9181
:103010000F91089581E090E0F8940C942518F999A7
:10302000FECF92BD81BDF89A992780B50895262FCD
:10303000F999FECF1FBA92BD81BD20BD0FB6F8949D
:10304000FA9AF99A0FBE0196089510E0C9EBD0E004
:1030500004C0FE010E9434152196CA3BD107C9F76E
:04306000F894FFCF12
:10306400A706A706120101FF0C00007B03800000E5
:103074000000003406B005FD05DB05EF057B060006
:1030840000000036070607FE06EA06DB06DA062D10
:103094002D2D207468656D65206E756D202D2D00B5
:1030A4000D0A002053657454696D65203A20003A76
:1030B400002D2D2D207365742074696D65206D6F4E
:1030C4006465202D2D2D2D002D2D2D207468656D0A
:0C30D40065206D6F6465202D2D2D2D00F2
:107800000C94343C0C94513C0C94513C0C94513CE1
:107810000C94513C0C94513C0C94513C0C94513CB4
:107820000C94513C0C94513C0C94513C0C94513CA4
:107830000C94513C0C94513C0C94513C0C94513C94
:107840000C94513C0C94513C0C94513C0C94513C84
:107850000C94513C0C94513C0C94513C0C94513C74
:107860000C94513C0C94513C11241FBECFEFD8E036
:10787000DEBFCDBF11E0A0E0B1E0ECE9FFE702C060
:1078800005900D92A230B107D9F712E0A2E0B1E065
:1078900001C01D92AD30B107E1F70E942D3D0C945F
:1078A000CC3F0C94003C982F959595959595959582
:1078B000905D8F708A307CF0282F295A8091C0000B
:1078C00085FFFCCF9093C6008091C00085FFFCCF60
:1078D0002093C6000895282F205DF0CF982F809127
:1078E000C00085FFFCCF9093C6000895EF92FF92F1
:1078F0000F931F93EE24FF2487018091C00087FD22
:1079000017C00894E11CF11C011D111D81E4E8164B
:1079100082E4F8068FE0080780E0180770F3E09132
:107920000401F091050109958091C00087FFE9CF1E
:107930008091C6001F910F91FF90EF9008950E94D3
:10794000763C982F8091C00085FFFCCF9093C600B5
:1079500091362CF490330CF09053892F089597555D
:10796000892F08951F930E949F3C182F0E949F3CCF
:107970001295107F810F1F9108951F93182F882350
:1079800021F00E94763C1150E1F71F9108951F935A
:10799000182F0E94763C803249F0809103018F5F5E
:1079A000809303018530C1F01F9108958091C0003C
:1079B00085FFFCCF84E18093C6008091C00085FFE5
:1079C000FCCF1093C6008091C00085FFFCCF80E102
:1079D0008093C6001F910895E0910401F091050184
:1079E00009951F9108950E94763C803241F0809164
:1079F00003018F5F80930301853081F008958091AA
:107A0000C00085FFFCCF84E18093C6008091C00058
:107A100085FFFCCF80E18093C6000895E0910401CA
:107A2000F09105010995089540E951E08823A1F0FE
:107A30002D9A28EE33E0FA013197F1F721503040CA
:107A4000D1F72D9828EE33E0FA013197F1F7215064
:107A50003040D1F7815061F708953F924F925F9285
:107A60006F927F928F929F92AF92BF92CF92DF924E
:107A7000EF92FF920F931F93CF93DF93000080E16B
:107A80008093C4001092C50088E18093C10086E015
:107A90008093C2005098589A259A81E00E94143D24
:107AA00024E1F22E9EE1E92E85E9D82E0FE0C02ECA
:107AB00010E1B12EAA24A394B1E49B2EA6E58A2E50
:107AC000F2E57F2EE0E26E2E79E4572E63E5462E36
:107AD00050E5352E0E94763C8033B1F18133B9F107
:107AE000803409F46FC0813409F476C0823409F41B
:107AF00085C0853409F488C0803531F1823521F1A3
:107B0000813511F1853509F485C0863509F48DC0BC
:107B1000843609F496C0843709F403C1853709F423
:107B200072C1863709F466C0809103018F5F80932C
:107B30000301853079F6E0910401F0910501099582
:107B40000E94763C803351F60E94F33CC3CF0E94E2
:107B5000763C803249F78091C00085FFFCCFF092DF
:107B6000C6008091C00085FFFCCF9092C600809136
:107B7000C00085FFFCCF8092C6008091C00085FFC9
:107B8000FCCF7092C6008091C00085FFFCCF609250
:107B9000C6008091C00085FFFCCF5092C600809146
:107BA000C00085FFFCCF4092C6008091C00085FFD9
:107BB000FCCF3092C6008091C00085FFFCCFB09210
:107BC000C60088CF0E94763C863808F4BDCF0E945C
:107BD000763C0E94F33C7ECF0E94763C803809F4CC
:107BE0009CC0813809F40BC1823809F43CC1883942
:107BF00009F48FC080E00E94C73C6CCF84E10E94F2
:107C0000BD3C0E94F33C66CF85E00E94BD3C0E94D3
:107C1000F33C60CF0E94763C809306010E94763C44
:107C2000809307010E94F33C55CF0E94763C80333D
:107C300009F41DC183E00E94BD3C80E00E94C73C66
:107C400049CF0E94763C809309020E94763C809343
:107C5000080280910C028E7F80930C020E94763C79
:107C6000853409F415C18091080290910902892B8D
:107C700089F000E010E00E94763CF801E85FFE4FDA
:107C800080830F5F1F4F80910802909109020817AF
:107C9000190788F30E94763C803209F045CF809125
:107CA0000C0280FF01C16091060170910701660F0F
:107CB000771F7093070160930601A0910802B091AD
:107CC00009021097C9F0E8E0F1E09B01AD014E0F09
:107CD0005F1FF999FECF32BD21BD819180BDFA9A17
:107CE000F99A2F5F3F4FE417F50799F76A0F7B1F4B
:107CF00070930701609306018091C00085FFFCCF5F
:107D0000F092C6008091C00085FFFCCFB092C60003
:107D1000E1CE83E00E94C73CDDCE82E00E94C73CFA
:107D2000D9CE0E94763C809309020E94763C8093D3
:107D300008028091060190910701880F991F909386
:107D40000701809306010E94763C853409F4A6C0A1
:107D500080910C028E7F80930C020E94763C8032D0
:107D600009F0B8CE8091C00085FFFCCFF092C6002C
:107D7000609108027091090261157105B9F140E046
:107D800050E080910C02A82FA170B82FB27011C0E2
:107D9000BB2309F45CC0E0910601F0910701319624
:107DA000F0930701E09306014F5F5F4F46175707B7
:107DB000E8F4AA2369F3F999FECF209106013091E6
:107DC000070132BD21BDF89A90B58091C00085FFB2
:107DD000FCCF9093C6002F5F3F4F30930701209355
:107DE00006014F5F5F4F4617570718F38091C00099
:107DF00085FDE5CE8091C00085FFF8CFE0CE81E023
:107E00000E94C73C67CE0E94763C803209F08CCE3F
:107E10008091C00085FFFCCFF092C6008091C00029
:107E200085FFFCCFE092C6008091C00085FFFCCFAB
:107E3000D092C6008091C00085FFFCCFC092C600E2
:107E40008091C00085FFFCCFB092C60043CEE09188
:107E50000601F091070194918091C00085FFFCCF4D
:107E60009093C6009CCF80E10E94C73C33CE0E9415
:107E7000763C0E94763C182F0E94763C112309F430
:107E800083C0113009F484C08FE00E94C73C22CE29
:107E900080910C02816080930C02E5CE80910C02EF
:107EA000816080930C0259CF809107018823880F4D
:107EB000880B8A2180930B02809106019091070123
:107EC000880F991F90930701809306018091080203
:107ED00080FF09C080910802909109020196909359
:107EE000090280930802F894F999FECF1127E091D6
:107EF0000601F0910701C8E0D1E08091080290915D
:107F00000902103091F40091570001700130D9F34B
:107F100003E000935700E89500915700017001308D
:107F2000D9F301E100935700E89509901990009169
:107F3000570001700130D9F301E000935700E89534
:107F40001395103498F011270091570001700130FB
:107F5000D9F305E000935700E895009157000170B0
:107F60000130D9F301E100935700E895329602976A
:107F700009F0C7CF103011F00296E5CF112480919F
:107F8000C00085FFB9CEBCCE8EE10E94C73CA2CD19
:0C7F900085E90E94C73C9ECDF894FFCF0D
:027F9C00800063
:040000030000780081
:00000001FF
