:100000000215FEC0E0C083C0829000ACE070059095
:0E00100000AA04F0D082D083D0E032020003B8
:100023000218FF90008E1211189000ADE0121121FA
:1000330000610100940200D103011804016005016D
:10004300AF0601FF07024E08029D0903BD0A04EC37
:100053000B052A0C056B0D05BA0E00000605E4908E
:100063000091F012131F50051208A180F612132CF1
:1000730012140074CD12065912140074CD12067BAB
:1000830012140074CD12066A121400A374CD020672
:100093003EE4900091F012131F500D12132C121412
:1000A30000743212090480EE12132C1213E6F0FFCF
:1000B3001208431213E6F07F031208BF74FFF0E443
:1000C3001208091213BD74FFF0E4A302063EE49084
:1000D3000091F012131F501112132C74FFF0A3742C
:1000E30063F0744712090480EA12132C74FFF0A31F
:1000F30074A0F0747A12065974FFF0744512064521
:1001030074FFF0A3748C1206C174FFF0A374A5F0FE
:10011300E4A302063EE4900091F012131F500A126A
:10012300132C74AD12092080F112132C744EF0A31A
:100133007411F0741412068C7450F0A3741BF074D1
:100143001D12067B7464F0A37448F0745C12066A93
:100153007483F0A37467F0A3747B02063EE49000FB
:1001630091F012131F501112132C74E3F0A3747245
:10017300F0742212092F80EA12132C7407F0A3746F
:1001830099F0749B12068C7466F0A374B9F074BF73
:100193001206D474EEF0A374AAF0747B12069D7455
:1001A300EEF0A374AAF0A3747B02063E900092E4DF
:1001B300F0A37410F0E4900091F0900091E0FF7EC2
:1001C300001213244003020644EF940C74809480BD
:1001D3005007A3E475F005800890009274FF75F052
:1001E300FB1210B1900091E0FF90008E12110F905E
:1001F3000092A3E090009812092080BEE490009141
:10020300F012131F501112132C74ADF0A374E5F008
:1002130074A112092F80EA12132C748EF0A374E4D4
:10022300F074AF1206E5745CF0A374DBF0749512FE
:1002330006D47437F0A37496F0748312069D740584
:10024300F0A37486F0A3746B02063EE4900091F071
:1002530012131F501112132C74FFF0A374B6F07411
:10026300C112093B80EA12132C74FFF0A37469F0E6
:1002730074B41206E574FFF0A37414F074931207B8
:100283003E74C7F0A37415F074851206F674C7F0B4
:10029300A37415F0A3748502063E12132C74ADF0FB
:1002A300A374FFF0742F12071A747FF0A374FFF086
:1002B300E4120760747CF0A374FCF0E4120827E4F2
:1002C300900098F074FF120645743212142A120734
:1002D300717498F0A374FBF074981207827490F011
:1002E300A374EEF074901208351213BD74FAF0740F
:1002F3009A12085D1213BD74FFF0A3747FF07F0898
:100303001208BF74FFF0747F120793743CF0A37458
:10031300B3F074711207A4742EF0A3748BF07457A6
:100323001207B57422F0A3748BF0742212087812AA
:1003330013BD7480F0E4A3F07F0D1208CF7464F052
:10034300E4A3F07F0E1208431214281207C61214F6
:10035300281207D7746BF0A3748EF074231207E886
:100363007480F0A3F0E4A31208177455F0A3746B20
:10037300F0A3742FF07F131208507466F0A374CDAA
:10038300F0A374AAF07F14120850748FF0A374BC06
:10039300F0A3748FF07F1512086B7420F0A374B26E
:1003A300F074AA1208861213BD748BF0A3F07F17A2
:1003B3001208CF7480F0A302063E1213B774FFF045
:1003C300A3F0E4FF1208F474FFF012076074E0F086
:1003D300A374FFF012082790009874AFF074EE1224
:1003E30006AE747FF0A374FFF074DA1207717440E1
:1003F300F0A374E0F074D01207827448F0A374D1B0
:10040300F074CC1208351213BD74CEF074D11208F7
:100413005D900098745FF0A3749EF0A374A0F07FC6
:100423000812086B7446F0A37482F074B412079335
:1004330074B0F0A374C4F074DE1207A474B0F0A314
:1004430074E0F074E61207B574ADF0A374D8F074D9
:10045300E61208789000987487F0A374CEF0A37422
:10046300EBF07F0D1208947487F0A374CEF0A3749D
:10047300FAF07F0E1208F474BFF074FF1207C6740B
:100483001EF0A37490F074FF1207D77464F0A37482
:1004930095F074ED1207E8747BF0A37468F0A3740D
:1004A300EE1208177441F0A37469F0A374E1F07FAE
:1004B30013120910F0A374FFF07F14120910F0A3B4
:1004C30074CDF07F15121B341213B7F0748B12081E
:1004D300861213BDF0A37480F07F17120894741969
:1004E300F0A3F0A3747002063EE4900091F012139F
:1004F3001F500F12132C74FFF0A3F0746012093B0A
:1005030080EC12132C74FFF074D712072B74FFF0D6
:10051300A374D712070774FFF0A31206C174FFF088
:10052300A3F0E4A302063EE4900091F012131F50DF
:10053300051208A180F612132C7430F0A374FFF097
:10054300743012071A74FFF0A3F0743012073E746C
:10055300BFF0A37430F074BF1206F674BFF0A37437
:1005630030F0A374BF02063EE4900091F012131F13
:10057300501912132C74B4F0A374E1F0A374B4F003
:10058300121B34900091E004F080E212132C74B239
:10059300F0A37422F0A31207F974B2F074221206C6
:1005A300AE748BF0E4A3F0120809900098748BF0FA
:1005B300E4A3F0A302063EE4900091F012131F504F
:1005C3000812132C1208DF80F312132C74D7F0A334
:1005D3007437F0A374D71207F974FFF0A3F0A37470
:1005E300D7F07F03121B3412132C7437F0A374FF5C
:1005F300F074D712074F74FFF0A37437F0A374D7C6
:100603008039E4900091F012131F500812132C123A
:1006130008DF80F390008E12110FE4900098F074BD
:10062300FF12072B74FFF0A312070774FFF0E4A374
:10063300F074FF12074F1213E674FFF07F18121BBA
:100643003422A3F0E4A3F07F03121B3490008E1234
:10065300110F90009822A3F0E4FF121B3490008E38
:1006630012110F90009822A3F07F16121B349000F2
:100673008E12110F90009822A3F07F03121B349067
:10068300008E12110F90009822A3F0E4FF121B3486
:1006930090008E12110F90009822A3F07F16121B68
:1006A3003490008E12110F90009822A3F0A3F07FD4
:1006B30003121B3490008E12110F90009822F0E465
:1006C300A3F07F16121B3490008E12110F90009826
:1006D30022A3F07F03121B3490008E12110F90009F
:1006E3009822A3F0E4FF121B3490008E12110F9096
:1006F300009822A3F07F16121B3490008E12110F64
:1007030090009822F0E4A3F07F03121B3490008E34
:1007130012110F90009822A3F0E4FF121B349000F3
:100723008E12110F90009822A3F0E4A3F0FF121B86
:100733003490008E12110F90009822A3F07F0312C1
:100743001B3490008E12110F90009822A3F07F1695
:10075300121B3490008E12110F90009822A3F07F89
:1007630001121B3490008E12110F90009822A3F0F7
:100773007F04121B3490008E12110F90009822A355
:10078300F07F05121B3490008E12110F90009822F7
:10079300A3F07F09121B3490008E12110F90009862
:1007A30022A3F07F0A121B3490008E12110F9000C7
:1007B3009822A3F07F0B121B3490008E12110F901E
:1007C300009822A3F07F0F121B3490008E12110F9A
:1007D30090009822A3F07F10121B3490008E121108
:1007E3000F90009822A3F07F11121B3490008E12F9
:1007F300110F90009822F0E4FF121B3490008E1228
:10080300110F90009822A3F07F16121B3490008ED4
:1008130012110F22F07F12121B3490008E12110F4F
:1008230090009822A3F07F02121B3490008E1211C5
:100833000F22A3F07F06121B3490008E12110F2299
:10084300121B3490008E12110F90009822121B3449
:1008530090008E12110F90009822A3F07F07121BB5
:100863003490008E12110F22121B3490008E12113D
:100873000F90009822A3F07F0C121B3490008E126D
:10088300110F22A3F07F16121B3490008E12110F4A
:1008930022121B3490008E12110F900098229000A8
:1008A3008E12110F90009874FFF0A374E1F0A374FB
:1008B30073F0121B34900091E004F022121B349069
:1008C300008E12110FE4900098F0A322121B3490B3
:1008D300008E12110FE4900098F0A32274FFF0A38E
:1008E30074E1F0A37473F0121B34900091E004F0F0
:1008F30022121B3490008E12110FE4900098F0A383
:1009030022A3F0121B34900091E004F022121B3456
:1009130090008E12110FE4900098F0A322F0A3F040
:10092300A3F0121B34900091E004F022A3F0121BF9
:1009330034900091E004F022A3F0121B3490009154
:10094300E004F022786B7C007D017BFF7A1E7990B6
:100953007E007F19120F8890008474FFF0E49000EA
:1009630086F0A3F0A3F0A3F090008CF0A3F0900026
:10097300A9F0121D50121CAC7FE87EFD121D8CE401
:10098300F598121BCE121E5DD2BF7FE87EFD121DAD
:100993008CD290D291D285D286A283E4339000A5E3
:1009A300F0A284E433A3F0E49000ADF01213C790F7
:1009B3000091121415121457120E2412138490006E
:1009C300927409F07D071219D47F887E13121D8C4F
:1009D300900092E4F0A3742012139C120EA19000D5
:1009E30069E0FFD3940E748094804007E49000ADD7
:1009F300F080059000ADEFF090006AE0FFC394052E
:100A030074809480900084500574FFF08002EFF0AE
:100A1300120DBB9000A8E07003020AD9E4F0120D96
:100A2300BB9000A9E06401705C900092F0A3742075
:100A330012139C120EA1E490008DF090008DE0C380
:100A4300942074809480501BE0FF244BF582E4349F
:100A530000F583E0FE74452FF8A60690008DE004B0
:100A6300F080D89000ADE0F563900084E0F5647BFE
:100A7300007A0079457D207C00121DC47F557EAA33
:100A83001218168051E490008DF090008DE0FFC3A2
:100A93009420748094805014744B2FF582E43400B6
:100AA300F583E4F090008DE004F080DE90008B127B
:100AB30013A4AFF0EF2E90004CF090008A1213A411
:100AC300AFF0EF2E90004DF0121384900092741348
:100AD300F0E4FD1219D49000AEE0FF7003020BD1D5
:100AE300900086E07002A3E07035900088E0702FDC
:100AF300EF1213C5701A900098F0A3F0900084E0F1
:100B030075F0FFA4E5F0FF3395E090009AEF8006BF
:100B130090008412133F120EB1900073120E769060
:100B23000086E07002A3E0700F900088E06402701A
:100B330007900073F0120E62900089E0FF700302C9
:100B43000BD19000AEE064017022EF3395E0FEBE5E
:100B5300FF0DBFFF0A9000ADE0604114F0803D90AF
:100B630000ADE0640E6035E004F08030900089123F
:100B73001435BEFF16BFFF13900084E0C3941474B2
:100B83008094804017E024F6F08011900084E0D335
:100B930094F0748094805004E0240AF01213C71276
:100BA3000026900073E060199000AE1213C4900009
:100BB300987008F0A3F0A374FF80031213E6120EDB
:100BC300B1900084E0FF120E07E4900089F09000DA
:100BD300ACE07003020D51900086E07002A3E07058
:100BE3003B900088E0703590008C04F09000731205
:100BF3001336F07F08121B34121421700C900081FD
:100C030004121336F07F16800D9000837401F0A355
:100C130012133AF07F18121B34120E62900086E012
:100C23007002A3E07025900088E06402701D9000BC
:100C33008CF012141D7006900081F08005E4900082
:100C430083F01213C71214121215339000A7E06039
:100C53000EE4F01213C7120026900081120E769054
:100C63000089E0FF7003020D519000ACE0FD7C00B1
:100C73006401702590008A121432C3EF9418EE6455
:100C83008094804004E4F08057EFF47002EEF47037
:100C93004F90008A7417F08047ED64024C704190C6
:100CA3000089E075F005A4FF90008B121432C3EFA6
:100CB300943CEE648094804002E4F090008BE03337
:100CC30095E0C36480948050037437F090008BE008
:100CD300FF75F005120FAE90008BF075F005A4F0D0
:100CE3001213C7120026120E8C90008CE060349011
:100CF30000737401F0FB7A00790074FF12134BF058
:100D03007F08121B349000AC1213C4900098700833
:100D13001213E6F07F1680061213E6F07F18121BFB
:100D2300348011E412141D7006900081F08005E4F4
:100D3300900083F0900084E0FF90008AE0FD12179A
:100D430022900085EFF0120E07E4900089F09000E6
:100D5300AAE06027E4F0A286B39286120E249000E4
:100D63005A1213999000927401F07D0F1219D41244
:100D73000E8C1213C7121412121533900086E475E9
:100D8300F0011210B1C3900087E09420900086E038
:100D9300944E400D900088E004F0E4900086F0A3A8
:100DA300F0900088E0C312137D4002E4F0121C426D
:100DB300900089EFF0020A167B017A00796B9000AC
:100DC3008AE0FDA3E0900092F01211477B017A00C4
:100DD3007900120026900084E0FF90008AE0FD1263
:100DE3001722900085EFF07B017A007900121A89AF
:100DF3007B017A00790090009A1211187A00796BBE
:100E0300121533227B017A007900121A897B017A49
:100E130000790090009A1211187A00796B12153339
:100E2300227B017A00794B9000927413F0E4FD1257
:100E3300179C90004CE0FFC4540F75F00AA4FEEF1A
:100E4300540F2E90008BF090004DE0FF5430C454AB
:100E53000F75F00AA4FEEF540F2E90008AF0227B48
:100E6300017A00790090009A1211187A00796B12B6
:100E73001533227401F0FB7A00790090009A121165
:100E8300187A00796B121533227B017A00796B9003
:100E9300008AE0FDA3E0900092F012114722A31212
:100EA30011187FE07E1F7D007C0012196D22F07FF8
:100EB30008121B3422E709F608DFFA8046E709F235
:100EC30008DFFA803E88828C83E709F0A3DFFA808B
:100ED30032E309F608DFFA8078E309F208DFFA80E3
:100EE3007088828C83E309F0A3DFFA806489828AA5
:100EF30083E0A3F608DFFA805889828A83E0A3F2AD
:100F030008DFFA804C80D280FA80C680D480698062
:100F1300F28033801080A680EA809A80A880DA80ED
:100F2300E280CA803389828A83ECFAE493A3C8C53A
:100F330082C8CCC583CCF0A3C8C582C8CCC583CC3A
:100F4300DFE9DEE7800D89828A83E493A3F608DF75
:100F5300F9ECFAA9F0EDFB2289828A83ECFAE0A38B
:100F6300C8C582C8CCC583CCF0A3C8C582C8CCC5CC
:100F730083CCDFEADEE880DB89828A83E493A3F211
:100F830008DFF980CC88F0EF60010E4E60C388F073
:100F9300ED2402B4040050B9F582EB2402B404003A
:100FA30050AF2323458223900F0873C2D530F70730
:100FB300B2D563F0FF05F030E70CB2D5F4048463D7
:100FC300F0FF05F080018430D502F40422BB010652
:100FD30089828A83E0225002E722BBFE02E3228950
:100FE300828A83E49322BB010CE58229F582E5839F
:100FF3003AF583E0225006E92582F8E622BBFE0695
:10100300E92582F8E222E58229F582E5833AF58330
:10101300E49322BB010689828A83F0225002F722DD
:10102300BBFE01F322F8BB010DE58229F582E583BE
:101033003AF583E8F0225006E92582C8F622BBFE82
:1010430005E92582C8F222EF8DF0A4A8F0CF8CF039
:10105300A428CE8DF0A42EFE22BC000BBE0029EFE7
:101063008DF084FFADF022E4CCF875F008EF2FFF8C
:10107300EE33FEEC33FCEE9DEC984005FCEE9DFE5A
:101083000FD5F0E9E4CEFD22EDF8F5F0EE8420D2A1
:101093001CFEADF075F008EF2FFFED33FD40079810
:1010A3005006D5F0F222C398FD0FD5F0EA22C5F021
:1010B300F8A3E028F0C5F0F8E582158270021583E5
:1010C300E038F022EB9FF5F0EA9E42F0E99D42F012
:1010D300E89C45F022E8600FECC313FCED13FDEE32
:1010E30013FEEF13FFD8F122E0FCA3E0FDA3E0FE23
:1010F300A3E0FF22E0F8A3E0F9A3E0FAA3E0FB22D8
:10110300ECF0A3EDF0A3EEF0A3EFF022E0FBA3E0FD
:10111300FAA3E0F922EBF0A3EAF0A3E9F022D083EB
:10112300D082F8E4937012740193700DA3A393F823
:10113300740193F5828883E4737402936860EFA368
:10114300A3A380DF90008E121118E4FFEF12132483
:10115300500F1213548F82758300E41210280F80EE
:10116300EBEDFF3395E0FED3EF9406EE64809480BD
:101173004014EF9413EE64809480500A1213547455
:1011830001121016800B12135490000374011210F5
:10119300281213549000167401121028900018742A
:1011A30001121028AF05EF75F00C120FAEAFF0EF80
:1011B30012112111DE0011EB0111F00211F80312DB
:1011C3000004120805121806122307123308123EF0
:1011D30009124E0A12560B000012691213549000A2
:1011E30010740112102880081213548071121354C2
:1011F300900011806C12135490000F8064121354EA
:10120300900014805C12135490000574011210288E
:10121300900006804C12135412144F900006804124
:1012230012135490000A740112102890000B80319D
:1012330012135412144F900002802612135490007C
:1012430007740112102890000C801612135490009A
:1012530010800E1213549000107401121028900085
:10126300157401121028900092E0FF1213B11213AB
:10127300AFAFF0EE1460261460321460471460615F
:101283001460732405600302131E12137B90008EF7
:101293004002802612110F900018E4807B12135431
:1012A30012137340769000137401806C12135490E0
:1012B300000D12136E406490008E12110F900013F4
:1012C3007401805412135490001274011210289068
:1012D30000171213764044121354900013740180C4
:1012E3003712135490000412136E402F12135490AC
:1012F3000013740180221213549000097401121018
:101303002890000E7401121028D3EF12137D400BA6
:10131300121354900013740112102822900091E0CC
:10132300FFC39419748094802290008E12110F9041
:10133300009822F0900084FB7A007900E075F0FFBA
:10134300A4E5F0FF3395E0EF900098F0E4A3F0A359
:101353002290008E02110FEF90009175F003A4FF0D
:1013630012110FE92FF9EA35F0FA2274011210284D
:1013730090000E7401121028EFD3940474809480AB
:1013830022E4900052F0A37480F0A3F0A3F0900045
:1013930059E04405F0A3E054FCF07B017A00794B5B
:1013A30022E0FF75F00A120FAEC454F0FEEF75F0A1
:1013B3000A020FAE90008E12110FE4900098F0A372
:1013C30022E064017B017A0079002290009DE0C352
:1013D30094037480948022900096E07E0029F9EEB5
:1013E3003AFA2274FFF0E4A3F0A3229000911211C1
:1013F3000F90009A12111890008E02110F74FFF0D3
:10140300A374E1F022121016900095E004F02290EC
:10141300009A1211187A00796B22900073F09000F1
:10142300ACE0640122749AF0A374CDF0743222E02C
:101433002FF0E0FF3395E0FE22EDFB3395E0FA2237
:1014430090009EE0C394FF74809480227401900006
:101453000102102890008E121118E4900094F0906D
:10146300009412132250151213FA8F82758300749D
:1014730001121028900094E004F080E3E4900096B9
:10148300F09000961213D15060E4900094F0900015
:1014930094E0C3947F74809480502DE4A3F0900073
:1014A300951213225013900094E025E0FD12135A75
:1014B3001213DAED12140880E51213EE1215337FBE
:1014C300037E0012152980C6E4900095F0900095E4
:1014D300121322500C12135A1213DAE41214088056
:1014E300EC900096E004F08098E4900094F0900073
:1014F30094E0121324502EE4A3F09000951213D11C
:101503005014900094E012135B9000951213DD7455
:101513004012140880E41213EE1215337F587E0232
:1015230012152980C922121D08900094E004F022AC
:10153300900097121118E490009FF090009F1213EF
:101543002240030215FB90009712110F8F827583BF
:1015530000120FE9606FE490009DF01213CE506308
:10156300A37407F01214435052A3E075F003A4FFD1
:1015730090009A12136390009D1213DD120FD0FD99
:101583007C0090009EE0FF7401A807088005C33328
:10159300CE33CED8F9FFEE5CFEEF5D4E600ED28700
:1015A300000000000000000000008002D28700005D
:1015B30000C28790009EE014F080A990009DE00493
:1015C300F080988027E490009DF01213CE501DA365
:1015D3007407F0121443500CD287000000C287E056
:1015E30014F080EF90009DE004F080DE121E8790DF
:1015F300009FE004F002153E021E8778FFE4F6D850
:10160300FD9000007F007E01E4F0A3DFFCDEFA75AD
:101613008165021653020947E493A3F8E493A340B8
:1016230003F68001F208DFF48029E493A3F854075A
:10163300240CC8C333C4540F4420C8834004F45655
:10164300800146F6DFE4800B01020408102040808D
:10165300901D2EE47E019360BCA3FF543F30E50947
:10166300541FFEE493A360010ECF54C025E060A88D
:1016730040B8E493A3FAE493A3F8E493A3C8C58220
:10168300C8CAC583CAF0A3C8C582C8CAC583CADF8E
:10169300E9DEE780BEE490009C121A31A3F0A3F0C8
:1016A30090009F121A397003EE64AA706090009341
:1016B300121A635058121C7775F49D75F18175F2F7
:1016C30002000000900093121A71900093121A7D89
:1016D3009000931210EB8FF590009912110F121DC9
:1016E300F5900097E0FFA3E0900097CFF0A3EFF011
:1016F300750AA175090BE58954807005121E4B808C
:10170300069000A17401F0121CDB121A4A9000A08B
:10171300E0F58990009FE0F5B89000A1E0FF221268
:10172300143C4B602FEB64014A7002802712143C77
:10173300C3EB9402EA648094804010EB9405EA645E
:101743008094805006EF75F014802B12143CEB64E8
:10175300054A7006EF75F03C801C12143CC3EB94F1
:1017630013EA648094804030EB9418EA6480948098
:101773005026EF75F03CA4FFAEF07C007D641210A0
:101783005C90008EEFF090008EE0FEC3940A7480AC
:101793009480AF0650027F0A2290008E1211189097
:1017A3000091EDF0121D6F7FD012180F900091E0A1
:1017B300FF12180F121D6F7FD1121B87121C09E431
:1017C300900093F0900092E0FFA3E0C39F503A1281
:1017D3001AE0900093E0FD900091E02DFDE433FCCE
:1017E30090008E12110F8D828C83EF1210289000BF
:1017F30092E014FFA3E06F6005121DA88003121E80
:101803000D900093E004F080BB021DDD121B8712D4
:101813001C0922E490008EF0A3F0A3F0FDEF6455C1
:101823007003EE64AA70619000B7E0FFA3E090003C
:101833008FCFF0A3EFF090008EE0121A5490009334
:101843001211037F557EAA12188C90008EE0FB12B2
:101853001A54FD90009312110390008FE0FFA3E050
:10186300900097CFF0A3EFF0EB75F020A4FF90006A
:10187300B412110FE92FF9EA35F0FA900099121119
:10188300187F557EAA12169822900097121A30A339
:10189300F0900099121A397003EE64AA704C90000C
:1018A30093121A635044E4F5F2F5F4F5F1121C7740
:1018B30075F49D75F202000000750A9175090B908D
:1018C3000093121A71900093121A7D9000931210D4
:1018D300EB8FF5E58954807005121E4B800690004E
:1018E3009B7401F0121CDB121A4A90009AE0F589EE
:1018F300900099E0F5B890009BE0FF22C0E0C08320
:10190300C082E5C930E02253C9FE9000ACE07019F3
:101913009000AEE06004640170089000AEE004F053
:1019230080079000AE121E7CF0E5C930E12D53C94B
:10193300FD9000AEE070249000ACE06004640170A0
:10194300129000ACE004F0E06402700F9000A70472
:10195300F080089000AC121E7C04F0E5C930E2036D
:1019630053C9FBD082D083D0E03290008E12110392
:10197300900097121A30900099F0A3F0900092E033
:10198300FEA3E0FF900099E0FAA3E0FBC39FEA9E69
:10199300503E90008E1210EBEB2FFFEA3EFE9000BC
:1019A30097E0FCA3E02FF582EC3EF583E493FF90F0
:1019B300009412110F900099E0FCA3E0F5828C8350
:1019C300EF121028900099E475F0011210B180AC69
:1019D3002290008E121118900091EDF0121D6F7F6E
:1019E300D0121B87121C09900091E0121A28E49070
:1019F3000093F0900092E0FFA3E0FEC39F5023EE1C
:101A0300FF900091E02FFFE433FE90008E12110F40
:101A13008F828E83120FE9121A28900093E004F04C
:101A230080D1021DDDFF121B87121C0922E4F0A3E3
:101A3300F0A3F0A3F022E5B8F053B87FA3E589F053
:101A430053897FEF64552275F70375F6FFE4F5F5C7
:101A53002275F020A424E0FFE5F0341FFEE4FC220D
:101A6300E47FFF7E1FFDFC1210F7C30210C71210A4
:101A7300EB78101210D8E48FF7221210EB780812CB
:101A830010D8E48FF62290008EEFF0A3121118E421
:101A9300900092F0900092E0121324503FE4A3F0E0
:101AA3009000931213D1502C900092E090008F126B
:101AB300135E9000931213DD120FD0FF90008EE09F
:101AC300FEEF8EF0A4E5F0FFEF121016900093E006
:101AD30004F080CC900092E004F080B8229000944F
:101AE3007408F0E4A3F053ABFD7F01FE8035900052
:101AF30094E0FF14F0EF60307F047E00121D8C90A1
:101B03000095E025E0F0D2907F037E00121D8C301B
:101B13009107900095E04401F07F027E00121D8C36
:101B2300121E32121D8C80C643AB02900095E0FF5B
:101B330022900094EFF0A3121118900098E0FD900A
:101B43000094E075F003A4FFA3121363ED12145184
:101B5300900099E0FF90009512110F900094E0FE21
:101B630075F003A4F58285F083EF12102890009A94
:101B7300E0FDEE75F003A429F9EA35F0FA900002CE
:101B8300ED021028900094EFF0A37408F0C2907F48
:101B9300057E00121D8C900095E0FF14F0EF602A83
:101BA300900094E054807004C2918002D2917F052A
:101BB3007E00121D8C121E24121D8C121E32121D49
:101BC3008C900094E025E0F080CC22E5B354CF4420
:101BD30010F5B3E5B754CF4410F5B7E5B454FC445E
:101BE30001F5B4E5B7543F4440F5B7E5B3543F447A
:101BF30040F5B3E5B554CF4410F5B5758C05758B39
:101C030029D2BCD2BB22900094740AF07F017E00DB
:101C1300121D8C53ABFD7F057E00121D8CD290905C
:101C23000094E0FF14F0EF60032091F37F057E0042
:101C3300121D8CC29043AB027F017E00021D8CE417
:101C4300FFA28333FEA284E433FD9000A5E0FCB53C
:101C53000605A3E06D6012EC700FEE6401700A904C
:101C630000A6E025E014F404FF9000A5EEF0AE0515
:101C7300A3EDF0229000B9E5B8F09000B0E5C0F014
:101C8300A3E5C8F0E4F5B8F5C0F5C8858D08F58D72
:101C93004308049010D874AAF09010DA7455F090A9
:101CA30010DD74A5F0121A4A22759BE0759C80E43E
:101CB300F59DF59EF580F5A375A420F5A5F5A6F58C
:101CC3008875AB03F5ACF5ADF5AEF590F5B4F5B3AA
:101CD300F5B6F5B575B7402275F2339010D8E4F038
:101CE3009010DAF09010DDF078307A14E4F608DA28
:101CF300FC85088D9000B9E0F5B89000B0E0F5C020
:101D0300A3E0F5C822AB07AA069000007C007D0A79
:101D1300AF03AE0212104AC3E5829FE5839E500AC9
:101D23007F047E00121D8CA380E2224100AE00419D
:101D330000AF004100A8004100AA004100AC0041EF
:101D430000A7004200BB00004100BA000075860CEA
:101D5300E4F58D758F5A75D8047FFAFE121D087548
:101D6300D94075D804E4F58F758D382243AB02D280
:101D730091D2907F027E00121D8C121E2B121D8C9D
:101D8300C2907F057E00021D8CE4FDFCC3ED9FEC39
:101D93009E5011000000000000000000000DBD0077
:101DA300010C80E82243AB027F017E00121D8C12DE
:101DB3001E2B121D8C121E24121D8C121E32021D8C
:101DC3008C9000B274CCF0A37433F0A3121118AF4B
:101DD300059000B7ECF0A3EFF02243AB02121E2BE9
:101DE300121D8C121E24121D8CD2917F057E0002BF
:101DF3001D8C9000A2121118901E3978307A12E4CB
:101E030093F6A308DAF90280302243AB02D2917F22
:101E1300057E00121D8C121E24121D8CC290C291CD
:101E230022D2907F057E0022C2917F057E0022C2CE
:101E3300907F017E002275F18978209010E0E7F011
:101E430009A3D8FAE4F5F122901E6D7830790FE4F6
:101E530093F6A308D9F902803022E49000B2F0A3EC
:101E6300F075F70375F6FFF5F522850AF18509F29A
:101E7300E5F330E7FBE4F5F122E4F09000A804F089
:101E83009000A922C2877F197E00021D8C000000EA
:101E9300000000000000000000000000000000003F
:061EA30000000000000039
:00000001FF
