:020000040800F2
:10000000D0A0002045010008EB110008EB1000080B
:10001000E9110008B90100085D16000800000000A1
:10002000000000000000000000000000C9130008EC
:10003000D50100080000000011130008CB130008D0
:100040005F0100085F0100085F0100085F01000810
:100050005F0100085F0100085F0100085F01000800
:100060005F0100085F0100085F0100085F010008F0
:100070005F0100085F0100085F0100085F010008E0
:100080005F0100085F0100085F0100085F010008D0
:100090005F0100085F0100085F0100085F010008C0
:1000A0005F0100085F0100085F0100085F010008B0
:1000B0005F0100085F0100085F0100085F010008A0
:1000C0005F0100085F0100085F0100085F01000890
:1000D0005F0100085F0100085F0100085F01000880
:1000E0005F0100085F0100085F0100085F01000870
:1000F0005F0100085F0100085F0100085F01000860
:100100005F0100085F0100085F0100085F0100084F
:100110005F0100085F0100085F0100085F0100083F
:100120005F0100085F0100085F0100085F0100082F
:10013000DFF80CD000F02EF800480047C118000886
:10014000D0A000200648804706480047FEE7FEE7AB
:10015000FEE7FEE7FEE7FEE7FEE7FEE7FEE7FEE777
:10016000411400083101000830B50B46014600205B
:100170002022012409E021FA02F59D4205D303FA69
:1001800002F5491B04FA02F52844151EA2F10102EA
:10019000F1DC30BD064C074D06E0E06840F001039D
:1001A00094E8070098471034AC42F6D3FFF7C4FF39
:1001B00084920008A4920008FEE7000001B54FF405
:1001C0007A7301226946024800F0FCFD08BD000078
:1001D0003400002070472DE9F04150274FF4C078DB
:1001E000102000F0C1F8002600250024332000F084
:1001F000D5F8641CE4B2042CF8D36D1CADB2BD423A
:10020000F3D3761CB6B24645EED3BDE8F04100F01C
:10021000EDB82DE9F05F83464FF050084FF4C07AF7
:10022000102000F0A1F80024002504FB08F90BEBD6
:10023000050119F80100C043C6B20021300601D5FE
:10024000002000E003207206491C0001120ECFB20C
:10025000110601D440F0030051060E0E00F09EF886
:100260007F1CF9B20829E9D36D1CADB24545DED338
:10027000641CA4B25445D7D3BDE8F05F00F0B6B813
:1002800010B5384C01220221204600F0F8F9C820B0
:1002900000F0EAF800220221204600F0F0F9C82020
:1002A00000F0E2F801220221204600F0E8F9C8201F
:1002B00000F0DAF8012000F057F8372000F06EF86F
:1002C000002000F06BF8002000F04EF8CF2000F086
:1002D00065F8082000F062F8062000F045F8C72015
:1002E00000F05CF8CC2000F059F8282000F056F817
:1002F000042000F039F800F085F8302000F034F8E0
:100300003C2000F04BF8412000F02EF8002000F0D7
:1003100045F8502000F028F8772000F03FF86020E2
:1003200000F022F8222000F039F8612000F01CF8DB
:10033000022000F033F8802000F030F8012000F0B7
:100340002DF8802000F02AF8822000F00DF81E2001
:1003500000F024F8E52000F007F8032000F01EF874
:10036000002010BD0008014070B50B4C054600226E
:100370000421204600F083F900221021204600F0DD
:100380007EF92846FFF71AFF2046BDE8704001229B
:10039000102100F074B900000008014070B50B4C4A
:1003A000054601220421204600F069F900221021AF
:1003B000204600F064F92846FFF700FF2046BDE81C
:1003C00070400122102100F05AB9000000080140DD
:1003D00010B50220FFF7C8FF00F014F80720FFF760
:1003E000C3FFBDE81040A520FFF7D8BF10B512200D
:1003F000FFF7BAFF642000F037F8BDE8104000F0C6
:1004000001B8000010B509A001F02AF90D4C02E076
:10041000642000F029F80821204600F02BF900287C
:10042000F6D0BDE8104008A001F01AB94465627525
:10043000673A20652D506170657220627573790D81
:100440000A0000000008014044656275673A2065B3
:100450002D506170657220627573792072656C65CC
:100460006173650D0A00000070B5044600F00CF9D8
:100470000546601C02D004480078044400F004F9EA
:10048000401BA042FAD370BD000000202DE9F84FB8
:10049000DFF8B8A100220AF1040B144601274FF03F
:1004A0000F090BF1040E00BF0B6807FA04F52B408F
:1004B000AB4274D1DFF898C14E68A6EB0C086645D4
:1004C0002BD00DDC032E34D005DC36B3012E19D031
:1004D000022E2FD11BE0112E16D0122E2AD119E098
:1004E000B8F5881F19D006DCB8F5803F15D0B8F5EF
:1004F000801F1FD111E0B8F5001F0ED0B8F5041F02
:1005000018D10AE0CA6815E0CA68121D12E0CA686C
:1005100008320FE0CA680C320CE08A682AB1012A5E
:100520004FF0080203D0456104E0042202E00561B7
:1005300000E00022FF2B01D8064601E000F104068E
:100540004FEA840501D9A5F12005D6F800C009FAC3
:1005500005F82CEA080C02FA05F54CEA050CC6F879
:1005600000C04D68ED006AD53A4DAE6946F001060F
:10057000AE61AD6924F0030605F001050095364D26
:1005800006EB050CDCF80850A6074FEA167809FAC6
:1005900008F6B543314EB04202D100261AE04EE0D3
:1005A0002F4EB04201D1012614E02E4EB04201D1AF
:1005B00002260FE02C4EB04201D103260AE02B4E5A
:1005C000B04201D1042605E0294EB04201D10526F2
:1005D00000E0062606FA08F62E43CCF808604D68BF
:1005E000DAF80060ED03554601D51E4300E09E4356
:1005F0002E604D68AD0305D5DBF800601E43CBF8D7
:10060000006004E0DBF800509D43CBF800504D68DB
:10061000DEF80060ED02754601D51E4300E09E4302
:100620002E604D68AD0205D5084D0C352E681E4371
:100630002E6004E0054E0C3635689D433560641C21
:10064000102CFFF431AFBDE8F88F0000000401402A
:10065000000011100010024000000140000801409D
:10066000000C01400010014000140140001801403E
:10067000001C01408068084000D0012070470AB18A
:10068000016170470904FBE701488068704700007A
:1006900000000020024881680278114481607047A0
:1006A00000000020074810B5016841F0100101600A
:1006B000032000F089F8002000F006F800F024F88C
:1006C000002010BD0020024070B50D4D04464FF4CF
:1006D0007A712878B1FBF0F00A490968B1FBF0F0B3
:1006E00000F031FC48B9102C07D200222146501EE0
:1006F00000F04AF800206C6070BD012070BD000061
:10070000000000200C0000201D4808B5816941F060
:1007100001018161806900F001000090032000F078
:1007200053F8002211466FF00B0000F02DF8002264
:1007300011466FF00A0000F027F8002211466FF012
:10074000090000F021F800221146501F00F01CF8AB
:1007500000221146101F00F017F800221146901ECB
:1007600000F012F800221146501E00F00DF8054866
:10077000416821F0E06141F00071416008BD000076
:100780000010024000000140F0B40E4B1B680C4604
:10079000C3F30223C3F10705042D00D90425191D55
:1007A000072901D2002300E0DB1E012606FA05F12D
:1007B000491E214099409E40761E16403143F0BCB0
:1007C00000F014BD0CED00E0064900F007020868D7
:1007D0004FF6FF03184040EA0220034A1043086026
:1007E000704700000CED00E00000FA052DE9F0472D
:1007F000DFF83C8105460E46D8F8000000F00700FF
:10080000B0420CD2D8F8001021F007013143C8F8EB
:100810000010D8F8000000F00700B04263D128783B
:10082000444C800705D56068A96820F0F0000843B3
:1008300060602878C00745D06868012816D0216814
:10084000022816D0890700294DDA616821F00301DA
:1008500001436160FFF718FF6968074641F288307D
:1008600001290FD00229814619D027E02168890388
:10087000E9E78901E7E700BFFFF706FFC11B49452C
:1008800001D918E081466068C0F381000128F3D1E6
:1008900018E000BFFFF7F8FEC11B49450BD86068A0
:1008A000C0F381000228F5D10CE000BFFFF7ECFE99
:1008B000C11B494502D90320BDE8F087606810F0EC
:1008C0000C0FF3D1D8F80010404601F00701B142F7
:1008D0000BD9016821F0070131430160006800F085
:1008E0000700B04201D00120E6E72878400705D58F
:1008F0006068E96820F4E0600843606028780007D9
:1009000006D56068296920F4605040EAC100606043
:1009100000F03CF86168084AC1F30311515CC8401B
:10092000064908600020FFF7CFFE0020C4E7000062
:1009300000200240001002406C9200080C000020D1
:1009400001480068704700000C0000200448054979
:1009500000684968044AC1F30221515CC8407047ED
:100960000C000020001002407C9200080448054959
:1009700000684968044AC1F3C221515CC84070470D
:100980000C000020001002407C92000812A185B0EB
:100990000FC98DE80F0014A0144A00680490516834
:1009A000134801F00C03042B10D0082B0ED1C1F317
:1009B0008343C9031DF803000AD5516804AAC1F393
:1009C0004041515C0A4A5043B0FBF1F005B070471A
:1009D00008494843FAE7000002030405060708092E
:1009E0000A0B0C0D0E0F1010010200000010024047
:1009F00000127A0000093D002DE9F84F0446007806
:100A0000B94DC00748D06868C0F38100012807D0FD
:100A10006868C0F38100022809D16868C00306D560
:100A20002868800338D5606800286FD034E060689B
:100A3000B0F5803F0BD010B1B0F5A02F11D02868D1
:100A400020F480302860286820F4802002E02868A4
:100A500040F480302860606888B1FFF715FE0646D4
:100A600009E0286840F480202860F0E7FFF70CFEDA
:100A7000801B642875D828688003F7D50CE0FFF741
:100A800003FE064605E000BFFFF7FEFD801B64285D
:100A9000F0D828688003F7D42078944E80074FF070
:100AA00001094FF000083BD5686810F00C0F07D023
:100AB0006868C0F38100022809D16868C00306D4C1
:100AC0002868800714D5206901281FD110E020690B
:100AD000B0B1C6F80090FFF7D7FD074605E000BFAC
:100AE000FFF7D2FDC01B0228C4D828688007F7D5BD
:100AF0002868616920F0F80040EAC10028600FE032
:100B0000C6F80080FFF7C0FD074606E0E9E000BF39
:100B1000FFF7BAFDC01B022823D828688007F7D446
:100B2000207800072CD57248A169D9B1C0F800908F
:100B3000FFF7AAFD074604E0FFF7A6FDC01B022849
:100B40000FD8686A8007F7D56A484FF4FA510068F1
:100B5000B0FBF1F0009000BF0098411E0091FAD266
:100B60000EE080E0C0F80080FFF78EFD074604E04D
:100B7000FFF78AFDC01B022875D8686A8007F7D482
:100B80002078400760D5E8690027C00008D4E869EC
:100B900040F08050E861E869012700F08050009043
:100BA00055480168C90513D40168834641F4807132
:100BB0000160FFF769FD824606E000BFFFF764FDB4
:100BC000A0EB0A0064284ED8DBF80000C005F5D57C
:100BD000E06801280AD008B1052813D0286A20F05F
:100BE00001002862286A20F0040002E0286A40F030
:100BF00001002862E06841F2883B98B1FFF744FDAC
:100C000082460BE0286A40F004002862EEE700BF4D
:100C1000FFF73AFDA0EB0A0159455AD8286A800728
:100C2000F6D50CE0FFF730FD824605E0FFF72CFD1E
:100C3000A0EB0A0159454CD8286A8007F6D41FB1A9
:100C4000E86920F08050E861E06988B36968C1F321
:100C50008101022945D00228C6F8608004D0FFF740
:100C600013FD044638E034E0FFF70EFD074604E0CC
:100C7000FFF70AFDC01B02282BD828688001F7D493
:100C8000206AB0F5803F05D16868A16820F4003083
:100C900008436860D4E908010843696821F47411C5
:100CA00008436860C6F86090FFF7EEFC044606E073
:100CB00015E000BFFFF7E8FC001B022809D82868F0
:100CC0008001F7D50BE000BFFFF7DEFC001B022818
:100CD00002D90320BDE8F88F28688001F4D40020F1
:100CE000F8E70120F6E70000001002400000424251
:100CF000800442420C0000200070004070B50400E7
:100D000005D00025A56294F8510010B104E001203F
:100D100070BD204600F034F8022084F851002068AD
:100D2000016821F040010160D4E901010843D4E9E0
:100D300003121143084361690843218B01F40071D8
:100D40000843E1690843216A0843A16A084321680E
:100D50000860A069042101EA1040616A0843216823
:100D600048602168E06A08612068C16921F4006177
:100D7000C1616565012084F85100002070BD00004C
:100D800000B500680C4985B0884212D10B488169D2
:100D900041F4805181618069694600F4805004907B
:100DA000A020009002200190032003900448FFF748
:100DB0006DFB05B000BD0000003001400010024096
:100DC000000801402DE9F84F044690F85000002635
:100DD000994617460D4601280DD04FF0010B84F8B7
:100DE00050B0FFF751FC804694F85100B2460128FC
:100DF00004D0022694E00220BDE8F88F002D7BD0BD
:100E0000002F79D0032084F85100C4F854A0256342
:100E1000A786E786C4F838A0A4F83CA0A4F83EA0B2
:100E2000C4F844A0C4F840A0A068B0F5004F04D1B5
:100E30002068016841F4804101602068016849062A
:100E400003D4016841F040010160E068B0F5006F33
:100E5000606804D030B3E08E012823D03EE010B1AA
:100E6000E08E01281AD135F8021B206805E02068C1
:100E70008168890706D535F8021BC160E08E401EE7
:100E8000E0860BE0B9F1000F34D0B9F1FF3F05D097
:100E9000FFF7FAFBA0EB080149452BD2E08E0028B2
:100EA000E5D11EE0216815F8010B087306E0206803
:100EB0008168890706D515F8011B0173E08E401E75
:100EC000E0860BE0B9F1000F14D0B9F1FF3F05D077
:100ED000FFF7DAFBA0EB080149450BD2E08E0028B2
:100EE000E5D14B46012202212046CDF8008000F0DA
:100EF00020FA10B1032613E011E04246494620468D
:100F000000F007FA18B101262020606508E0A0680B
:100F100018B92068C16880680090606D00B1012632
:100F200084F851B084F850A0304665E74FF0E021D6
:100F30000428086903D020F004000861704740F0DD
:100F40000400FAE7704710B5401EB0F1807F01D36E
:100F5000012010BD4FF0E02460610F21601700F008
:100F600045F90020A06107202061002010BD10B5C8
:100F7000FFF7E8FF10BD70B5040004D094F8390005
:100F8000002510B106E0012070BD84F838502046DD
:100F900000F022F8242084F839002068C16821F488
:100FA0000051C160204600F06FFA2068016921F409
:100FB000904101612068416921F02A014161206866
:100FC000C16841F40051C160E563202084F8390014
:100FD00084F83A00002070BD10B50068114986B051
:100FE00088421DD11048816941F480418161806946
:100FF0000E4C00F4804004904FF4007000900220EA
:1010000001900320039069462046FFF73FFA002134
:101010002015CDE90001029169462046FFF736FA16
:1010200006B010BD00380140001002400008014029
:101030002DE9F843044690F839001F4616460D4640
:10104000202850D1A5B19EB194F8380001284AD08B
:10105000012084F838004FF00008C4F83C802120BB
:1010600084F83900FFF710FBA6848146E68426E069
:101070000120BDE8F883E08C401EE084A0684B4668
:10108000B0F5805F4FF000024FF0800120460097DE
:1010900003D000F0B1FAE8B90DE000F0ADFAC8B93C
:1010A00028882168C0F308004860206908B16D1CD9
:1010B00005E0AD1C03E0216815F8010B4860E08CE9
:1010C0000028D8D14B46002240212046009700F04E
:1010D00093FA08B10320CCE7202084F8390084F883
:1010E00038800020C5E70220C3E7FEE7124810B5AC
:1010F000816986B041F00401816180690F4C00F084
:1011000004000490002216212046FFF7B8FA1620AA
:101110000090012001900220039069462046FFF7CD
:10112000B5F900210820CDE9000102916946204669
:10113000FFF7ACF906B010BD0010024000080140F6
:10114000114810B50F4901604FF4827141600021D0
:101150008160C1604FF400720161C0E9051228226C
:10116000C0E90721416281620A21C162FFF7C6FD21
:10117000002805D0BDE81040272104A000F06FBA78
:1011800010BD000000300140340000202E2E2F53EF
:1011900072632F7370692E63000000000D4810B554
:1011A0000B4901604FF4E1314160002181600C2264
:1011B000C160C0E904128161C161FFF7DCFE002853
:1011C00005D0BDE81040242103A000F048BA10BDAE
:1011D000003801408C0000202E2E2F5372632F7593
:1011E000736172742E630000FEE770470907090EF1
:1011F000002806DA00F00F0000F1E02080F8141D4E
:10120000704700F1E02080F80014704730B50021ED
:101210000A4AC3B20DE0002006E000BF01FB04044F
:101220001568401C80B22B55548A8442F6D8491C5C
:1012300089B2908A8842EED830BD00001C000020A0
:1012400070B50022094B0DE0002106E002FB0414FA
:101250001E68055D491C355589B25C8A8C42F5D8FB
:10126000521C92B2998A9142EED870BD1C000020A7
:101270002DE9F041134C0E460699206026816281CB
:10128000A1811F4615464FF0000870074FEAD601AE
:1012900000D0491C6182A5822A460BA000F0E0F92B
:1012A0000F2112A000F0DCF9E781A4F810802FB123
:1012B000B42F03D0A580E680BDE8F081A680E5804C
:1012C000FAE700001C0000205769647468427974D2
:1012D00065203D2025642C20486569676874427943
:1012E0007465203D2025640D0A000000204550440F
:1012F0005F5749445448202F2038203D2025640D55
:101300000A00000001490860704700001C0000202E
:10131000704738B50B46009204460022802100F049
:1013200008F8002804D0606D40F0200060650320BC
:1013300038BD2DE9F0411D4617460E460446DDF83E
:10134000188035E0681C33D02DB1FFF79DF9A0EB74
:101350000800A8422CD32068416821F0E0014160D8
:101360006068B0F5827F0BD1A068B0F5004F02D065
:10137000B0F5806F04D12068016821F04001016060
:10138000A06AB0F5005F0AD1206801684DF6FF72CF
:10139000114001602068016841F4005101600120A2
:1013A00084F85100002084F850000320BDE8F0814B
:1013B0002068806836EA000004D00020B842C1D11D
:1013C0000020F3E70120F9E7704710B5FFF762F955
:1013D000BDE81040FFF7CBBD30B58FB00121080448
:1013E000CDE900100024029402250491CDE90750B4
:1013F0004FF4E01009906846FFF7FEFA00B1FEE7EF
:101400000F20CDE90A054FF48060CDE90C400221A0
:101410000AA80E94FFF7EAF900B1FEE7FFF790FA89
:101420004FF47A71B0FBF1F0FFF78DFD0420FFF768
:101430007DFD00221146501EFFF7A6F90FB030BD0A
:101440000D48016841F00101016041680B4A1140FB
:10145000416001680A4A11400160016821F480215D
:101460000160416821F4FE0141604FF41F01816079
:101470000449C00308607047001002400000FFF8F4
:10148000FFFFF6FE08ED00E02DE9F041044600689C
:101490000169E26821F44051114301612169A068AA
:1014A0000843616908432168CA6841F20C639A43A2
:1014B0000243CA6020684169A26921F44071114366
:1014C00041614C4920686425322688423CD1FFF7AF
:1014D0004DFA00EBC00101EB001061688900B0FB20
:1014E000F1F7FFF743FA00EBC00101EB0010616870
:1014F000B0468900B0FBF1F0B0FBF5F06FF01801D9
:10150000484307EB800106EB0110B0FBF5F000F05B
:10151000F006FFF72BFA00EBC00101EB0010616849
:101520008900B0FBF1F0B0FBF5F006EB0016FFF719
:101530001DFA00EBC00101EB001061688900B0FBEF
:10154000F1F7FFF713FA3BE0FFF700FA00EBC001F9
:1015500001EB001061688900B0FBF1F7FFF7F6F9C5
:1015600000EBC00101EB00106168B0468900B0FBE0
:10157000F1F0B0FBF5F06FF01801484307EB800184
:1015800006EB0110B0FBF5F000F0F006FFF7DEF916
:1015900000EBC00101EB001061688900B0FBF1F0C5
:1015A000B0FBF5F006EB0016FFF7D0F900EBC00139
:1015B00001EB001061688900B0FBF1F7FFF7C6F995
:1015C00000EBC00101EB001061688900B0FBF1F095
:1015D000B0FBF5F06FF01801484307EB800108EB12
:1015E0000110B0FBF5F0216800F00F003044886076
:1015F000BDE8F081003801402DE9F04198461746DA
:101600000E460446069D1DE0681C1BD02DB1FFF759
:101610003BF8A0EB0800A84214D92068C16821F467
:10162000D071C1602068416921F001014161202031
:1016300084F8390084F83A00002084F83800032048
:10164000BDE8F0812068006836EA000004D0002080
:10165000B842D9D00020F3E70120F9E7FEE7FEE722
:101660000FB4054B10B503A9044A029800F018F80E
:1016700010BC5DF814FB0000591800081000002091
:1016800002E008C8121F08C1002AFAD1704770474B
:10169000002001E001C1121F002AFBD170470000A9
:1016A0002DE9FF4F8BB09A460F460546002606E00F
:1016B00025280BD052460D9990476D1C761C287832
:1016C0000028F5D10FB03046BDE8F08F0024A046C9
:1016D0000122604900E0044315F8013F203B02FA73
:1016E00003F00842F7D128782E2817D115F8010FFA
:1016F00044F004042A280ED06FF02F022878A0F1BD
:10170000300109290AD808EB880102EB410100EBFE
:1017100001086D1CF2E757F8048B6D1C28786928C6
:101720003ED006DC0028CDD063280BD0642804D13D
:1017300036E0732810D075284BD052460D9990474B
:10174000761C85E017F8040B8DF8000000208DF85A
:101750000100E946012003E057F8049B4FF0FF30F9
:1017600061074FF0000401D40AE0641C44450DDA1F
:101770008442FADB19F804100029F6D106E0641C53
:101780008442FCDB19F804100029F8D1264404E057
:1017900019F8010B52460D999047641EF8D257E094
:1017A00001CF4FF00A0B002802DA40422D2102E05F
:1017B000210504D52B218DF82410012103E0E10738
:1017C00005D02021F7E70DF1200908910CE0002158
:1017D000F9E701CF4FF00A0BF9E75946FEF7C4FCD1
:1017E00001F1300209F8012D0028F6D1ADEB090016
:1017F00000F1200B600701D44FF00108D84502DD4D
:10180000A8EB0B0000E000208046002406E009A8B9
:101810005246005D0D999047641C761C08988442DE
:10182000F5DB04E0302052460D999047761CB8F164
:101830000001A8F10108F5DC05E019F8010B52469A
:101840000D999047761CBBF10001ABF1010BF4DC64
:101850006D1C34E70928010013B54FF6FF73012210
:1018600069460248FFF7E4FB00981CBD8C0000208D
:1018700010B5002821D0114B0022001F196803E089
:10188000814203D80A4649680029F9D152B1136848
:10189000841A9C4204D1006818441060104602E08B
:1018A000506000E0186039B102680B1A934203D10E
:1018B0000B681A4402604968416010BD14000020A2
:1018C00038B5FEF7EFFEFFF787FDFFF70FFCFFF7D8
:1018D00065FCFFF735FCFEF7D3FC10B123A0FFF742
:1018E000BFFE28A0FFF7BCFEFEF775FC4FF4FA75AB
:1018F0002846FEF7B9FD4FF4F04000F081F80400EF
:101900002DD023A0FFF7ACFEFF20009000234FF462
:10191000C0724FF420712046FFF7AAFC2046FFF763
:10192000F1FCFF20FFF772FC1EA0FFF799FE204696
:10193000FFF7E8FCFF20FFF769FC2048FFF780FC79
:101940002046FEF766FC2846FEF78EFD1CA0FFF73A
:1019500087FEFEF73DFD2046FFF78AFFFEE71EA04B
:10196000FFF77EFE4FF0FF3038BD0000652D50615F
:1019700070657220696E6974206661696C65640DBA
:101980000A000000636C6561722E2E2E0D0A0000A5
:101990005061696E745F4E6577496D6167650D0AC8
:1019A0000000000073686F7720696D6167652066CD
:1019B0006F722061727261790D0A00006C1A000862
:1019C000476F746F20536C656570206D6F64652E72
:1019D0002E2E0D0A000000004661696C65642074BB
:1019E0006F206170706C7920666F7220626C616329
:1019F0006B206D656D6F72792E2E2E0D0A00000022
:101A0000F0B50B30154D20F007010024144A0FE00B
:101A100003688B420BD38B4205D95E1A4318476883
:101A2000C3E9006700E04368136002C004E0021DE0
:101A300010680028ECD12046002802D1286808B19F
:101A40000020F0BD064A07481060074A121A22F02B
:101A50000702C0E9002401202860D7E71800002011
:101A600014000020D4000020D0900020FFFFFFFFD2
:101A7000FFFFFFFFFFFFFFFFFFFFFFFFFFFFFFFF76
:101A8000FFFFFFFFFFFFFFFE3FFFFFFFFFFFFFFF27
:101A9000FFFFFFFFFFFFFFFFFFFFFFFFFFFFFFFF56
:101AA000FFFFFFFFFFFFFFFF3FFFFFFFFFFFFFFF06
:101AB000FFFFFFFFFFFFFFFFFFFFFFFFFFFFFFFF36
:101AC000FFFFFFFFFFFFFFFFFFFFFFFFFFFFFFFF26
:101AD000FFFFFFFFFFFFFFFE3FFFFFFFFFFFFFFFD7
:101AE000FFFFFFFFFFFFFFFFFFFFFFFFFFFFFFFF06
:101AF000FFFFFFFFFFFFFFFE3FFFFFFFFFFFFFFFB7
:101B0000FFFFFFFFFFFFFFFFFFFFFFFFFFFFFFFFE5
:101B1000FFFFFFFFFFFFFFFFFFFFFFFFFFFFFFFFD5
:101B2000FFFFFFFFFFFFFFFE3FFFFFFFFFFFFFFF86
:101B3000FFFFFFFFFFFFFFFFFFFFFFFFFFFFFFFFB5
:101B4000FFFFFFFFFFFFFFFE3FFFFFFFFFFFFFFF66
:101B5000FFFFFFFFFFFFFFFFFFFFFFFFFFFFFFFF95
:101B6000FFFFFFFFFFFFFFFFFFFFFFFFFFFFFFFF85
:101B7000FFFFFFFFFFFFFFFE3FFFFFFFFFFFFFFF36
:101B8000FFFFFFFFFFFFFFFFFFFFFFFFFFFFFFFF65
:101B9000FFFFFFFFFFFFFFFE3FFFFFFFFFFFFFFF16
:101BA000FFFFFFFFFFFFFFFFFFFFFFFFFFFFFFFF45
:101BB000FFFFFFFFFFFFFFFFFFFFFFFFFFFFFFFF35
:101BC000FFFFFFFFFFFFFFFE3FFFFFFFFFFFFFFFE6
:101BD000FFFFFFFFFFFFFFFFFFFFFFFFFFFFFFFF15
:101BE000FFFFFFFFFFFFFFFE3FFFFFFFFFFFFFFFC6
:101BF000FFFFFFFFFFFFFFFFFFFFFFFFFFFFFFFFF5
:101C0000FFFFFFFFFFFFFFFFFFFFFFFFFFFFFFFFE4
:101C1000FFFFFFFFFFFFFFFE3FFFFFFFFFFFFFFF95
:101C2000FFFFFFFFFFFFFFFFFFFFFFFFFFFFFFFFC4
:101C3000FFFFFFFFFFFFFFFE3FFFFFFFFFFFFFFF75
:101C4000FFFFFFFFFFFFFFFFFFFFFFFFFFFFFFFFA4
:101C5000FFFFFFFFFFFFFFFFFFFFFFFFFFFFFFFF94
:101C6000FFFFFFFFFFFFFFFE3FFFFFFFFFFFFFFF45
:101C7000FFFFFFFFFFFFFFFFFFFFFFFFFFFFFFFF74
:101C8000FFFFFFFFFFFFFFFE3FFFFFFFFFFFFFFF25
:101C9000FFFFFFFFFFFFFFFFFFFFFFFFFFFFFFFF54
:101CA000FFFFFFFFFFFFFFFFFFFFFFFFFFFFFFFF44
:101CB000FFFFFFFFFFFFFFFE3FFFFFFFFFFFFFFFF5
:101CC000FFFFFFFFFFFFFFFFFFFFFFFFFFFFFFFF24
:101CD000FFFFFFFFFFFFFFFE3FFFFFFFFFFFFFFFD5
:101CE000FFFFFFFFFFFFFFFFFFFFFFFFFFFFFFFF04
:101CF000FFFFFFFFFFFFFFFFFFFFFFFFFFFFFFFFF4
:101D0000FFFFFFFFFFFFFFFE3FFFFFFFFFFFFFFFA4
:101D1000FFFFFFFFFFFFFFFFFFFFFFFFFFFFFFFFD3
:101D2000FFFFFFFFFFFFFFFE3FFFFFFFFFFFFFFF84
:101D3000FFFFFFFFFFFFFFFFFFFFFFFFFFFFFFFFB3
:101D4000FFFFFFFFFFFFFFFFFFFFFFFFFFFFFFFFA3
:101D5000FFFFFFFFFFFFFFFE3FFFFFFFFFFFFFFF54
:101D6000FFFFFFFFFFFFFFFFFFFFFFFFFFFFFFFF83
:101D7000FFFFFFFFFFFFFFFE3FFFFFFFFFFFFFFF34
:101D8000FFFFFFFFFFFFFFFFFFFFFFFFFFFFFFFF63
:101D9000FFFFFFFFFFFFFFFFFFFFFFFFFFFFFFFF53
:101DA000FFFFFFFFFFFFFFFE3FFFFFFFFFFFFFFF04
:101DB000FFFFFFFFFFFFFFFFFFFFFFFFFFFFFFFF33
:101DC000FFFFFFFFFFFFFFFE3FFFFF80000000005F
:101DD00000000000000000000007FFFFFFFFFFFF02
:101DE000FFFFFF1FFFFFFFFFFFFFFFFFFFFFFFFFE3
:101DF000FFFFFFFFFFFFFFFE3FFFFFFFFFFFFFFFB4
:101E0000FFFFFFFFFFFFFFFFFFFFFFFFFFFFFFFFE2
:101E1000FFFFFFFFFFFFFFFE3FFFFE00000000008F
:101E200000000000000000000003FFFFFFFFFFFFB5
:101E3000FFFFFE0FFFFFFFFFFFFFFFFFFFFFFFFFA3
:101E4000FFFFFFFFFFFFFFFE3FFFFFFFFFFFFFFF63
:101E5000FFFFFFFFFFFFFFFFFFFFFFFFFFFFFFFF92
:101E6000FFFFFFFFFFFFFFFE3FFFFE00000000003F
:101E700000000000000000000001FFFFFFFFFFFF67
:101E8000FFFFFE0FFFFFFFFFFFFFFFFFFFFFFFFF53
:101E9000FFFFFFFFFFFFFFFE3FFFFFFFFFFFFFFF13
:101EA000FFFFFFFFFFFFFFFFFFFFFFFFFFFFFFFF42
:101EB000FFFFFFFFFFFFFFFE3FFFFC0000000000F1
:101EC00000000000000000000000FFFFFFFFFFFF18
:101ED000FFFFFE0FFFFFFFFFFFFFFFFFFFFFFFFF03
:101EE000FFFFFFFFFFFFFFFE3FFFFFFFFFFFFFFFC3
:101EF000FFFFFFFFFFFFFFFFFFFFFFFFFFFFFFFFF2
:101F0000FFFFFFFFFFFFFFFE3FFFFC0000000000A0
:101F100000000000000000000000FFFFFFFFFFFFC7
:101F2000FFFFFE0FFFFFFFFFFFFFFFFFFFFFFFFFB2
:101F3000FFFFFFFFFFFFFFFE3FFFFFFFFFFFFFFF72
:101F4000FFFFFFFFFFFFFFFFFFFFFFFFFFFFFFFFA1
:101F5000FFFFFFFFFFFFFFFE3FFFFC000000000050
:101F600000000000000000000000FFFFFFFFFFFF77
:101F7000FFFFFE0FFFFFFFFFFFFFFFFFFFFFFFFF62
:101F8000FFFFFFFFFFFFFFFE3FFFFFFFFFFFFFFF22
:101F9000FFFFFFFFFFFFFFFFFFFFFFFFFFFFFFFF51
:101FA000FFFFFFFFFFFFFFFE3FFFFC000000000000
:101FB00000000000000000000000FFFFFFFFFFFF27
:101FC000FFFFFE0FFFFFFFFFFFFFFFFFFFFFFFFF12
:101FD000FFFFFFFFFFFFFFFE3FFFFFFFFFFFFFFFD2
:101FE000FFFFFFFFFFFFFFFFFFFFFFFFFFFFFFFF01
:101FF000FFFFFFFFFFFFFFFE3FFFFC0000000000B0
:1020000000000000000000000000FFFFFFFFFFFFD6
:10201000FFFFFE0FFFFFFFFFFFFFFFFFFFFFFFFFC1
:10202000FFFFFFFFFFFFFFFE3FFFFFC003FFFFFFBC
:10203000FFFFFFFFFFFFFFFFFFFFFFFFFFFFFFF8B7
:1020400007FFFFFFFFC00FFE3FFFFC000000000086
:1020500000000000000000000000FFFFFFFFFFFF86
:10206000FFFFFE0FFFFFFFFFFFFFFFFFFFFFFFFF71
:10207000FFFFFFFFFFFFFFFE3FFFFF8003FFFFFFAC
:10208000FFFFFFFFFFFFFFFFFFFFFFFFFFFFFFE07F
:1020900007FFFFFFF8000FFE3FFFFC0003FFFFFFFD
:1020A000FFFFFFFFFFFFFFFF0000FFFFFFFFFFFF3E
:1020B000FFFFFE0FFFFFFFFFFFFFFFFFFFFFFFFF21
:1020C000FFFFFFFFFFFFFFFE3FFFFF8003FFFFFF5C
:1020D000FFFFFFFFFFFFFFFFFFFFFFFFFFFFFF808F
:1020E00007FFFFFFC0000FFE3FFFFC0001FFFFFFE7
:1020F000F07FF07FFFFFFFFE0000FFFFFFFFFFFF0D
:102100009FFFFE0FFFFE3FFFFFFFFFFFFFFFFFFFF1
:10211000FFFFFFFFFFFFFFFE3FFFFF8001FFFFFF0D
:10212000FFFFFFFFFFFFFFFFFFFFFFFFFFFFFE00BF
:1021300007FFFFFF00000FFE3FFFFC0000FFFFFF57
:10214000801FC01FFFFFFFFC0000FFFFFFFFFFFF1E
:1021500007FFFE0FFFFC1FFFFFFFFFFFFFFFFFFF5B
:10216000FFFFFFFFFFFFFFFE3FFFFF8001FFFFFFBD
:10217000FFFFFFFFFFFFFFFFFFFFFFFFFFFFFC0071
:1021800007FFFFFC00000FFE3FFFFC00007FFFFF8A
:10219000001F800FFFFFFFF80000FFFFFFFFFFFFA2
:1021A00003FFFE0FFFF81FFFFFFFFFFFFFFFFFFF13
:1021B000FFFFFFFFFFFFFFFE3FFFFF0001FFFFFFED
:1021C000FFFFFFFFFFFFFFFFFFFFFFFFFFFFF0002D
:1021D00007FFFFF800000FFE3FFFFC01803FFFFFFD
:1021E0000F0F070FFC7FFFF00600FFFFFFFFFFFF51
:1021F00001FFFE1FFFF01FFFFFFFFFFFFFFFFFFFBD
:10220000FFFFFFFFFFFFFFFE3FFFFF0000FFFFFF9D
:10221000FFFFFFFFFFFFFFFFFFFFFFFFFFFFC0000C
:1022200007FFFFF000000FFE3FFFFC01C00FFFFEA5
:102230001F8F0F87FC7FFFC00E00FFFFFFFFFFFF18
:1022400080FFFF3FFFE03FFFFFFFFFFFFFFFFFFFBC
:10225000FFFFFFFFFFFFFFFE3FFFFF0000FFFFFF4D
:10226000FFFFFFFFFFFFFFFFFFFFFFFFFFFF00007C
:1022700007FFFFE000FFFFFE3FFFFC01E007FFFE5E
:102280001F871FC7FC7FFF801E00FFFFFFFFFFFFB0
:10229000C07FFFFFFFC07FFFFFFFFFFFFFFFFFFFCC
:1022A000FFFFFFFFFFFFFFFE3FFFFE0100FFFFFFFD
:1022B000FFFFFFFFFFFFFFFFFFFFFFFFFFFE00002D
:1022C00007FFFFE007FFFFFE3FFFFC01F003FFFEFB
:1022D0001F871FC7FC7FFF007E00FFFFFFFFFFFF80
:1022E000E03FFFFFFF80FFFFFFFFFFFFFFFFFFFF5C
:1022F000FFFFFFFFFFFFFFFE3FFFFE01007FFFFF2D
:10230000FFFFFFFFFFF01FFFFFFFFFFFFFFF0010BA
:1023100007FFFFC00FFFFFFE3FFFFC01F801FFFEBC
:102320001F871FC7FC7FFE00FE00FFFFFFFFFFFFB0
:10233000F01FFFFFFF01FFFFFFFFFFFFFFFFFFFF9A
:10234000FFFFFFFFFFFFFFFE3FFFFE01007FFF805B
:102350007FFC01FFFF0000007FFFFFFFFFFF003059
:1023600007FFFF801FFFFFFE3FFFFC01FE007FFE17
:102370000F870F87FC7FF801FE00FFFFFFFFFFFFC5
:10238000F81FFC07FE03FFFFFFFFFFFFFFFFFFFF3C
:10239000FFFFFFFFFFFFFFFE3FFFFC03807FFF808B
:1023A0007FFC01FFFC0000007FFFFFFFFFFF80F0CC
:1023B00007FFFF803FFFFFFE3FFFFC01FF003FFFE5
:1023C000000700070003F003FE00FFFFFFFFFFFF11
:1023D000FC0FC000FE07FFFFFFFFFFFFF00FFFFE37
:1023E00000007FFFFFFFFFFE3FFFFC03807FFF80B9
:1023F0007FFC01FFF80000007FFFFFFFFFFF83F07D
:1024000007FFFF807FFFFFFE3FFFFC01FF801FFFF4
:10241000800780070003E007FE00FFFFFFFFFFFFCC
:10242000FE1F00003E0FFFFFFFFFFFFFC003FFFE88
:1024300000007FFFFFFFFFFE3FFFFC03803FFF80A8
:102440007FFC01FFF00000007FFFFFFFFFFF8FF028
:1024500007FFFF007FFFFFFE3FFFFC01FFC00FFFF4
:10246000E087E0C70003C00FFE00FFFFFFFFFFFF94
:10247000FF3E00000F1FFFFFFFFFFFFF0001FFFEF9
:1024800000007FFFFFFFFFFE3FFFFC07803FFF8054
:102490007FFC01FFE00000007FFFFFFFFFFFDFF098
:1024A00007FFFF00FFFFFFFE3FFFFC01FFF007FFFC
:1024B000FF8FFFC7FC7F803FFE00FFFFFFFFFFFF96
:1024C000FFFC000007FFFFFFFFFFFFFE0000FFFE15
:1024D00000007FFFFFFFFFFE3FFFF807C03FFF80C8
:1024E0007FFC01FFE00FC0007FFFFFFFFFFFFFF059
:1024F00007FFFF00FFFFFFFE3FFFFC01FFF801FFAA
:10250000FF8FFF87FC7E007FFE00FFFFFFFFFFFFC6
:10251000FFF8000003FFFFFFFFFFFFFC00007FFE4E
:1025200000007FFFFFFFFFFE3FFFF807C01FFF8097
:102530007FFC01FFC01FF00FFFFFFFFFFFFFFFF059
:1025400007FFFE00FFFFFFFE3FFFFC01FFFC00FF57
:10255000FF0FFF0FFC7C00FFFE00FFFFFFFFFFFFF0
:10256000FFF0000001FFFFFFFFFFFFFC0FE07FFE19
:102570003FFFFFFFFFFFFFFE3FFFF807C01FFF8089
:102580007FFC01FFC03FF807FFFFFFFFFFFFFFF0E9
:1025900007FFFE00F807FFFE3FFFFC01FFFE007F84
:1025A000FE1FFE0FFC7801FFFE00FFFFFFFFFFFF95
:1025B000FFE0000000FFFFFFFFFFFFFC3FF03FFEDA
:1025C0003FFFFFFFFFFFFFFE3FFFF00FC01FFF8039
:1025D0007FFC01FF807FF807FFFFFFFFFFFFFFF099
:1025E00007FFFE008000FFFE3FFFFC01FFFF803F72
:1025F000003F801FFC7007FFFE00FFFFFFFFFFFF93
:10260000FFC0000000FFFFFFFFFFFFFE7FF83FFE5F
:102610003FFFFFFFFFFFFFFE3FFFF00FE01FFF80C8
:102620007FFC01FF807FF807FFFFFFFFFFFFFFF048
:1026300007FFFE0000003FFE3FFFFC01FFFFC00F51
:10264000007F803FFC400FFFFE00FFFFFFFFFFFF0A
:10265000FFC00000007FFFFFFFFFFFFFFFF83FFE0E
:102660003FFFFFFFFFFFFFFE3FFFF00FE00FFF8088
:102670007FFC01FF807FFC07FFFFFFFFFFFFFFF0F4
:1026800007FFFE0000000FFE3FFFFC01FFFFE00719
:1026900003FF81FFFF801FFFFE00FFFFFFFFFFFF23
:1026A000FF800000007FFFFFFFFFFFFFFFF83FFEFE
:1026B0003FFFFFFFFFFFFFFE3FFFF00FE00FFF8038
:1026C0007FFC01FF807FFC07FFFFFFFFFFFFFFF0A4
:1026D00007FFFE00000007FE3FFFFC01FFFFF003C5
:1026E000FFFFFFFFFF003FFFFE00FFFFFFFFFFFFB9
:1026F000FF800000003FFFFFFFFFFFFFFFFC1FFE0A
:102700003FFFFFFFFFFFFFFE3FFFE01FF00FFF80D7
:102710007FFC01FF807FFC07FFFFFFFFFFFFFFF053
:1027200007FFFE00000007FE3FFFFC01FFFFFC016A
:10273000FFFFFFFFFE00FFFFFE00FFFFFFFFFFFFA9
:10274000FF000000003FFFFFFFFFFFFFFFFC1FFE39
:102750003FFFFFFFFFFFFFFE3FFFE01FF007FF808F
:102760007FFC01FF807FF807FFFFFFFFFFFFFFF007
:1027700007FFFE00000003FE3FFFFC01FFFFFE001D
:102780007FFFFFFFF801FFFFFE00FFFFFFFFFFFFDE
:10279000FF000000003FFFFFFFFFFFFFFFFC1FFEE9
:1027A0003FFFFF8FFF01FFFE3FFFE01FF007FF80AD
:1027B0007FFC01FF807FF807FFFFFFFFFFFFFFF0B7
:1027C00007FFFE001FE001FE3FFFFC01FFFFFF00CF
:1027D0003FFFFFFFF003FFFFFE00FFFFFFFFFFFFD4
:1027E000FF000000001FFFFFFFFFFFFFFFFC1FFEB9
:1027F0003FFFFE07FE007FFE3FFFC03FF007FF8068
:102800007FFC01FFC03FF007FFFFFFFFFFFFFFF06E
:1028100007FFFE00FFF801FE3FFFFC01FFFFFF8006
:102820001FFFFFFFE007FFFFFE00FFFFFFFFFE00AF
:102830001F000000001F000FFFFFFFFFFFFC3FFE17
:102840003FFFFC03FC003FFE3FFFC03FF803FF805B
:102850007FFC01FFC01FF007FFFFFFFFFFFFFFF03E
:1028600007FFFE00FFFC01FE3FFFFC01FFFFFFE052
:102870000FFFFFFFC01FFFFFFE00FFFFFFFFFC0079
:102880000F000000001E0007FFFFFFFFFFF83FFEE4
:102890003FFFFC61F87E1FFE3FFFC03FF803FF8053
:1028A0007FFC01FFC00FC00FFFFFFFFFFFFFFFF026
:1028B00007FFFE00FFFC01FE3FFFFC01FFFFFFF0F2
:1028C00007FFFFFF003FFFFFFE00FFFFFFFFFC00D1
:1028D0000F000000001C0007FFFFFFFFFFF83FFE96
:1028E0003FFFF8F1F0FF9FFE3FFF803FF803FF80BE
:1028F0007FFC01FFE000001FFFFFFFFFFFFFFFF075
:1029000007FFFE00FFFE00FE3FFFFC01FFFFFFF898
:1029100001FFFFFE007FFFFFFE00FFFFFFFFFC0047
:102920000F000000001C0007FFFFFFFFFFF83FFE45
:10293000001FF9F8F1FF8FFE3FFF807FF803FF8053
:102940007FFC01FFF000001FFFFFFFFFFFFFFFF014
:1029500007FFFE00FFFE00FE3FFFFC01FFFFFFFC44
:1029600000FFFFFC00FFFFFFFE00FFFFFFFFFE0078
:102970000F000000001E000FFFFFFFFFFFF07FFEB3
:102980000007F9F8F3FFCFFE3FFF80000001FF8052
:102990007FFC01FFE000003FFFFFFFFFFFFFFFF0B4
:1029A00007FFFE00FFFE00FE3FFFFC01FFFFFFFCF4
:1029B000007FFFF800FFFFFFFE00FFFFFFFFFFFFAC
:1029C000FF000000001FFFFFFFFFFFFFFFF07FFE83
:1029D0000001F9F0F3FFCFFE3FFF80000001FF8010
:1029E0007FFC01FFE000007FFFFFFFFFFFFFFFF024
:1029F00007FFFE00FFFE00FE3FFFFC01FFFFFFF8A8
:102A0000003FFFF0007FFFFFFE00FFFFFFFFFFFF23
:102A1000FF000000001FFFFFFFFFFFFFFFE0FFFEC2
:102A20000000FCE1F3FFCFFE3FFF00000001FF804C
:102A30007FFC01FFC00001FFFFFFFFFFFFFFFFF072
:102A400007FFFE00FFFE00FE3FFFFC01FFFFFFF05F
:102A5000000FFFC0003FFFFFFE00FFFFFFFFFFFF73
:102A6000FF000000003FFFFFFFFFFFFFFFC0FFFF71
:102A7000FF007C01F3FFFFFE3FFF00000000FF802E
:102A80007FFC01FF80701FFFFFFFFFFFFFFFFFF0D4
:102A900007FFFE00FFFE00FE3FFFFC01FFFFFFE01F
:102AA0000007FF80001FFFFFFE00FFFFFFFFFFFF8B
:102AB000FF800000003FFFFFFFFFFFFFFFC1FFFFA0
:102AC000FFE07E03F3FFFFFE3FFF00000000FF80FA
:102AD0007FF801FF80FFFFFFFFFFFFFFFFFFFFF019
:102AE00007FFFE00FFFE01FE3FFFFC01FFFFFF802E
:102AF0001003FF00200FFFFFFE00FFFFFFFFFFFF9F
:102B0000FF800000003FFFFFFFFFFFFFFF83FFFF8D
:102B1000FFF83F8FF3FFFFFE3FFE00000000FF8045
:102B20007FF801FF80FFFFFFFFFFFFFFFFFFFFF0C8
:102B300007FFFF007FFC01FE3FFFFC01FFFFFF00DE
:102B40003C01FE00F003FFFFFE00FFFFFFFFFFFF61
:102B5000FFC00000007FFFFFFFFFFFFFFF03FFFF3D
:102B6000FFFC3FFFF3FFFFFE3FFE00000000FF8081
:102B70003FF001FF00FFFFFFFFFFFFFFFFFFFFF040
:102B800007FFFF007FFC01FE3FFFFC01FFFFFE008F
:102B90007E007801F801FFFFFE00FFFFFFFFFFFF4F
:102BA000FFC00000007FFFFFFFFFFFFFFE07FFFFEA
:102BB000FFFC1FFFF3FFFFFE3FFE01FFFF007F80D2
:102BC0003FE001FF00FFFFFFFFFFFFFFFFFFFFF000
:102BD00007FFFF003FF801FE3FFFFC01FFFFFC0085
:102BE000FF003003FC00FFFFFE00FFFFFFFFFFFFC1
:102BF000FFE0000000FFFFFFFFFFFFFFFC0FFFFFF4
:102C0000FFFE1FFFF3FFFFFE3FFE01FFFF007F807F
:102C10003FC001FF007FFFFFFFFFFFFFFFFF00003E
:102C20000001FF801FF003FE3FFFFC01FFFFF003E8
:102C3000FF800007FF007FFFFE00FFFFFFFFFFFF99
:102C4000FFE0000001FFFFFFFFFFFFFFF81FFFFF96
:102C5000FFFE1FFFF3FFFFFE3FFC03FFFF007FC0EF
:102C60000F0001FF801FFFFFFFFFFFFFFFFF0000BE
:102C70000001FF800FE003FE3FFFFC01FFFFE007C4
:102C8000FFC0001FFF801FFFFE00FFFFFFFFFFFFD1
:102C9000FFF0000003FFFFFFFFFFFFFFF83FFFFF14
:102CA000FFFE1FFFF3FFFFFE3FFC03FFFF003FC0DF
:102CB000000001FF800000FFFFFFFFFFFFFF00009B
:102CC0000001FFC0000007FE3FFFFC01FFFFC00F37
:102CD000FFF0003FFFC00FFFFE00FFFFFFFFFFFF01
:102CE000FFF8000007FFFFFFFFFFFFFFF07FFFFF80
:102CF000FFFE1FFFF3FFFFFE3FFC03FFFF803FC00F
:102D0000000301FFC000000FFFFFFFFFFFFF0000F7
:102D10000001FFE000000FFE3FFFFC01FFFF801FEE
:102D2000FFF8007FFFE007FFFE00FFFFFFFFFFFF50
:102D3000FFFC00000FFFFFFFFFFFFFFFE07FFFFF33
:102D4000FFFE1FFFF3FFFFFE3FF803FFFF803FE0A2
:102D5000000601FFC0000003FFFFFFFFFFFF0000B0
:102D60000001FFE000001FFE3FFFFC01FFFF007FAE
:102D7000FFFC00FFFFF803FFFE00FFFFFFFFFFFF68
:102D8000FE1F00001F0FFFFFFFFFFFFFC0FFFFFF41
:102D9000FFFE1FFFF3FFFFFE3FF807FFFF801FF05E
:102DA000000E01FFF0000001FFFFFFFFFFFF00002A
:102DB0000001FFF000003FFE3FFFFC01FFFC00FFB1
:102DC000FFFE01FFFFFC00FFFE00FFFFFFFFFFFF14
:102DD000FC1FC0007E07FFFFFFFFFFFF81FFFFFF1B
:102DE000FFFC3FFFF3FFCFFE3FF807FFFFC01FF8D8
:102DF000001E01FFE0000000FFFFFFFFFFFF0000DB
:102E00000001FFFC00007FFE3FFFFC01FFF801FF17
:102E1000FFFF87FFFFFE007FFE00FFFFFFFFFFFFBA
:102E2000F81FF001FE03FFFFFFFFFFFF03FFFFFF9F
:102E3000FFFC3FFFF3FFCFFE3FF007FFFFC01FFC8B
:102E4000003E01FFC0000000FFFFFFFFFFFF00008A
:102E50000001FFFF0003FFFE3FFFFC01FFF003FF47
:102E6000FFFFDFFFFFFF003FFE00FFFFFFFFFFFF51
:102E7000F01FFFFFFF01FFFFFFFFFFFE07FFFFFF48
:102E8000FFF87FFFF3FFCFFE3FFFFFFFFFFFFFFFD6
:102E900081FFFFFF803FFC007FFFFFFFFFFFFFFF81
:102EA000FFFFFFFFE01FFFFE3FFFFC01FFE00FFF02
:102EB000FFFFFFFFFFFFC01FFE00FFFFFFFFFFFF41
:102EC000E03FFFFFFF80FFFFFFFFFFFE0FFFFFFF61
:102ED000FFF07FFFF3FF8FFE3FFFFFFFFFFFFFFFCE
:102EE000FFFFFFFF007FFE007FFFFFFFFFFFFFFFF1
:102EF000FFFFFFFFFFFFFFFE3FFFFC01FF801FFF03
:102F0000FFFFFFFFFFFFE007FE00FFFFFFFFFFFFE8
:102F1000C07FFFFFFFC07FFFFFFFFFFC0FFFFFFF32
:102F2000FFE0FFFFF1FF8FFE3FFFFFFFFFFFFFFF0F
:102F3000FFFFFFFE00FFFF007FFFFFFFFFFFFFFF20
:102F4000FFFFFFFFFFFFFFFE3FFFFC01FF003FFF12
:102F5000FFFFFFFFFFFFF003FE00FFFFFFFFFFFF8C
:102F600080FFFFFFFFE03FFFFFFFFFF8000007F9D2
:102F7000FF81FFFFF8FF1FFE3FFFFFFFFFFFFFFF87
:102F8000FFFFFFFE00FFFF007FFFFFFFFFFFFFFFD0
:102F9000FFFFFFFFFFFFFFFE3FFFFC01FE007FFF83
:102FA000FFFFFFFFFFFFF801FE00FFFFFFFFFFFF36
:102FB00001FFFE1FFFF03FFFFFFFFFF8000007F8D3
:102FC0000003FFFFF8003FFE3FFFFFFFFFFFFFFF93
:102FD000FFFFFFFE01FFFF007FFFFFFFFFFFFFFF7F
:102FE000FFFFFFFFFFFFFFFE3FFFFC01FC01FFFFB4
:102FF000FFFFFFFFFFFFFE00FE00FFFFFFFFFFFFE1
:1030000003FFFE0FFFF81FFFFFFFFFF8000007F8A8
:103010000007FFFFFC007FFE3FFFFFFFFFFFFFFFFA
:10302000FFFFFFFE01FFFF007FFFFFFFFFFFFFFF2E
:10303000FFFFFFFFFFFFFFFE3FFFFC01F003FFFF6D
:10304000FFFFFFFFFFFFFF003E00FFFFFFFFFFFF4F
:1030500007FFFE0FFFFC1FFFFFFFFFF8000007F850
:10306000000FFFFFFF00FFFE3FFFFFFFFFFFFFFF1F
:10307000FFFFFFFE00FFFE00FFFFFFFFFFFFFFFF60
:10308000FFFFFFFFFFFFFFFE3FFFFC01E007FFFF29
:10309000FFFFFFFFFFFFFF801E00FFFFFFFFFFFF9F
:1030A0000FFFFE0FFFFE3FFFFFFFFFF8000007F8D6
:1030B000007FFFFFFFFFFFFE3FFFFFFFFFFFFFFF60
:1030C000FFFFFFFE007FFC00FFFFFFFFFFFFFFFF92
:1030D000FFFFFFFFFFFFFFFE3FFFFC01C00FFFFFF1
:1030E000FFFFFFFFFFFFFFC00E00FFFFFFFFFFFF1F
:1030F000FFFFFE0FFFFFFFFFFFFFFFFFFFFFFFFFD1
:10310000FFFFFFFFFFFFFFFE3FFFFFFFFFFFFFFF90
:10311000FFFFFFFE003FF001FFFFFFFFFFFFFFFF8C
:10312000FFFFFFFFFFFFFFFE3FFFFC01801FFFFFD0
:10313000FFFFFFFFFFFFFFE00600FFFFFFFFFFFFB6
:10314000FFFFFE0FFFFFFFFFFFFFFFFFFFFFFFFF80
:10315000FFFFFFFFFFFFFFFE3FFFFFFFFFFFFFFF40
:10316000FFFFFFFF00000001FFFFFFFFFFFFFFFF6A
:10317000FFFFFFFFFFFFFFFE3FFFFC00007FFFFFA1
:10318000FFFFFFFFFFFFFFF80000FFFFFFFFFFFF54
:10319000FFFFFE0FFFFFFFFFFFFFFFFFFFFFFFFF30
:1031A000FFFFFFFFFFFFFFFE3FFFFFFFFFFFFFFFF0
:1031B000FFFFFFFF00000003FFFFFFFFFFFFFFFF18
:1031C000FFFFFFFFFFFFFFFE3FFFFC0000FFFFFFD1
:1031D000FFFFFFFFFFFFFFFC0000FFFFFFFFFFFF00
:1031E000FFFFFE0FFFFFFFFFFFFFFFFFFFFFFFFFE0
:1031F000FFFFFFFFFFFFFFFE3FFFFFFFFFFFFFFFA0
:10320000FFFFFFFF8000000FFFFFFFFFFFFFFFFF3B
:10321000FFFFFFFFFFFFFFFE3FFFFC0001FFFFFF7F
:10322000FFFFFFFFFFFFFFFE0000FFFFFFFFFFFFAD
:10323000FFFFFE0FFFFFFFFFFFFFFFFFFFFFFFFF8F
:10324000FFFFFFFFFFFFFFFE3FFFFFFFFFFFFFFF4F
:10325000FFFFFFFFE000001FFFFFFFFFFFFFFFFF7B
:10326000FFFFFFFFFFFFFFFE3FFFFC0003FFFFFF2D
:10327000FFFFFFFFFFFFFFFF0000FFFFFFFFFFFF5C
:10328000FFFFFE0FFFFFFFFFFFFFFFFFFFFFFFFF3F
:10329000FFFFFFFFFFFFFFFE3FFFFFFFFFFFFFFFFF
:1032A000FFFFFFFFF80000FFFFFFFFFFFFFFFFFF33
:1032B000FFFFFFFFFFFFFFFE3FFFFC0000000000DD
:1032C00000000000000000000000FFFFFFFFFFFF04
:1032D000FFFFFE0FFFFFFFFFFFFFFFFFFFFFFFFFEF
:1032E000FFFFFFFFFFFFFFFE3FFFFFFFFFFFFFFFAF
:1032F000FFFFFFFFFFC00FFFFFFFFFFFFFFFFFFF0D
:10330000FFFFFFFFFFFFFFFE3FFFFC00000000008C
:1033100000000000000000000000FFFFFFFFFFFFB3
:10332000FFFFFE0FFFFFFFFFFFFFFFFFFFFFFFFF9E
:10333000FFFFFFFFFFFFFFFE3FFFFFFFFFFFFFFF5E
:10334000FFFFFFFFFFFFFFFFFFFFFFFFFFFFFFFF8D
:10335000FFFFFFFFFFFFFFFE3FFFFC00000000003C
:1033600000000000000000000000FFFFFFFFFFFF63
:10337000FFFFFE0FFFFFFFFFFFFFFFFFFFFFFFFF4E
:10338000FFFFFFFFFFFFFFFE3FFFFFFFFFFFFFFF0E
:10339000FFFFFFFFFFFFFFFFFFFFFFFFFFFFFFFF3D
:1033A000FFFFFFFFFFFFFFFE3FFFFC0000000000EC
:1033B00000000000000000000000FFFFFFFFFFFF13
:1033C000FFFFFE1FFFFFFFFFFFFFFFFFFFFFFFFFEE
:1033D000FFFFFFFFFFFFFFFE3FFFFFFFFFFFFFFFBE
:1033E000FFFFFFFFFFFFFFFFFFFFFFFFFFFFFFFFED
:1033F000FFFFFFFFFFFFFFFE3FFFFC00000000009C
:1034000000000000000000000000FFFFFFFFFFFFC2
:10341000FFFFFFFFFFFFFFFFFFFFFFFFFFFFFFFFBC
:10342000FFFFFFFFFFFFFFFE3FFFFFFFFFFFFFFF6D
:10343000FFFFFFFFFFFFFFFFFFFFFFFFFFFFFFFF9C
:10344000FFFFFFFFFFFFFFFE3FFFFC00000000004B
:1034500000000000000000000000FFFFFFFFFFFF72
:10346000FFFFFFFFFFFFFFFFFFFFFFFFFFFFFFFF6C
:10347000FFFFFFFFFFFFFFFE3FFFFFFFFFFFFFFF1D
:10348000FFFFFFFFFFFFFFFFFFFFFFFFFFFFFFFF4C
:10349000FFFFFFFFFFFFFFFE3FFFFE0000000000F9
:1034A00000000000000000000001FFFFFFFFFFFF21
:1034B000FFFFFFFFFFFFFFFFFFFFFFFFFFFFFFFF1C
:1034C000FFFFFFFFFFFFFFFE3FFFFFFFFFFFFFFFCD
:1034D000FFFFFFFFFFFFFFFFFFFFFFFFFFFFFFFFFC
:1034E000FFFFFFFFFFFFFFFE3FFFFE0000000000A9
:1034F00000000000000000000001FFFFFFFFFFFFD1
:10350000FFFFFFFFFFFFFFFFFFFFFFFFFFFFFFFFCB
:10351000FFFFFFFFFFFFFFFE3FFFFFFFFFFFFFFF7C
:10352000FFFFFFFFFFFFFFFFFFFFFFFFFFFFFFFFAB
:10353000FFFFFFFFFFFFFFFE3FFFFF8000000000D7
:1035400000000000000000000007FFFFFFFFFFFF7A
:10355000FFFFFFFFFFFFFFFFFFFFFFFFFFFFFFFF7B
:10356000FFFFFFFFFFFFFFFE3FFFFFFFFFFFFFFF2C
:10357000FFFFFFFFFFFFFFFFFFFFFFFFFFFFFFFF5B
:10358000FFFFFFFFFFFFFFFE3FFFFFFFFFFFFFFF0C
:10359000FFFFFFFFFFFFFFFFFFFFFFFFFFFFFFFF3B
:1035A000FFFFFFFFFFFFFFFFFFFFFFFFFFFFFFFF2B
:1035B000FFFFFFFFFFFFFFFE3FFFFFFFFFFFFFFFDC
:1035C000FFFFFFFFFFFFFFFFFFFFFFFFFFFFFFFF0B
:1035D000FFFFFFFFFFFFFFFE3FFFFFFFFFFFFFFFBC
:1035E000FFFFFFFFFFFFFFFFFFFFFFFFFFFFFFFFEB
:1035F000FFFFFFFFFFFFFFFFFFFFFFFFFFFFFFFFDB
:10360000FFFFFFFFFFFFFFFE3FFFFFFFFFFFFFFF8B
:10361000FFFFFFFFFFFFFFFFFFFFFFFFFFFFFFFFBA
:10362000FFFFFFFFFFFFFFFE3FFFFFFFFFFFFFFF6B
:10363000FFFFFFFFFFFFFFFFFFFFFFFFFFFFFFFF9A
:10364000FFFFFFFFFFFFFFFFFFFFFFFFFFFFFFFF8A
:10365000FFFFFFFFFFFFFFFE3FFFFFFFFFFFFFFF3B
:10366000FFFFFFFFFFFFFFFFFFFFFFFFFFFFFFFF6A
:10367000FFFFFFFFFFFFFFFE3FFFFFFFFFFFFFFF1B
:10368000FFFFFFFFFFFFFFFFFFFFFFFFFFFFFFFF4A
:10369000FFFFFFFFFFFFFFFFFFFFFFFFFFFFFFFF3A
:1036A000FFFFFFFFFFFFFFFE3FFFFFFFFFFFFFFFEB
:1036B000FFFFFFFFFFFFFFFFFFFFFFFFFFFFFFFF1A
:1036C000FFFFFFFFFFFFFFFE3FFFFFFFFFFFFFFFCB
:1036D000FFFFFFFFFFFFFFFFFFFFFFFFFFFFFFFFFA
:1036E000FFFFFFFFFFFFFFFFFFFFFFFFFFFFFFFFEA
:1036F000FFFFFFFFFFFFFFFE3FFFFFFFFFFFFFFF9B
:10370000FFFFFFFFFFFFFFFFFFFFFFFFFFFFFFFFC9
:10371000FFFFFFFFFFFFFFFE3FFFFFFFFFFFFFFF7A
:10372000FFFFFFFFFFFFFFFFFFFFFFFFFFFFFFFFA9
:10373000FFFFFFFFFFFFFFFFFFFFFFFFFFFFFFFF99
:10374000FFFFFFFFFFFFFFFE3FFFFFFFFFFFFFFF4A
:10375000FFFFFFFFFFFFFFFFFFFFFFFFFFFFFFFF79
:10376000FFFFFFFFFFFFFFFE3FFFFFFFFFFFFFFF2A
:10377000FFFFFFFFFFFFFFFFFFFFFFFFFFFFFFFF59
:10378000FFFFFFFFFFFFFFFFFFFFFFFFFFFFFFFF49
:10379000FFFFFFFFFFFFFFFE3FFFFFFFFFFFFFFFFA
:1037A000FFFFFFFFFFFFFFFFFFFFFFFFFFFFFFFF29
:1037B000FFFFFFFFFFFFFFFE3FFFFFFFFFFFFFFFDA
:1037C000FFFFFFFFFFFFFFFFFFFFFFFFFFFFFFFF09
:1037D000FFFFFFFFFFFFFFFFFFFFFFFFFFFFFFFFF9
:1037E000FFFFFFFFFFFFFFFE3FFFFFFFFFFFFFFFAA
:1037F000FFFFFFFFFFFFFFFFFFFFFFFFFFFFFFFFD9
:10380000FFFFFFFFFFFFFFFE3FFFFFFFFFFFFFFF89
:10381000FFFFFFFFFFFFFFFFFFFFFFFFFFFFFFFFB8
:10382000FFFFFFFFFFFFFFFFFFFFFFFFFFFFFFFFA8
:10383000FFFFFFFFFFFFFFFE3FFFFFFFFFFFFFFF59
:10384000FFFFFFFFFFFFFFFFFFFFFFFFFFFFFFFF88
:10385000FFFFFFFFFFFFFFFE3FFFFFFFFFFFFFFF39
:10386000FFFFFFFFFFFFFFFFFFFFFFFF0000000064
:103870000000000000000000000000000000000048
:103880000000000000000000000000000000000038
:103890000000000000000000000000000000000028
:1038A0000000000000000000000000000000000018
:1038B0000000000000000000000000000000000008
:1038C00000000000000000000000000000000000F8
:1038D00000000000000000000000000000000000E8
:1038E00000000000000000000000000000000000D8
:1038F00000000000000000000000000000000000C8
:1039000000000000000000000000000000000000B7
:1039100000000000000000000000000000000000A7
:103920000000000000000000000000000000000097
:103930000000000000000000000000000000000087
:103940000000000000000000000000000000000077
:103950000000000000000000000000000000000067
:103960000000000000000000000000000000000057
:103970000000000000000000000000000000000047
:103980000000000000000000000000000000000037
:103990000000000000000000000000000000000027
:1039A0000000000000000000000000008000000097
:1039B0000000000000000000000000000000000007
:1039C00000000000000000000000000000000000F7
:1039D00000000000000000000000000000000000E7
:1039E00000000000000000000000000000000000D7
:1039F000000000000000000000000000FFFFFFFFCB
:103A0000FFFFFFFFFFFFFFFFFFFFFFFFFFFFFFFFC6
:103A1000FFFFFFFFFFFFFFFFFFFFFFFFFFFFFFFFB6
:103A2000FFFFFFFFFFFFFFFFFFFFFFFFFFFFFFFFA6
:103A3000FFFFFFFFFFFFFFFFFFFFFFFFFFFFFFFF96
:1046D000FFFFFFFFFFFFFFFFFFFFFFFFFF001FFFC9
:1046E000FFFFFFFFFFFFFFFFFFFFFFFFFFFFFFFFDA
:1046F000FFFFFFFFFFFFFFFFFFFFFFFFFFFFFFFFCA
:10470000FFFFFFFFFFFFFFFFFFFFFFFFFFFFFFFFB9
:10471000FFFFFFFFFFFFFFFFFFFFFFFFFFFFFFFFA9
:10472000FFFFFFFFFFFFFFFFFFFFFFFFF00001FFA5
:10473000FFFFFFFFFFFFFFFFFFFFFFFFFFFF000186
:10474000FFFFFFFFFFFFFFFC001FFFFFFFFFFFFF5B
:10475000FFFFFFFFFFFFFFFFFFFFFFFFFFFFFFFF69
:10476000FFFFFFFFFFFFFFFFFFFFFFFFFFFFFFFF59
:10477000FFFFFFFE003FFFFFFFFFFFFF8000003F46
:10478000FFFFFFFFFFFFFFFFFFFFFFFFFFC0000076
:104790000FFFFFFFFFFFFFC00003FFFFFFFFFFFF53
:1047A000FFFFFFFFFFFFFFFFFFFFFFFFFFFFFFFF19
:1047B000FFFFFFFFFFFFFFFFFFFFFFFFFFFFFFFF09
:1047C000FFFFFFF8003FFFFFFFFFFFFE0000000FAD
:1047D000FFFFFFFFFFFFFFFFFFFFFFFFFC000000E9
:1047E00003FFFFFFFFFFFE0000007FFFFFFFFFFF53
:1047F000FFFFFFFFFFFFFFFFFFFFFFFFFFFFFFFFC9
:10480000FFFFFFFFFFFFFFFFFFFFFFFFFFFFFFFFB8
:10481000FFFFFFE0003FFFFFFFFFFFFC0000000382
:10482000FFFFFFFFFFFFFFFFFFFFFFFFF0000000A4
:10483000007FFFFFFFFFF80000001FFFFFFFFFFFEB
:10484000FFFFFFFFFFFFFFFFFFFFFFFFFFFFFFFF78
:10485000FFFFFFFFFFFFFFFFFFFFFFFFFFFFFFFF68
:10486000FFFFFF80003FFFFFFFFFFFF000000001A0
:10487000FFFFFFFFFFFFFFFFFFFFFFFFF000000054
:10488000003FFFFFFFFFF00000000FFFFFFFFFFFF3
:10489000FFFFFFFFFFFFFFFFFFFFFFFFFFFFFFFF28
:1048A000FFFFFFFFFFFFFFFFFFFFFFFFFFFFFFFF18
:1048B000FFFFFE00003FFFFFFFFFFFE000000000E2
:1048C000FFFFFFFFFFFFFFFFFFFFFFFFF000000004
:1048D000000FFFFFFFFFC000000003FFFFFFFFFF0F
:1048E000FFFFFFFFFFFFFFFFFFFFFFFFFFFFFFFFD8
:1048F000FFFFFFFFFFFFFFFFFFFFFFFFFFFFFFFFC8
:10490000FFFFF800003FFFFFFFFFFFC000000000B7
:104910007FFFFFFFFFFFFFFFFFFFFFFFF000000033
:104920000007FFFFFFFF0000000001FFFFFFFFFF88
:10493000FFFFFFFFFFFFFFFFFFFFFFFFFFFFFFFF87
:10494000FFFFFFFFFFFFFFFFFFFFFFFFFFFFFFFF77
:10495000FFFFE000003FFFFFFFFFFF8000000000BF
:104960003FFFFFFFFFFFFFFFFFFFFFFFF000000023
:104970000003FFFFFFFE0000000000FFFFFFFFFF3E
:10498000FFFFFFFFFFFFFFFFFFFFFFFFFFFFFFFF37
:10499000FFFFFFFFFFFFFFFFFFFFFFFFFFFFFFFF27
:1049A000FFFF8000003FFFFFFFFFFF00000000004F
:1049B0001FFFFFFFFFFFFFFFFFFFFFFFF0000000F3
:1049C0000001FFFFFFFC00000000007FFFFFFFFF72
:1049D000FFFFFFFFFFFFFFFFFFFFFE000007FFFFDE
:1049E000FFFE00007FFFFC00007FFFFFFFFFFFFFD7
:1049F000FFFE0000003FFFFFFFFFFE00007F800082
:104A00000FFFFFFFFFFFFFFFFFFFFFFFF0000000B2
:104A10000000FFFFFFF800000000003FFFFFFFFF66
:104A2000FFFFFFFFFFFFFFFFFFFFFE000003FFFF91
:104A3000FFFE00007FFFFC00007FFFFFFFFFFFFF86
:104A4000FFF80000003FFFFFFFFFFC0003FFF00046
:104A50000FFFFFFFFFFFFFFFFFFFFFFFF001FFF072
:104A60000000FFFFFFF00003FE00003FFFFFFFFF1D
:104A7000FFFFFFFFFFFFFFFFFFFFFC000003FFFF43
:104A8000FFFE00003FFFFC00007FFFFFFFFFFFFF76
:104A9000FFE00000003FFFFFFFFFFC0007FFF80002
:104AA00007FFFFFFFFFFFFFFFFFFFFFFF03FFFFFDD
:104AB00000007FFFFFE0001FFFC0001FFFFFFFFFA0
:104AC000FFFFFFFFFFFFFFFFFFFFFC000003FFFFF3
:104AD000FFFE00003FFFFC00007FFFFFFFFFFFFF26
:104AE000FF800000003FFFFFFFFFF8001FFFFE00F8
:104AF00003FFFFFFFFFFFFFFFFFFFFFFF3FFFFFFCE
:104B0000C0007FFFFFF0007FFFE0001FFFFFFFFFFF
:104B1000FFFFFFFFFFFFFFFFFFFFFC000001FFFFA4
:104B2000FFFE00003FFFF800007FFFFFFFFFFFFFD9
:104B3000FE000000003FFFFFFFFFF0003FFFFF000F
:104B400003FFFFFFFFFFFFFFFFFFFFFFFFFFFFFF71
:104B5000E0003FFFFFF801FFFFF8000FFFFFFFFF3E
:104B6000FFFFFFFFFFFFFFFFFFFFF8000001FFFF58
:104B7000FFFE00001FFFF800007FFFFFFFFFFFFFA9
:104B8000F8000008003FFFFFFFFFF0007FFFFF80FD
:104B900001FFFFFFFFFFFFFFFFFFFFFFFFFFFFFF23
:104BA000F0003FFFFFF803FFFFFC000FFFFFFFFFD8
:104BB000FFFFFFFFFFFFFFFFFFFFF8000001FFFF08
:104BC000FFFE00001FFFF800007FFFFFFFFFFFFF59
:104BD000F0000038003FFFFFFFFFE000FFFFFF8015
:104BE00001FFFFFFFFFFFFFFFFFFFFFFFFFFFFFFD3
:104BF000F8003FFFFFFC07FFFFFC0007FFFFFFFF80
:104C0000FFFFFFFFFFFFFFFFFFFFF8000000FFFFB8
:104C1000FFFE00001FFFF000007FFFFFFFFFFFFF10
:104C2000F80000F8003FFFFFFFFFE000FFFFFFC0BC
:104C300000FFFFFFFFFFFFFFFFFFFFFFFFFFFFFF83
:104C4000FC001FFFFFFE0FFFFFFE0007FFFFFFFF3F
:104C5000FFFFFFFFFFFFFFFFFFFFF0000000FFFF70
:104C6000FFFE00001FFFF000007FFFFFFFFFFFFFC0
:104C7000F80003F8003FFFFFFFFFC001FFFFFFE068
:104C800000FFFFFFFFFFFFFFFFFFFFFFFFFFFFFF33
:104C9000FC001FFFFFFF1FFFFFFE0007FFFFFFFFDE
:104CA000FFFFFFFFFFFFFFFFFFFFF0000000FFFF20
:104CB000FFFC00000FFFF000003FFFFFFFFFFFFFC2
:104CC000F80007F8003FFFFFFFFFC001FFFFFFE014
:104CD00000FFFFFFFFFFFFFFFFFFFFFFFFFFFFFFE3
:104CE000FC001FFFFFFF3FFFFFFF0007FFFFFFFF6D
:104CF000FFFFFFFFFFFFFFFFFFFFF0000000FFFFD0
:104D0000FFFC00000FFFE000003FFFFFFFFFFFFF81
:104D1000FC001FF8003FFFFFFFFFC003FFFFFFF095
:104D2000007FFFFFFFFFFFFFFFFFFFFFFFFFFFFF12
:104D3000FE001FFFFFFFFFFFFFFF0003FFFFFFFF5E
:104D4000FFFFFFFFFFFFFFFFFFFFF00000007FFFFF
:104D5000FFFC00000FFFE000003FFFFFFFFFFFFF31
:104D6000FC007FF8003FFFFFFFFF8003FFFFFFF025
:104D7000007FFFFFFFFF03FFFFFFFFFFFFFFFFFFBE
:104D8000FE001FFFFFFFFFFFFFFF0003FFFFFFFF0E
:104D9000FFFFFFFFFFFFFFFFFFFFE00000007FFFBF
:104DA000FFFC000007FFE000003FFFFFFFFFFFFFE9
:104DB000FE01FFF8003FFFFFFFFF8007FFFFFFF846
:104DC000007FFFFFFFFC00FFFFFFFFFFFFFFFFFF74
:104DD000FE001FFFFFFFFFFFFFFF8003FFFFFFFF3E
:104DE000FFFFFFFFFFFFFFFFFFFFE00000007FFF6F
:104DF000FFFC000007FFE000003FFFFFFFFFFFFF99
:104E0000FE07FFF8003FFFFFFFFF8007FFFFFFF8EF
:104E1000003FFFFFFFF0007FFFFFFFFFFFFFFFFFEF
:104E2000FE001FFFFFFFFFFFFFFF8003FFFFFFFFED
:104E3000FFFFFFFFFFFFFFFFFFFFE00000003FFF5E
:104E4000FFFC000007FFC000003FFFFFFFFFFFFF68
:104E5000FF1FFFF8003FFFFFFFFF0007FFFFFFF806
:104E6000003FFFFFFFE0003FFFFFFFFFFFFFFFFFEF
:104E7000FE001FFFFFFFFFFFFFFF8003FFFFFFFF9D
:104E8000FFFFFFFFFFFFFFFFFFFFC00040003FFFEE
:104E9000FFFC000007FFC000003FFFFFFFFFFFFF18
:104EA000FF7FFFF8003FFFFFFFFF000FFFFFFFF84E
:104EB000003FFFFFFFE0001FFFFFFFFFFFFFFFFFBF
:104EC000FE001FFFFFFFFFFFFFFF8003FFFFFFFF4D
:104ED000FFFFFFFFFFFFFFFFFFFFC00040003FFF9E
:104EE000FFFC000003FFC000003FFFFFFFFFFFFFCC
:104EF000FFFFFFF8003FFFFFFFFF000FFFFFFFE096
:104F0000003FFFFFFFC0000FFFFFFFFFFFFFFFFF9E
:104F1000FE001FFFFFFFFFFFFFFF8003FFFFFFFFFC
:104F2000FFFFFFFFFFFFFFFFFFFFC00040001FFF6D
:104F3000FFFC000003FF8000003FFFFFFFFFFFFFBB
:104F4000FFFFFFF8003FFFFFFFFF000FFFFFFFC065
:104F5000001FFFFFFFC0000FFFFFFFFFFFFFFFFF6E
:104F6000FE003FFFFFFFFFFFFFFF8003FFFFFFFF8C
:104F7000FFFFFFFFFFFFFFFFFFFF8000E0001FFFBD
:104F8000FFFC000003FF8000003FFFFFFFFFFFFF6B
:104F9000FFFFFFF8003FFFFFFFFE001FFFFFFF8046
:104FA000001FFFFFFF800007FFFFFFFFFFFFFFFF66
:104FB000FC003FFFFFFFFFFFFFFF8003FFFFFFFF3E
:104FC000FFFFFFFFFFFFFFFFFFFF8000E0001FFF6D
:104FD000FFFC002001FF8008003FFFFFFFFFFFFFF5
:104FE000FFFFFFF8003FFFFFFFFE001FFFFFFE0077
:104FF000001FFFFFFF800007FFFFFFFFFFFFFFFF16
:10500000FC003FFFFFFFFFFFFFFF8003FFFFFFFFED
:10501000FFFFFFFFFFFFFFFFFFFF8000E0001FFF1C
:10502000FFFC002001FF0008003FFFFFFFFFFFFF24
:10503000FFFFFFF8003FFFFFFFFE001FFFFFFC0028
:10504000001FFFFFFF800007FFFFFFFFFFFFFFFFC5
:10505000FC007FFFFFFFFFFFFFFF8003FFFFFFFF5D
:10506000FFFFFFFFFFFFFFFFFFFF8000E0000FFFDC
:10507000FFFC002001FF0008003FFFFFFFFFFFFFD4
:10508000FFFFFFF8003FFFFFFFFE001FFFFFF800DC
:10509000001FFFFFFF800007FFFFFFFFFFFFFFFF75
:1050A000F8007FFFFFFFFFFFFFFF8007FFFFFFFF0D
:1050B000FFFFFFFFFFFFFFFFFFFF0001F0000FFFFB
:1050C000FFFC003001FF0008003FFFFFFFFFFFFF74
:1050D000FFFFFFF8003FFFFFFFFE001FFFFFE000A4
:1050E000001FFFFFFF800007FFFFFFFFFFFFFFFF25
:1050F000F8007FFFFFFFFFFFFFFF0007FFFFFFFF3D
:10510000FFFFFFFFFFFFFFFFFFFF0001F0000FFFAA
:10511000FFFC003000FF0018003FFFFFFFFFFFFF14
:10512000FFFFFFF8003FFFFFFFFE001FFFFFC00073
:10513000000FFFFFFF800007FFFFFFFFFFFFFFFFE4
:10514000F000FFFFFFFFFFFFFFFF0007FFFFFFFF74
:10515000FFFFFFFFFFFFFFFFFFFF0001F00007FF62
:10516000FFFC003000FE0018003FFFFFFFFFFFFFC5
:10517000FFFFFFF8003FFFFFFFFC003FFFFF800045
:10518000000FFFFFFFC0000FFFFFFFFFFFFFFFFF4C
:10519000E001FFFFFFFFFFFFFFFF0007FFFFFFFF33
:1051A000FFFFFFFFFFFFFFFFFFFE0003F00007FF11
:1051B000FFFC003000FE0018003FFFFFFFFFFFFF75
:1051C000FFFFFFF8003FFFFFFFFC003FFFFE000076
:1051D000000FFFFFFFC0000FFFFFFFFFFFFFFFFFFC
:1051E000C003FFFFFFFFFFFFFFFE000FFFFFFFFFFA
:1051F000FFFFFFFFFFFFFFFFFFFE0003F80007FFB9
:10520000FFFC0038007E0038003FFFFFFFFFFFFF7C
:10521000FFFFFFF8003FFFFFFFFC003FFFFC000126
:10522000000FFFFFFFE0001FFFFFFFFFFFFFFFFF7B
:105230000007FFFFFFFFFFFFFFFE000FFFFFFFFF65
:10524000FFFFFFFFFFFFFFFFFFFE0003F80007FF68
:10525000FFFC0038007C0038003FFFFFFFFFFFFF2E
:10526000FFFFFFF8003FFFFFFFFC003FFFF00007DC
:10527000000FFFFFFFE0001FFFFFFFFFFFFFFFFC2E
:10528000000FFFFFFFFFFFFFFFFE000FFFFFFFFF0D
:10529000FFFFFFFFFFFFFFFFFFFC0003F80003FF1E
:1052A000FFF80038007C0038001FFFFFFFFFFFFF02
:1052B000FFFFFFF8003FFFFFFFFC003FFFE0000F94
:1052C000000FFFFFFFF0003FFFFFFFFFFFFFFFE0CA
:1052D000001FFFFFFFFFFFFFFFFC001FFFFFFFFF9F
:1052E000FFFFFFFFFFFFFFFFFFFC0007FC0003FFC6
:1052F000FFF80038007C0078001FFFFFFFFFFFFF72
:10530000FFFFFFF8003FFFFFFFFC003FFFC0001F53
:10531000000FFFFFFFFC00FFFFFFFFFFFFF000009B
:10532000003FFFFFFFFFFFFFFFF8001FFFFFFFFF32
:10533000FFFFFFFFFFFFFFFFFFFC0007FC0003FF75
:10534000FFF8003C003C0078001FFFFFFFFFFFFF5D
:10535000FFFFFFF8003FFFFFFFFC003FFF00007F63
:10536000000FFFFFFFFF03FFFFFFFFFFFFF0000045
:1053700000FFFFFFFFFFFFFFFFF8003FFFFFFFFF02
:10538000FFFFFFFFFFFFFFFFFFFC0007FC0001FF27
:10539000FFF8003C00380078001FFFFFFFFFFFFF11
:1053A000FFFFFFF8003FFFFFFFFC003FFE0000FF94
:1053B000000FFFFFFFFFFFFFFFFFFFFFFFF00000F9
:1053C00001FFFFFFFFFFFFFFFFF0003FFFFFFFFFB9
:1053D000FFFFFFFFFFFFFFFFFFF8000FFC0001FFD3
:1053E000FFF8003C003800F8001FFFFFFFFFFFFF41
:1053F000FFFFFFF8003FFFFFFFFC003FFC0001FF45
:10540000000FFFFFFFFFFFFFFFFFFFFFFFF00000A8
:1054100003FFFFFFFFFFFFFFFFE0007FFFFFFFFF36
:10542000FFFFFFFFFFFFFFFFFFF8000FFE0001FF80
:10543000FFF8003E003800FC001FFFFFFFFFFFFFEA
:10544000FFFFFFF8003FFFFFFFFC003FF00007FFFA
:10545000000FFFFFFFFFFFFFFFFFFFFFFFF0000058
:10546000007FFFFFFFFFFFFFFFE000FFFFFFFFFFE9
:10547000FFFFFFFFFFFFFFFFFFF8000FFE0000FF31
:10548000FFF8003E003800FC001FFFFFFFFFFFFF9A
:10549000FFFFFFF8003FFFFFFFFC003FE0000FFFB2
:1054A000000FFFFFFFFFFFFFFFFFFFFFFFF0000008
:1054B000000FFFFFFFFFFFFFFFC000FFFFFFFFFF29
:1054C000FFFFFFFFFFFFFFFFFFF0000FFE0000FFE9
:1054D000FFF8003E001001FC001FFFFFFFFFFFFF71
:1054E000FFFFFFF8003FFFFFFFFC003FC0001FFF72
:1054F000000FFFFFFFFFFFFFFFFFFFFFFFF00000B8
:105500000003FFFFFFFFFFFFFF8001FFFFFFFFFF23
:10551000FFFFFFFFFFFFFFFFFFF0001FFE0000FF88
:10552000FFF8003E001001FC001FFFFFFFFFFFFF20
:10553000FFFFFFF8003FFFFFFFFC003F00007FFF81
:10554000000FFFFFFFFFFFFFFFFFFFFFFFF0000067
:105550000001FFFFFFFFFFFFFF0003FFFFFFFFFF53
:10556000FFFFFFFFFFFFFFFFFFF0001FFF0000FF37
:10557000FFF8003F001001FC001FFFFFFFFFFFFFCF
:10558000FFFFFFF8003FFFFFFFFC003E0000FFFFB2
:10559000000FFFFFFFFFFFFFFFFFFFFFFFF0000017
:1055A0000000FFFFFFFFFFFFFE0003FFFFFFFFFF05
:1055B000FFFFFFFFFFFFFFFFFFE0001FFF00007F77
:1055C000FFF8003F001003FC001FFFFFFFFFFFFF7D
:1055D000FFFFFFF8003FFFFFFFFC003C0001FFFF63
:1055E000000FFFFFFFFFFFFFFFFFFFFFFFFFFFF0C9
:1055F00000007FFFFFFFFFFFFE0007FFFFFFFFFF31
:10560000FFFFFFFFFFFFFFFFFFE0003FFF00007F06
:10561000FFF8003F000003FC001FFFFFFFFFFFFF3C
:10562000FFFFFFF8003FFFFFFFFC00300007FFFF18
:10563000000FFFFFFFFFFFFFFFFFFFFFFFFFFFFF69
:1056400080003FFFFFFFFFFFFC000FFFFFFFFFFF9A
:10565000FFFFFFFFFFFFFFFFFFE0003FFF80007F36
:10566000FFF8003F000003FC001FFFFFFFFFFFFFEC
:10567000FFFFFFF8003FFFFFFFFC0020000FFFFFD0
:10568000000FFFFFFFFFFFFFFFFFFFFFFFFFFFFF19
:10569000E0001FFFFFFFFFFFF8001FFFFFFFFFFFFE
:1056A000FFFFFFFFFFFFFFFFFFE0003FFF80003F26
:1056B000FFF8003F800003FC001FFFFFFFFFFFFF1C
:1056C000FFFFFFF8003FFFFFFFFC0000001FFFFF90
:1056D000000FFFFFFFFFFFFFFFFFFFFFFFFFFFFFC9
:1056E000F8000FFFFFFFFFFFF0003FFFFFFFFFFF8E
:1056F000FFFFFFFFFFFFFFFFFFC0003FFF80003FF6
:10570000FFF8003F800007FC001FFFFFFFFFFFFFC7
:10571000FFFFFFF8003FFFFFFFFC0000007FFFFFDF
:10572000000FFFFFFFFFFFFFFFFFFFFFFFFFFFFF78
:10573000FC0007FFFFFFFFFFE0007FFFFFFFFFFF11
:10574000FFFFFFFFFFFFFFFFFFC0007FFF80003F65
:10575000FFF8003F800007FC001FFFFFFFFFFFFF77
:10576000FFFFFFF8003FFFFFFFFC000000FFFFFE10
:10577000001FFFFFFFFFFFFFFFFFFFFFFFFFFFFF18
:10578000FF0007FFFFFFFFFFC000FFFFFFFFFFFF5E
:10579000FFFFFFFFFFFFFFFFFFC0007FFFC0001FF5
:1057A000FFF8007FC00007FC001FFFFFFFFFFFFFA7
:1057B000FFFFFFF8003FFFFFFFFE000001FFFFFEBD
:1057C000001FFFFFFFFFFFFFFFFFFFFFFFFFFFFFC8
:1057D000FF8003FFFFFFFFFF8000FFFFFFFFFFFFD2
:1057E000FFFFFFFFFFFFFFFFFF80007FFFC0001FE5
:1057F000FFF8007FC0000FFC001FFFFFFFFFFFFF4F
:10580000FFFFFFF8003FFFFFFFFE000007FFFFFE66
:10581000001FFFFFFFFFFFFFFFFFFFFFFFFFFFFF77
:10582000FF8003FFFFFFFFFF0001FFFFFFFFFFFF00
:10583000FFFFFFFFFFFFFFFFFF8000FFFFC0001F14
:10584000FFF8007FC0000FFC001FFFFFFFFFFFFFFE
:10585000FFFFFFF8003FFFFFFFFE00000FFFFFFE0E
:10586000001FFFFFFFFFFFFFFFFFFFFFFFFFFFFF27
:10587000FFC003FFFFFFFFFE0003FFFFFFFFFFFF6F
:10588000FFFFFFFFFFFFFFFFFF8000FFFFC0001FC4
:10589000FFF0007FC0000FFC000FFFFFFFFFFFFFC6
:1058A000FFFFFFF8003FFFFFFFFE00003FFFFFFE8E
:1058B000001FFFFFFFFFFFFFFFFFFFFFFFFFFFFFD7
:1058C000FFC001FFFFFFFFFC0007FFFFFFFFFFFF1F
:1058D000FFFFFFFFFFFFFFFFFF0000FFFFE0000FE4
:1058E000FFF0007FE0001FFC000FFFFFFFFFFFFF46
:1058F000FFFFFFF8003FFFFFFFFE00007FFFFFFEFE
:10590000001FFFFFFFFFFFFFFFFFFFFFFFFFFFFF86
:10591000FFE001FFFFFFFFF8000FFFFFFFFFFFFFAA
:10592000FFFFFFFFFFFFFFFFFF0000FFFFE0000F93
:10593000FFF0007FE0001FFC000FFFFFFFFFFFFFF5
:10594000FFFFFFF8003FFFFFFFFE0000FFFFFFFC2F
:10595000003FFFFFFFFFFFFFFFFFFFFFFFFFFFFF16
:10596000FFE001FFFFFFFFF0001FFFFFFFFFFFFF52
:10597000FFFFFFFFFFFFFFFFFF0001FFFFE0000F42
:10598000FFF0007FE0001FFC000FFFFFFFFFFFFFA5
:10599000FFFFFFF8003FFFFFFFFF0003FFFFFFFCDB
:1059A000003FFFFFFFFFFFFFFFFFFFFFFFFFFFFFC6
:1059B000FFE001FFFFFFFFE0003FFFFFFFFFFFFFF2
:1059C000FFFFFFFFFFFFFFFFFF0001FFFFF00007EA
:1059D000FFF0007FE0003FFC000FFFFFFFFFFFFF35
:1059E000FFFFFFF8003FFFFFFFFF0007FFFFFFFC87
:1059F000003FFFFFFFFFFFFFFFFFFFFFFFFFFFFF76
:105A0000FFE001FFFFFFFFC0007FFFFFFFFFFFFF81
:105A1000FFFFFFFFFFFFFFFFFE0001FFFFF000079A
:105A2000FFF0007FF0003FFC000FFFFFFFFFFFFFD4
:105A3000FFFFFFF8003FFFFFFFFF0007FFFFFFFC36
:105A4000003FFFFFFFFFFFFFFFFFFFFFFFFFFFFF25
:105A5000FFE001FFFFFFFF8000FFFFFFFFFFFFFFF1
:105A6000FFFFFFFFFFFFFFFFFE0003FFFFF0000748
:105A7000FFF0007FF0003FFC000FFFFFFFFFFFFF84
:105A8000FFFFFFF8003FFFFFFFFF0007FFFFFFF8EA
:105A9000007FFFFFFFFFFFFFFFFFFFFFFFFFFFFF95
:105AA000FFE001FFFFFFFF0001FFFFFFFFFFFFFF20
:105AB000FFFFFFFFFFFFFFFFFE0003FFFFF00007F8
:105AC000FFF0007FF0007FFC000FFFFFFFFFFFFFF4
:105AD000FFFFFFF8003FFFFFFFFF8007FFFFFFF81A
:105AE000007FFFFFFFFFFFFFFFFFFFFFFFFFFFFF45
:105AF000FFE001FFFFFFFE0003FFFFFFFFFFFFFFCF
:105B0000FFFFFFFFFFFFFFFFFC000000000000039E
:105B1000FFF0007FF8007FFC000FFFFFFFFFFFFF9B
:105B2000FFFFFFF8003FFFFFFFFF8003FFFFFFF0D5
:105B3000007FFFFFFFFFFFFFFFFFFFFFFFFFFFFFF4
:105B4000FFE001FFFFFFFC0007FFFFFFFFFFFFFF7C
:105B5000FFFFFFFFFFFFFFFFFC000000000000034E
:105B6000FFF0007FF8007FFC000FFFFFFFFFFFFF4B
:105B7000FFFFFFF8003FFFFFFFFF8003FFFFFFF085
:105B800000FFFFFFFFFFFFFFFFFFFFFFFFFFFFFF24
:105B9000FFC003FFFFFFF8000FFFFFFFFFFFFFFF46
:105BA000FFFFFFFFFFFFFFFFFC00000000000003FE
:105BB000FFF0007FF8007FFC000FFFFFFFFFFFFFFB
:105BC000FFFFFFF8003FFFFFFFFFC001FFFFFFF0F7
:105BD00000FFFFFFFFFFFFFFFFFFFFFFFFFFFFFFD4
:105BE000FFC003FFFFFFF0001FFFFFFFFFFFFFFFEE
:105BF000FFFFFFFFFFFFFFFFF800000000000001B4
:105C0000FFF0007FF800FFFC000FFFFFFFFFFFFF2A
:105C1000FFFFFFF8003FFFFFFFFFC001FFFFFFE0B6
:105C200000FFFFFFFFFF03FFFFFFFFFFFFFFFFFF7F
:105C3000FFC003FFFFFFE0003FFFFFFFFFFFFFFF8D
:105C4000FFFFFFFFFFFFFFFFF80000000000000163
:105C5000FFF0007FFC00FFFC000FFFFFFFFFFFFFD6
:105C6000FFFFFFF8003FFFFFFFFFC000FFFFFFC087
:105C700001FFFFFFFFFC00FFFFFFFFFFFFFFFFFF34
:105C8000FF8003FFFFFFC0007FFFFFFFFFFFFFFF5D
:105C9000FFFFFFFFFFFFFFFFF80000000000000113
:105CA000FFF0007FFFFFFFFE000FFFFFFFFFFFFF82
:105CB000FFFFFFF8003FFFFFFFFFE000FFFFFFC017
:105CC00001FFFFFFFFF0007FFFFFFFFFFFFFFFFF70
:105CD000FF8007FFFFFF8000FFFFFFFFFFFFFFFFC9
:105CE000FFFFFFFFFFFFFFFFF800000000000000C4
:105CF000FFF0007FFFFFFFFE000FFFFFFFFFFFFF32
:105D0000FFFFFFF8003FFFFFFFFFE0007FFFFF8086
:105D100003FFFFFFFFE0003FFFFFFFFFFFFFFFFF6D
:105D2000FF0007FFFFFF0001FFFFFFFFFFFFFFFF77
:105D3000FFFFFFFFFFFFFFFFF0000000000000007B
:105D4000FFF0007FFFFFFFFE000FFFFFFFFFFFFFE1
:105D5000FFFFFFF8003FFFFFFFFFF0003FFFFF00E6
:105D600003FFFFFFFFE0001FFFFFFFFFFFFFFFFF3D
:105D7000FE000FFFFFFE0003FFFFFFFFFFFFFFFF1F
:105D8000FFFFFFFFFFFFFFFFF0000000000000002B
:105D9000FFF0007FFFFFFFFE000FFFFFFFFFFFFF91
:105DA000FFFFFFF8003FFFFFFFFFF0001FFFFE00B7
:105DB00007FFFFFFFFC0000FFFFFFFFFFFFFFFFF19
:105DC000FC000FFFFFFC0007FFFFFFFFFFFFFFFFCF
:105DD000FFFFFFFFFFFFFFFFF000000000000000DB
:105DE000FFF0007FFFFFFFFE000FFFFFFFFFFFFF41
:105DF000FFFFFFF8003FFFFFFFFFF8000FFFF80075
:105E00000FFFFFFFFFC0000FFFFFFFFFFFFFFFFFC0
:105E1000F0001FFFFFF8000FFFFFFFFFFFFFFFFF76
:105E2000FFFFFFFFFFFFFFFFE0000000000000009A
:105E30007FF0007FFFFFFFFE000FFFFFFFFFFFFF70
:105E4000FFFFFFF8003FFFFFFFFFFC0003FFF00034
:105E50000FFFFFFFFF800007FFFFFFFFFFFFFFFFB8
:105E6000C0003FFFFFF0001FFFFFFFFFFFFFFFFF2E
:105E7000FFFFFFFFFFFFFFFFE0000000000000004A
:105E80007FE0007FFFFFFFFE0007FFFFFFFFFFFF38
:105E9000FE00000000000007FFFFFC00007F800004
:105EA0001FFFFFFFFF800007FFFFFFFFCFFFFFFF88
:105EB00000003FFFFFE00000000000001FFFFFFFA9
:105EC000FFFFFFFFFFFFFFFFE000000000000000FA
:105ED0007FE0007FFFFFFFFE0007FFFFFFFFFFFFE8
:105EE000FE00000000000007FFFFFE0000000000B1
:105EF0003FFFFFFFFF800007FFFFFFFFC01FFFE026
:105F000000007FFFFFE00000000000001FFFFFFF18
:105F1000FFFFFFFFFFFFFFFFC0003FFFFFFF00008D
:105F20003FE0007FFFFFFFFE0007FFFFFFFFFFFFD7
:105F3000FE00000000000007FFFFFF00000000005F
:105F40007FFFFFFFFF800007FFFFFFFFC000000093
:105F50000000FFFFFFE00000000000001FFFFFFF48
:105F6000FFFFFFFFFFFFFFFFC0003FFFFFFF8000BD
:105F70003FE0007FFFFFFFFE0007FFFFFFFFFFFF87
:105F8000FE00000000000007FFFFFF80000000008F
:105F9000FFFFFFFFFF800007FFFFFFFFC0000000C3
:105FA0000001FFFFFFE00000000000001FFFFFFFF7
:105FB000FFFFFFFFFFFFFFFFC0003FFFFFFF80006D
:105FC0003FE0007FFFFFFFFE0007FFFFFFFFFFFF37
:105FD000FE00000000000007FFFFFFC000000001FE
:105FE000FFFFFFFFFF800007FFFFFFFFC000000073
:105FF0000003FFFFFFE00000000000001FFFFFFFA5
:10600000FFFFFFFFFFFFFFFFC0007FFFFFFF8000DC
:106010001FE0007FFFFFFFFE0007FFFFFFFFFFFF06
:10602000FE00000000000007FFFFFFE0000000038B
:10603000FFFFFFFFFFC0000FFFFFFFFFC0000000DA
:10604000000FFFFFFFE00000000000001FFFFFFF48
:10605000FFFFFFFFFFFFFFFF80007FFFFFFF8000CC
:106060001FE0007FFFFFFFFE0007FFFFFFFFFFFFB6
:10607000FE00000000000007FFFFFFF00000000727
:10608000FFFFFFFFFFC0000FFFFFFFFFC00000008A
:10609000001FFFFFFFE00000000000001FFFFFFFE8
:1060A000FFFFFFFFFFFFFFFF80007FFFFFFFC0003C
:1060B0001FE000FFFFFFFFFE0007FFFFFFFFFFFFE6
:1060C000FE00000000000007FFFFFFFC0000001FB3
:1060D000FFFFFFFFFFE0001FFFFFFFFFC00000000A
:1060E000007FFFFFFFE00000000000001FFFFFFF38
:1060F000FFFFFFFFFFFFFFFF8000FFFFFFFFC0006C
:106100001FE000FFFFFFFFFE0007FFFFFFFFFFFF95
:10611000FE00000000000007FFFFFFFF0000007FFF
:10612000FFFFFFFFFFE0001FFFFFFFFFC0000000B9
:1061300003FFFFFFFFE00000000000001FFFFFFF64
:10614000FFFFFFFFFFFFFFFF0000FFFFFFFFC0009B
:106150000FE000FFFFFFFFFE0007FFFFFFFFFFFF55
:10616000FE00000000000007FFFFFFFFE00003FF4C
:10617000FFFFFFFFFFF0003FFFFFFFFFC000000039
:106180000FFFFFFFFFE00000000000001FFFFFFF08
:10619000FFFFFFFFFFFFFFFF0000FFFFFFFFC0004B
:1061A0000FE000FFFFFFFFFE0007FFFFFFFFFFFF05
:1061B000FE00000000000007FFFFFFFFFE003FFFA2
:1061C000FFFFFFFFFFFC00FFFFFFFFFFF0000000ED
:1061D000FFFFFFFFFFE00000000000001FFFFFFFC8
:1061E000FFFFFFFFFFFFFFFF0001FFFFFFFFE000DA
:1061F0000FE000FFFFFFFFFE0007FFFFFFFFFFFFB5
:10620000FFFFFFFFFFFFFFFFFFFFFFFFFFFFFFFF9E
:10621000FFFFFFFFFFFF03FFFFFFFFFFFFC0001FA8
:10622000FFFFFFFFFFFFFFFFFFFFFFFFFFFFFFFF7E
:10623000FFFFFFFFFFFFFFFE0001FFFFFFFFE0008A
:1062400007E000FFFFFFFFFE0007FFFFFFFFFFFF6C
:10625000FFFFFFFFFFFFFFFFFFFFFFFFFFFFFFFF4E
:10626000FFFFFFFFFFFFFFFFFFFFFFFFFFFFFFFF3E
:10627000FFFFFFFFFFFFFFFFFFFFFFFFFFFFFFFF2E
:10628000FFFFFFFFFFFFFFFE0001FFFFFFFFE0003A
:1062900007E000FFFFFFFFFE0007FFFFFFFFFFFF1C
:1062A000FFFFFFFFFFFFFFFFFFFFFFFFFFFFFFFFFE
:1062B000FFFFFFFFFFFFFFFFFFFFFFFFFFFFFFFFEE
:1062C000FFFFFFFFFFFFFFFFFFFFFFFFFFFFFFFFDE
:1062D000FFFFFFFFFFFFFFFE0001FFFFFFFFF000DA
:1062E00007E000FFFFFFFFFE0007FFFFFFFFFFFFCC
:1062F000FFFFFFFFFFFFFFFFFFFFFFFFFFFFFFFFAE
:10630000FFFFFFFFFFFFFFFFFFFFFFFFFFFFFFFF9D
:10631000FFFFFFFFFFFFFFFFFFFFFFFFFFFFFFFF8D
:10632000FFFFFFFFFFFFFFFE0003FFFFFFFFF00087
:1063300007E000FFFFFFFFFE0007FFFFFFFFFFFF7B
:10634000FFFFFFFFFFFFFFFFFFFFFFFFFFFFFFFF5D
:10635000FFFFFFFFFFFFFFFFFFFFFFFFFFFFFFFF4D
:10636000FFFFFFFFFFFFFFFFFFFFFFFFFFFFFFFF3D
:10637000FFFFFFFFFFFFFFFC0003FFFFFFFFF00039
:1063800003E000FFFFFFFFFE0007FFFFFFFFFFFF2F
:10639000FFFFFFFFFFFFFFFFFFFFFFFFFFFFFFFF0D
:1063A000FFFFFFFFFFFFFFFFFFFFFFFFFFFFFFFFFD
:1063B000FFFFFFFFFFFFFFFFFFFFFFFFFFFFFFFFED
:1063C000FFFFFFFFFFFFFFFC0003FFFFFFFFF000E9
:1063D00003E000FFFFFFFFFE0007FFFFFFFFFFFFDF
:1063E000FFFFFFFFFFFFFFFFFFFFFFFFFFFFFFFFBD
:1063F000FFFFFFFFFFFFFFFFFFFFFFFFFFFFFFFFAD
:10640000FFFFFFFFFFFFFFFFFFFFFFFFFFFFFFFF9C
:10641000FFFFFFFFFFFFFFFC0007FFFFFFFFF8008C
:1064200003E000FFFFFFFFFE0007FFFFFFFFFFFF8E
:10643000FFFFFFFFFFFFFFFFFFFFFFFFFFFFFFFF6C
:10644000FFFFFFFFFFFFFFFFFFFFFFFFFFFFFFFF5C
:10645000FFFFFFFFFFFFFFFFFFFFFFFFFFFFFFFF4C
:10646000FFFFFFFFFFFFFFFFFFFFFFFFFFFFFFFF3C
:106CE000FFFFFFFFFFFFFFFFFFFFFFFF00000000B0
:106CF0000000000000000000000000000000000094
:106D00000000000000000000000000000000000083
:106D10000000000000000000000000000000000073
:106D20000000000000000000000000000000000063
:106D30000000000000000000000000000000000053
:106D40000000000000000000000000000000000043
:106D50000000000000000000000000000000000033
:106D60000000000000000000000000000000000023
:106D70000000000000000000000000000000000013
:106D80000000000000000000000000000000000003
:106D900000000000000000000000000000000000F3
:106DA00000000000000000000000000000000000E3
:106DB00000000000000000000000000000000000D3
:106DC00000000000000000000000000000000000C3
:106DD00000000000000000000000000000000000B3
:106DE00000000000000000000000000000000000A3
:106DF0000000000000000000000000000000000093
:106E00000000000000000000000000000000000082
:106E10000000000000000000000000000000000072
:106E20000000000000000000000000000000000062
:106E30000000000000000000000000000000000052
:106E40000000000000000000000000000000000042
:106E50000000000000000000000000000000000032
:106E60000000000000000000000000000000000022
:106E70000000000000000000000000000000000012
:106E80000000000000000000000000000000000002
:106E900000000000000000000000000000000000F2
:106EA00000000000000000000000000000000000E2
:106EB00000000000000000000000000000000000D2
:106EC00000000000000000000000000001FFFFFFC4
:106ED000FFFFFFFFF00000000000000000000000C6
:106EE00000000000000000000000000000000000A2
:106EF0000000000000000000000000000000000092
:106F00000000000000000000000000000000000081
:106F100000000000000000000000000001FFFFFF73
:106F2000FFFFFFFFFF8000000000000000000000E6
:106F30000000000000000000000000000000000051
:106F40000000000000000000000000000000000041
:106F50000000000000000000000000000000000031
:106F600000000000000000000000000001FFFFFF23
:106F7000FFFFFFFFFFF8000000000000000000001E
:106F80000000000000000000000000000000000001
:106F900000000000000000000000000000000000F1
:106FA00000000000000000000000000000000000E1
:106FB00000000000000000000000000001FFFFFFD3
:106FC000FFFFFFFFFFFE00000000000000000000C8
:106FD00000000000000000000000000000000000B1
