:100000000C9463000C94680D0C94410D0C94E70D56
:100010000C94E70D0C94E70D0C948B000C948B0062
:100020000C948B000C948B000C948B000C948B0024
:100030000C948B000C948B000C948B000C948B0014
:100040000C94F70C0C948B000C94B50D0C948F0D44
:100050000C948B000C948B000C948B000C948B00F4
:100060000C945F0E0C948B0000000000240027000D
:100070002A0000000008000201000003040700003D
:1000800000000000000000000000250028002B00F8
:10009000010204081020408001020408102001021F
:1000A000040810200000000023002600290004049A
:1000B0000404040404040202020202020303030310
:1000C00003037E0F751A11241FBECFEFD8E0DEBFE9
:1000D000CDBF11E0A0E0B1E0E6E3FBE302C0059094
:1000E0000D92AC37B107D9F724E0ACE7B1E001C01D
:1000F0001D92A235B207E1F710E0C2E6D0E004C0DD
:100100002197FE010E94631CC136D107C9F70E94E6
:10011000F9100C948E1D0C940000833081F028F4AB
:10012000813099F08230A9F008958730A9F08830A5
:10013000C9F08430B1F4809180008F7D03C080913C
:1001400080008F7780938000089584B58F7784BD79
:10015000089584B58F7DFBCF8091B0008F77809319
:10016000B00008958091B0008F7DF9CFCF93DF93D9
:100170004091D0035091D1036091D2037091D30389
:100180002FB7F8948091AB029091AC02A091AD0290
:10019000B091AE022FBF84179507A607B70708F4E2
:1001A0004DC02091CB0330E0F901EE58FF4F849110
:1001B000F901E057FF4FD491F901E255FF4FC49187
:1001C000CC2309F440C081110E948D00EC2FF0E097
:1001D000EE0FFF1FEC55FF4FA591B491EC91ED236D
:1001E00031E020E009F430E0832F922F2091CE03FC
:1001F0002817190619F12FB7F8948091AB02909146
:10020000AC02A091AD02B091AE022FBF2091CC0301
:100210003091CD03820F931FA11DB11D8093D00398
:100220009093D103A093D203B093D3038091CE03D4
:1002300091E089278093CE039093CF038091CE03E2
:10024000DF91CF91089590E080E0D0CF1F93CF93BE
:10025000DF93282F30E0F901EE58FF4F8491F90128
:10026000E057FF4FD491F901E255FF4FC491CC23E1
:10027000A9F0162F81110E948D00EC2FF0E0EE0FF7
:10028000FF1FEA57FF4FA591B4918FB7F894EC91F7
:10029000111108C0D095DE23DC938FBFDF91CF9181
:1002A0001F910895DE2BF8CFCF93DF9390E0FC01F0
:1002B000E057FF4F249182559F4FFC018491882382
:1002C000C9F090E0880F991FFC01E859FF4FA591F4
:1002D000B491FC01EA57FF4FC591D49161110DC053
:1002E0009FB7F8948C91209582238C938881282342
:1002F00028839FBFDF91CF910895623051F49FB75B
:10030000F8943C91822F809583238C93E8812E2B47
:10031000EFCF8FB7F894EC912E2B2C938FBFEACFB1
:100320003FB7F8948091A7029091A802A091A902EA
:10033000B091AA0226B5A89B05C02F3F19F00196DF
:10034000A11DB11D3FBFBA2FA92F982F8827BC012F
:10035000CD01620F711D811D911D42E0660F771F57
:10036000881F991F4A95D1F708958F929F92AF9257
:10037000BF92CF92DF92EF92FF924B015C010E94FD
:1003800090016B017C010E9490016C197D098E091E
:100390009F09683E734081059105A8F321E0821A08
:1003A0009108A108B10888EEC80E83E0D81EE11CB0
:1003B000F11C81149104A104B10429F7FF90EF907E
:1003C000DF90CF90BF90AF909F908F9008958091D5
:1003D0002F0290912E02891B990B0895089508957C
:1003E0000895AF92BF92CF92DF92EF92FF920F9358
:1003F0001F93CF93DF936C017B018B01040F151FBB
:10040000EB015E01AE18BF08C017D10759F0699122
:10041000D601ED91FC910190F081E02DC601099586
:10042000892B79F7C501DF91CF911F910F91FF9033
:10043000EF90DF90CF90BF90AF900895FC01538D67
:10044000448D252F30E0842F90E0821B930B5417AE
:1004500010F0CF96089501970895FC01918D828D3B
:10046000981761F0A28DAE0FBF2FB11D5D968C91D4
:10047000928D9F5F9F73928F90E008958FEF9FEF13
:100480000895FC01918D828D981731F0828DE80FCF
:10049000F11D858D90E008958FEF9FEF0895FC0189
:1004A000918D228D892F90E0805C9F4F821B910956
:1004B0008F73992708958FEF92E00E944F0221E0F9
:1004C000892B09F420E0822F089580E090E0892BA9
:1004D00029F00E945B0281110C9400000895FC0138
:1004E000A48DA80FB92FB11DA35ABF4F2C91848D95
:1004F00090E001968F739927848FA689B7892C93F2
:10050000A089B1898C91837080648C93938D848D44
:10051000981306C00288F389E02D80818F7D808347
:100520000895EF92FF920F931F93CF93DF93EC0107
:1005300081E0888F9B8D8C8D98131AC0E889F9898A
:10054000808185FF15C09FB7F894EE89FF8960838D
:10055000E889F98980818370806480839FBF81E00E
:1005600090E0DF91CF911F910F91FF90EF90089550
:10057000F62E0B8D10E00F5F1F4F0F731127E02E2B
:100580008C8D8E110CC00FB607FCFACFE889F98963
:10059000808185FFF5CFCE010E946F02F1CFEB8DF8
:1005A000EC0FFD2FF11DE35AFF4FF0829FB7F89437
:1005B0000B8FEA89FB8980818062CFCFCF93DF9355
:1005C000EC01888D8823B9F0AA89BB89E889F9896B
:1005D0008C9185FD03C0808186FD0DC00FB607FCA0
:1005E000F7CF8C9185FFF2CF808185FFEDCFCE01D3
:1005F0000E946F02E9CFDF91CF910895209104020C
:10060000309105022817390771F490910202809108
:100610000302981741F0E0910202F0E0EE53FE4F22
:10062000808190E008958FEF9FEF08950895EF92F5
:10063000FF920F931F93CF93DF93DC015C96ED90B5
:10064000FC905D97E114F10479F481E090E0139659
:100650009C938E93129790E080E0DF91CF911F9151
:100660000F91FF90EF9008955196ED91FC91529764
:1006700050968C915097982F90950FB75E962C912D
:100680005E97122F127021FD6095F894208111233E
:1006900019F1282B2083E7012197F1F728E0462F55
:1006A00050E0308160FF1AC0382B3083E70121977A
:1006B000F1F7BA0175956795215089F7112381F0FB
:1006C0008081892380830FBF5C968D919C910197D7
:1006D000F1F781E090E0C1CF2923DCCF3923E5CFCA
:1006E0009081892BEFCF20910402309105022817C9
:1006F000390771F4809103022091020290E0805C3E
:100700009F4F821B910960E470E00E940E1C0895C7
:1007100090E080E0089520910402309105022817AE
:100720003907B9F49091020280910302981789F079
:10073000E0910202F0E0EE53FE4F80812091020230
:1007400030E02F5F3F4F2F7333272093020290E05A
:1007500008958FEF9FEF0895CF92DF92EF92FF926F
:100760000F931F93CF93DF93CDB7DEB729970FB6C3
:10077000F894DEBF0FBECDBF8C010E949001D8015E
:100780001F96CD90DD90ED90FC9052976C197D09ED
:100790008E099F096C3271408105910570F3F894C0
:1007A000F801848195819A8389830184F285E02D03
:1007B0007F012FEFE21AF20A80818F83D8019C918A
:1007C0005396ED91FC91549755968C91992309F489
:1007D00048C09081982B988790818095892389873C
:1007E00089858B8388E08C83588569854F813C811E
:1007F0002B8189819A81D701508347FD252F3A9516
:100800002083262F39F0441F00C0000060830000C1
:1008100000C0F2CF38E04D9160830000019761F78E
:10082000D8015496FC93EE9353974F833C832B83CC
:100830009A83898378940E949001F8016787708B6E
:10084000818B928B29960FB6F894DEBF0FBECDBF79
:10085000DF91CF911F910F91FF90EF90DF90CF909C
:1008600008959081982B9887908180958923898716
:1008700089858D8388E08E83588569854F813E8187
:100880002D8189819A81D701508347FD252F00C092
:1008900000C0208300C000C000C000C000C0608352
:1008A0000000262F3A9541F0441F000000C000C010
:1008B00000C000C000C0E8CF38E04D9100C06083A8
:1008C00000C0019709F7D8015496FC93EE93539713
:1008D0004F833E832D83ACCF20919F01260F33277A
:1008E000331F21323105ECF42091D502FC0190E058
:1008F00080E0243069F082E00895A0919F01219169
:10090000AC0141585E4FA40FB52FB11D2C93019639
:10091000861798F380919F01680F60939F0180E094
:10092000089581E008951092D50281E08093D40269
:100930001092AF0261E082E10E94260161E083E152
:100940000E942601E9EBF0E080818E7F8083808128
:100950008D7F808388E48093B80085E48093BC0019
:100960000895CF93DF9391E090937E018823B9F0AF
:10097000C091B800D091BA008091BC008A7B80936E
:10098000BC0060E082E10E94260160E083E10E94F9
:1009900026010E949304D093BA00C093B800DF915F
:1009A000CF910895CF92DF92EF92FF920F931F9312
:1009B000CF93DF93D091FE0281E0D13208F09CC04A
:1009C000C091FD020E9490016B017C018091D502D3
:1009D00081116CC082E08093D50281E08093D402C3
:1009E0008FEF8093D3021092D202D093D102ADED5B
:1009F000B2E0E1EBF2E080E0D8138DC01092B002DB
:100A00008091B002CC0FC82BC093B0028091AF028E
:100A1000813009F084C01092AF020E9490016B01F6
:100A20007C018091B0028093BB008091D7029091AD
:100A3000D802A091D902B091DA02892B8A2B8B2B94
:100A4000A1F00E9490010091D7021091D80220914C
:100A5000D9023091DA026C197D098E099F090617B7
:100A600017072807390708F442C08091BC0083FDAE
:100A7000D8CF85EC8093BC000E9490016B017C0173
:100A80008091D502823009F44CC08091D3028F3F0F
:100A900009F469C08091D302803209F466C0809164
:100AA000D302803309F463C084E026C08091D7026A
:100AB0009091D802A091D902B091DA02892B8A2BA9
:100AC0008B2B09F483CF0E9490010091D7021091E3
:100AD000D8022091D9023091DA026C197D098E0971
:100AE0009F09061717072807390708F06FCF80916D
:100AF000D6020E94B10485E01092DC021092FE0240
:100B00001092DB02DF91CF911F910F91FF90EF9038
:100B1000DF90CF9008959D9191938F5F6DCF85EE7B
:100B2000A9CF8091D7029091D802A091D902B0911B
:100B3000DA02892B8A2B8B2B09F4A2CF0E94900119
:100B40000091D7021091D8022091D9023091DA0297
:100B50006C197D098E099F090617170728073907A1
:100B600008F08ECFC4CF80E0C7CF82E0C5CF83E04E
:100B7000C3CFE0912E0280912F02E81730F4F0E00D
:100B8000E25FFD4F808190E008958FEF9FEF089521
:100B900090912E0280912F022FEF3FEF981748F48B
:100BA000E92FF0E0E25FFD4F208130E09F5F9093FE
:100BB0002E02C9010895CF92DF92EF92FF920F9318
:100BC0001F93CF93DF937C01CB018A012091DB023D
:100BD000222389F0EB016B01C40ED51ECC15DD0577
:100BE00069F06991D701ED91FC910190F081E02DC0
:100BF000C7010995F3CF642F0E946C04C801DF91EF
:100C0000CF911F910F91FF90EF90DF90CF900895BB
:100C1000CF93DF931F92CDB7DEB769832091DB02BC
:100C20002223F9F02091FE02203258F021E030E03A
:100C3000FC013383228390E080E00F90DF91CF911D
:100C400008958091DC02E82FF0E0E352FD4F998196
:100C500090838F5F8093DC028093FE0281E090E0BE
:100C6000ECCF61E0CE0101960E946C04F7CF90E0DA
:100C700080E008957F928F929F92AF92BF92CF9221
:100C8000DF92EF92FF920F931F93CF93DF938A012E
:100C90009B0165E070E00E940E1C46E1469FF0015A
:100CA000479FF00D1124E052FC4F4281538184177D
:100CB000950708F046C04901AA24BB24782CC12E10
:100CC000D22EE32EFF24BC2DA02F4085442361F0BB
:100CD000849E40011124792C4C9D60011124BD2D6E
:100CE000409FF0011124AF2F56E1569FF001579F0E
:100CF000F00D1124E052FC4FD685E184F284538537
:100D0000D5132DC09C01220F331F820F931F8E0D10
:100D10009F1D26E1269FF001279FF00D1124E05230
:100D2000FC4F2385280F392F311DE9017882C485B6
:100D3000C80FD92FD11DB8832585820F911DFC01C5
:100D4000A083DF91CF911F910F91FF90EF90DF90E3
:100D5000CF90BF90AF909F908F907F900895880F15
:100D6000991F880F991F8E0D9F1D032F1127222772
:100D70003327442349F050E0409FF001419FF00D9C
:100D8000509FF00D11240F2FFC01ED0FF11D00837A
:100D9000C0CFCF93DF93C0EED3E089859A85892BAE
:100DA00019F0CE010E94AC03669684E0CE34D807D9
:100DB000A1F7DF91CF91089597FF0C943A0608951B
:100DC000CF93DF93D0E0C0E040E050E0BA01CE0125
:100DD0000E94DC062196C931D105B1F7DF91CF9190
:100DE0000C94C906DC01ED91FD918081ED91FD919E
:100DF0009081ED91FD916C9163708E2309F0646098
:100E00009F2309F06860EFE0F7E0E60FF11D6595BC
:100E100065956D936D917D918D919D91099423C000
:100E20001AC012C016C010C01EC009C014C013C022
:100E300006C019C009C00DC007C00DC014C0625063
:100E40007040804090400BC06150704080409040A6
:100E500006C06E5F01C06F5F7F4F8F4F9F4F9E93A5
:100E60008E937E936E9308958091A8039091A90329
:100E70000C94F2068091AA039091AB030C94F206B5
:100E80008F929F92AF92BF92CF92DF92EF92FF929A
:100E900030E020E043E75FEF6FEF70E0F901EE0F25
:100EA000FF1FEE0FFF1FEC5CFD4F408351836283F9
:100EB00073832F5F3F4F2931310581F7009721F56B
:100EC00080E09FEFA0E0B0E0809334029093350281
:100ED000A0933602B093370280E09FEFAFEFB0E00F
:100EE0008093400290934102A0934202B093430248
:100EF0008FEF90E0DC0180938C0290938D02A093A1
:100F00008E02B0938F028AC081309105A9F48DECD6
:100F100091EEAFEFB0E08093340290933502A0934E
:100F20003602B09337028093400290934102A0931F
:100F30004202B0934302DFCF8230910571F590E019
:100F400080E042E351EE61EE70E0FC01EE0FFF1F26
:100F5000EE0FFF1FEC5CFD4F408351836283738370
:100F600001968931910589F780E090E0AFEFB0E01C
:100F70008093340290933502A0933602B0933702E7
:100F80008093400290934102A0934202B0934302A7
:100F900080E09FEFA0E0B0E0AECF8330910509F094
:100FA00046C090E080E047E453E66FEF70E0FC015C
:100FB000EE0FFF1FEE0FFF1FEC5CFD4F40835183D0
:100FC0006283738301968931910589F78AE790EAF4
:100FD000AFEFB0E08093340290933502A0933602D5
:100FE000B093370280E095E4AFEFB0E08093400229
:100FF00090934102A0934202B093430280E09CE8A8
:10100000AFEFB0E080938C0290938D02A0938E029C
:10101000B0938F0280E095EAAFEFB0E08093940246
:1010200090939502A0939602B0939702A4C0843047
:101030009105F1F590E080E04DE55DE56DE570E04E
:10104000FC01EE0FFF1FEE0FFF1FEC5CFD4F408316
:1010500051836283738301968931910589F780E01A
:1010600090E0ACE0B0E08093340290933502A0931E
:101070003602B093370281E091E0ADE0B0E08093BA
:10108000400290934102A0934202B093430282E156
:101090009AE0A6E1B0E080938C0290938D02A09339
:1010A0008E02B0938F0286E298E1ADE2B0E0B6CF57
:1010B0008530910591F590E080E042E252E763EEE1
:1010C00070E0FC01EE0FFF1FEE0FFF1FEC5CFD4F09
:1010D000408351836283738301968931910589F737
:1010E0008BE999E9A7E0B0E0809334029093350250
:1010F000A0933602B09337028FEB99EBA6E6B0E0EF
:101100008093400290934102A0934202B093430225
:101110008BE79AEAAEEEB0E0EECE86309105B9F5F7
:1011200020E130E090E080E08D3091056CF52B5FA0
:101130003F4FC22ED12CF12CE12CB601552744276C
:1011400088249C2CAD2CBE2C482959296A297B293E
:10115000422B5D296E297F29FC01EE0FFF1FEE0F48
:10116000FF1FEC5CFD4F40835183628373830196C4
:1011700089319105C9F6FF90EF90DF90CF90BF9035
:10118000AF909F908F90089525503109D2CF87302E
:101190009105F1F590E080E04DE451EC6DE570E0F3
:1011A000FC01EE0FFF1FEE0FFF1FEC5CFD4F4083B5
:1011B00051836283738301968931910589F780E6B3
:1011C0009FEBA8E3B0E08093340290933502A093A4
:1011D0003602B09337028FE39CEAA2E1B0E080933D
:1011E000400290934102A0934202B09343028DE2E9
:1011F00090E4A5E0B0E080938C0290938D02A093E0
:101200008E02B0938F028BE190E3A0E0B0E006CFB6
:101210008830910591F590E080E041EC56EB6FEF5E
:1012200070E0FC01EE0FFF1FEE0FFF1FEC5CFD4FA7
:10123000408351836283738301968931910589F7D5
:1012400084EB99E6AFEFB0E08093340290933502DF
:10125000A0933602B093370283E994E1AFEFB0E098
:101260008093400290934102A0934202B0934302C4
:1012700085E895E1A7ECB0E03ECE8930910509F014
:101280001DC18FE29FEFADEAB0E0809334029093EE
:101290003502A0933602B093370280E09FEFAFE7AC
:1012A000B0E08093380290933902A0933A02B09351
:1012B0003B0280E09CEFACE7B0E080933C0290936F
:1012C0003D02A0933E02B0933F0280E09FEFA0E07A
:1012D000B0E08093400290934102A0934202B09309
:1012E000430282E39DECA2E3B0E08093440290933A
:1012F0004502A0934602B093470288E99BEFA8E914
:10130000B0E08093480290934902A0934A02B093C0
:101310004B0280E99EEEA0E9B0E080934C029093EE
:101320004D02A0934E02B0934F028AE99AEFA0E0DB
:10133000B0E08093500290935102A0935202B09378
:1013400053028FE79FEFA0E0B0E0809354029093A8
:101350005502A0935602B09357028093580290937F
:101360005902A0935A02B0935B0281E793EBACE37E
:10137000B0E080935C0290935D02A0935E02B09314
:101380005F0287E59BE8AEE2B0E080936002909355
:101390006102A0936202B093630282E29BE8A2E240
:1013A000B0E08093640290936502A0936602B093CC
:1013B000670280E090E8A0E0B0E08093680290933C
:1013C0006902A0936A02B0936B0280E094E6A0E009
:1013D000B0E080936C0290936D02A0936E02B09384
:1013E0006F0282E39DECAAE9B0E0809370029093D3
:1013F0007102A0937202B09373028093740290936F
:101400007502A0937602B093770283E29EE8ABE682
:10141000B0E08093780290937902A0937A02B0931F
:101420007B0280E090E8A0E8B0E080937C0290939B
:101430007D02A0937E02B0937F028FE29BE6A5E53A
:10144000B0E08093800290938102A0938202B093D7
:1014500083028AEA9DECA6E6B0E080938402909332
:101460008502A0938602B09387028FE89CEBAFE8D9
:10147000B0E08093880290938902A0938A02B0938F
:101480008B028AEA92EBA0E2B0E080938C02909308
:101490008D02A0938E02B0938F028BE89BE8A0E0B0
:1014A000B0E08093900290939102A0939202B09347
:1014B000930280E890E8A0E0B0E0B0CD8A309105DA
:1014C00009F021C18FEF9FEFA0E0B0E080933402DC
:1014D00090933502A0933602B0933702809338027E
:1014E00090933902A0933A02B0933B028FEF9FEFA3
:1014F000A0EEB0E080933C0290933D02A0933E02A8
:10150000B0933F028EEE9EEEAFEAB0E080934002D1
:1015100090934102A0934202B09343028AED9FEF61
:10152000AFE7B0E08093440290934502A093460257
:10153000B093470280ED90EEA0E4B0E080934802C3
:1015400090934902A0934A02B0934B028CEC91ED28
:10155000A8E4B0E080934C0290934D02A0934E0219
:10156000B0934F0281ED9EECA0E0B0E0809350027A
:1015700090935102A0935202B093530280EA9EE9E5
:10158000AFE5B0E08093540290935502A0935602C9
:10159000B093570284EB92E8A6E4B0E0809358023F
:1015A00090935902A0935A02B0935B028EED94EC93
:1015B000A0EBB0E080935C0290935D02A0935E028A
:1015C000B0935F0286EE90EEA0EBB0E080936002F5
:1015D00090936102A0936202B093630286EE98ED4D
:1015E000ADEAB0E08093640290936502A093660236
:1015F000B09367028BEE9EECA7E8B0E080936802A0
:1016000090936902A0936A02B0936B028AEF9EECFA
:10161000A7E8B0E080936C0290936D02A0936E02F5
:10162000B0936F028FEF9FEBA0E0B0E08093700269
:1016300090937102A0937202B09373028FEF90E9BE
:10164000AEE1B0E08093740290937502A0937602AD
:10165000B09377028DEE95E9A4E6B0E0809378022E
:1016600090937902A0937A02B0937B028EEE98E673
:10167000ABE7B0E080937C0290937D02A0937E0262
:10168000B0937F0281EE99E6A1E4B0E080938002FE
:1016900090938102A0938202B09383028FEF90E037
:1016A000A0E0B0E08093840290938502A09386022C
:1016B000B09387028DEC90E0A0E0B0E080938802C8
:1016C00090938902A0938A02B0938B028BE890E0FA
:1016D000A0E0B0E080938C0290938D02A0938E02E4
:1016E000B0938F0280E890E0A0E0B0E08093900299
:1016F00090939102A0939202B093930280E799E1B4
:10170000A9E1B0E08BCC8B30910571F590E080E0E1
:1017100040E65FEF6FEF70E0FC01EE0FFF1FEE0F92
:10172000FF1FEC5CFD4F40835183628373830196FE
:101730008931910589F780E097EDAFEFB0E08093B4
:10174000340290933502A0933602B093370280930F
:10175000400290934102A0934202B093430280E082
:101760009FEFAFEFB0E0C7CB8C309105E9F480E399
:101770009FEFA0E3B0E08093340290933502A093F2
:101780003602B093370280E39FEFAFEFB0E0809373
:10179000400290934102A0934202B09343028FEB28
:1017A00090E3AFEBB0E0A7CB0D9771F590E080E050
:1017B00044EB5FEF64EB70E0FC01EE0FFF1FEE0FF8
:1017C000FF1FEC5CFD4F408351836283738301965E
:1017D0008931910589F782E292E2A2EBB0E0809331
:1017E000340290933502A0933602B093370280936F
:1017F000400290934102A0934202B093430280E0E2
:1018000090E0ABE8B0E077CB87ED97E3A7EDB0E0F1
:101810008093340290933502A0933602B09337023E
:1018200087ED9FEFAFEFB0E08093400290934102CD
:10183000A0934202B093430287ED9FEFA7E3B0E08D
:1018400080938C0290938D02A0938E02B0938F02AE
:1018500087ED97E3AFEFB0E0E1CBFC010190002012
:10186000E9F73197AF01481B590BBC018FEF92E0AC
:101870000C94F1018F929F92AF92BF920F931F939E
:10188000CF93DF93CDB7DEB7A1970FB6F894DEBF45
:101890000FBECDBF19A2423008F44AE08E010F5DA1
:1018A0001F4F842E912CB12CA12CA50194010E94D4
:1018B000221CE62FB901CA01EA30F4F4E05DD80138
:1018C000EE938D01232B242B252B79F790E080E0DC
:1018D000109719F0CD010E942D0CA1960FB6F89427
:1018E000DEBF0FBECDBFDF91CF911F910F91BF9093
:1018F000AF909F908F900895E95CE1CFCF92DF92F7
:10190000EF92FF92CF93DF936B017C01F7FE1FC034
:101910006DE28FEF92E00E949102EC01662777273B
:10192000CB016C197D098E099F094AE00E943A0C8F
:10193000C80FD91F81E591E00E942D0C8C0F9D1FCF
:10194000DF91CF91FF90EF90DF90CF9008954AE024
:101950000E943A0CEC01EECFCF93DF93682F70E03A
:1019600090E080E04AE00E943A0CEC0181E591E0D1
:101970000E942D0C8C0F9D1FDF91CF91089585ED56
:101980008093BC008091D7029091D802A091D90297
:10199000B091DA020796A11DB11D23E0B695A79577
:1019A000979587952A95D1F72091BC0024FD03C017
:1019B0001092D50208954091D7025091D8026091BB
:1019C000D9027091DA02452B462B472B69F3009719
:1019D000A105B10541F025E32A95F1F70000019733
:1019E000A109B109E1CF8091D6020C94B1041F92F4
:1019F0000F920FB60F9211242F933F938F939F93C3
:101A0000AF93BF938091AB029091AC02A091AD02D5
:101A1000B091AE023091A60223E0230F2D3758F586
:101A20000196A11DB11D2093A6028093AB02909355
:101A3000AC02A093AD02B093AE028091A702909148
:101A4000A802A091A902B091AA020196A11DB11D00
:101A50008093A7029093A802A093A902B093AA0230
:101A6000BF91AF919F918F913F912F910F900FBE9A
:101A70000F901F90189526E8230F0296A11DB11D07
:101A8000D2CF1F920F920FB60F9211242F933F9334
:101A90004F935F936F937F938F939F93AF93BF9376
:101AA000EF93FF93E0910D01F0910E010995FF91E5
:101AB000EF91BF91AF919F918F917F916F915F91C6
:101AC0004F913F912F910F900FBE0F901F9018953F
:101AD0001F920F920FB60F9211242F933F934F93A3
:101AE0005F936F937F938F939F93AF93BF93EF9386
:101AF000FF93E0910B01F0910C010995FF91EF919B
:101B0000BF91AF919F918F917F916F915F914F9115
:101B10003F912F910F900FBE0F901F9018951F921D
:101B20000F920FB60F9211242F933F934F935F9311
:101B30006F937F938F939F93AF93BF93EF93FF9395
:101B40008FEF92E00E946F02FF91EF91BF91AF91F2
:101B50009F918F917F916F915F914F913F912F91C5
:101B60000F900FBE0F901F9018951F920F920FB6F7
:101B70000F9211242F938F939F93EF93FF93E091F4
:101B80000F03F09110038081E0911503F09116038B
:101B900082FD1BC09081809118038F5F8F7320910D
:101BA0001903821741F0E0911803F0E0E150FD4F76
:101BB000958F80931803FF91EF919F918F912F91B3
:101BC0000F900FBE0F901F9018958081F4CF1F9239
:101BD0000F920FB60F9211242F933F934F935F9361
:101BE0006F937F938F939F93AF93BF93EF93FF93E5
:101BF000E0910402F0910502309749F0A685B7857F
:101C00008585968D91FF14C09C918923A1F4FF9145
:101C1000EF91BF91AF919F918F917F916F915F9164
:101C20004F913F912F910F900FBE0F901F901895DD
:101C30009C91892361F7A389B4899C9185898095BA
:101C400089238C93868997890197F1F7608D718D2F
:101C5000A685B785558538E020E0CB010197F1F7DF
:101C6000822F90E095958795282F4C91452309F078
:101C70002068315091F7868D81FD20958091030277
:101C800090E001968F73992730910202381799F0EE
:101C9000A0910302B0E0AE53BE4F2C938093030299
:101CA000828D938D0197F1F7A389B4898C919589E1
:101CB000892B8C93ACCF868D8160868FF1CF1F925C
:101CC0000F920FB60F9211242F933F934F935F9370
:101CD0006F937F938F939F93AF93BF93EF93FF93F4
:101CE0008091B900887F803609F44AC0F0F58832C7
:101CF00009F4A7C018F5803109F49BC0B8F4882313
:101D000009F4F9C0883009F494C0FF91EF91BF91B4
:101D1000AF919F918F917F916F915F914F913F9183
:101D20002F910F900FBE0F901F901895883109F4D6
:101D300088C0803251F78093D30214C0803409F4F4
:101D40009DC040F48033B9F38833F9F68093D30211
:101D500085ECB0C0803509F485C0883509F496C09B
:101D6000883499F60E94BF0CD0CF883909F48CC012
:101D700038F5883729F050F4883611F0803729F685
:101D800083E08093D5021092C10157C0883809F4CE
:101D90007BC0803919F0803809F0B7CF8091C1013C
:101DA000803208F071C0E091C10181E08E0F809314
:101DB000C1018091BB00F0E0EF55FE4F80833DC034
:101DC000803B39F0E0F4803A09F479C0883A09F0B0
:101DD0009CCF84E08093D5021092A00110929F01C5
:101DE000E0910802F0910902099580919F0181110B
:101DF0000FC081E080939F0110927F0109C0803C59
:101E000009F4A6CF883C09F4A3CF883B09F07DCF25
:101E1000E091A00181E08E0F8093A001F0E0E158F5
:101E2000FE4F80818093BB009091A00180919F0123
:101E300029C08091B0028093BB0085EC8093BC00E8
:101E400064CF9091D2028091D102981758F5E09119
:101E5000D20281E08E0F8093D202F0E0EF54FD4F6A
:101E60008081E9CFE091D20281E08E0F8093D2028F
:101E70008091BB00F0E0EF54FD4F80839091D2023F
:101E80008091D1029817C8F285E8D8CFE091D202AC
:101E900081E08E0F8093D2028091BB00F0E0EF547E
:101EA000FD4F80838091D40281115CCF81E08093CB
:101EB000AF0284EA8093BC001092D50226CF85EC55
:101EC0008093BC001092D5028091C101803230F421
:101ED000E091C101F0E0EF55FE4F10826091C10129
:101EE00070E0E0910602F091070281EA91E0099525
:101EF0001092C1010ACF1092D30234CFCF92DF9259
:101F0000EF92FF920F931F93CF93DF9310920203F0
:101F10001092010388EE93E0A0E0B0E08093030309
:101F200090930403A0930503B09306032FE131E0DF
:101F3000309300032093FF0225EC30E030930C0334
:101F400020930B0324EC30E030930E0320930D0319
:101F500020EC30E03093100320930F0321EC30E0AD
:101F6000309312032093110322EC30E030931403DA
:101F70002093130326EC30E03093160320931503CF
:101F8000109218031092190310921A0310921B0357
:101F900010929F0310929E038093A0039093A1033D
:101FA000A093A203B093A30381E391E090939D03D8
:101FB00080939C03E0EEF3E081E02FEF3FEF92E0AF
:101FC00080831182138212821582148237832683C2
:101FD00010861286118683871486958786871786D2
:101FE000108A118A128A769644E0EE34F40741F79B
:101FF00062E082E00E94540162E083E00E945401AA
:10200000C0EBD0E0FE018491E82FF0E0EE0FFF1F5F
:10201000EC55FF4FA591B491B093D503A093D40391
:1020200032E9E32E30E0F32EF70184918093D80358
:1020300001EB10E0F8019491E92FF0E0EE0FFF1FA3
:10204000EC55FF4F459154915093D7034093D603DD
:1020500063E9C62E60E0D62EF60194919093D903E1
:102060001092DB031092DC031092DD031092DE036A
:10207000EBE3FFE13197F1F72C91282381E009F49C
:1020800080E0FA012081922309F0826024ED33E0A0
:102090008093DA033093A9032093A80384E397E0A5
:1020A00090930C0180930B01809169008C7F81607B
:1020B00080936900E89A61E06093DF033093AB039B
:1020C0002093AA038AE397E090930E0180930D0179
:1020D00090916900937F946090936900E99A82E0FF
:1020E0008093DF0384E08093CB0384EF91E09093AF
:1020F000CD038093CC036093CE031092CF03109254
:10210000D0031092D1031092D2031092D3031092F5
:10211000AF031092AE0388EE93E0A0E0B0E08093AE
:10212000B0039093B103A093B203B093B30383E4DD
:1021300091E09093AD038093AC031092C30310928F
:10214000C2031092C5031092C4031092C7031092E9
:10215000C6031092C9031092C8038091CA038E7FF0
:102160008D7F8093CA0386958170682783E00E94E3
:10217000260161E083E00E945401F601C490C09200
:10218000BC03F8010491E02FF0E0EE0FFF1FEA57C7
:10219000FF4F859194919093BE038093BD0360E0BF
:1021A00082E00E9454018091CA0381FD04C061E075
:1021B00082E00E94260182E08093B803F701E49058
:1021C000E092B903FE01C491EC2FF0E0EE0FFF1F87
:1021D000EC55FF4F859194919093BB038093BA0384
:1021E000DF91CF911F910F91FF90EF90DF90CF90F3
:1021F0000895CF93DF93CDB7DEB728970FB6F89445
:10220000DEBF0FBECDBF789484B5826084BD84B537
:10221000816084BD85B5826085BD85B5816085BDE1
:1022200080916E00816080936E0010928100809199
:102230008100826080938100809181008160809321
:102240008100809180008160809380008091B10046
:1022500084608093B1008091B00081608093B00071
:1022600080917A00846080937A0080917A00826005
:1022700080937A0080917A00816080937A008091C7
:102280007A00806880937A001092C10000EE13E01B
:10229000B5E0EB2EF12CDD24D39482E0C82E8FE044
:1022A00090E00E94691C2FE030E045E050E000978C
:1022B00021F430E020E050E040E0F701E255FF4F2C
:1022C000E491F0E0EE0FFF1FEA57FF4F6591749124
:1022D000F701E057FF4FE491D801DC9211961C9270
:1022E000119713965C934E93129715963C932E93E9
:1022F00014971796FC92EE92169718961C921897C0
:102300001A969C938E9319971B96DC921B971C969A
:102310001C921C971D96CC921D971E96DC921E97C0
:102320001F961D921D921D921C92529754967C935B
:102330006E9353975596EC930E94051D60E08E2D89
:102340000E9454010A5E1F4FBFEFEB1AFB0AEAE03E
:10235000EE16F10409F0A3CF0EE414E070EEE72EC0
:1023600073E0F72ED70116968D919C9197FD08C0CA
:1023700061E00E94540160E0F70186810E9426011D
:1023800081E0D70111968C93B6E1EB0EF11C0E158E
:102390001F0541F7D12CC12C10E000E0E2E0CE1681
:1023A000D10409F433C3F1E0CF16D10409F434C3E6
:1023B000280190E080E030E020E0052C000C660869
:1023C0007708320155244424032E000C440B550B8E
:1023D000542F432F322F2227422A532A642A752A48
:1023E000092E000CAA0BBB0B482A592A6A2A7B2A01
:1023F000B12CA12CB301A201C5010E94DC068FEF14
:10240000A81AB80A99E1A916B104A1F70E94C90651
:102410006AE070E080E090E00E94B5010F5F1F4F1E
:102420000F3F110509F0BACFAFEFCA1ADA0AB3E0CD
:10243000CB16D10409F0B0CF0E94E0061CEFC12EEC
:10244000DD24DA9410E000E080E8782E812C912CD5
:10245000540109311105ACF4B4015527442748292A
:1024600059296A297B29BA2DA92D982D8827482B0F
:10247000592B6A2B7B2BC8010E94DC060430110506
:10248000C4F0472D4819842F90E0B0E0A0E0BC01D3
:10249000552744272224382E492E5A2E42295329C3
:1024A00064297529482B592B6A2B7B2BC6010E9466
:1024B000DC060E94C90661E070E080E090E00E94C6
:1024C000B501EFEF8E1A9E0AAE0ABE0AF1E88F162A
:1024D0009104A104B10409F0BCCF0F5F1F4F8FEF2F
:1024E000C81AD80A0F31110509F0B0CF0E94E006D2
:1024F00090E080E00E94A71A8093980210929802C0
:1025000081E090E00E94A71A8093030180919802D5
:1025100090E00E944007E0910F03F091100382E0E9
:102520008083E0910B03F0910C031082E0910D0386
:10253000F0910E038FEC808310921703E091130348
:10254000F091140386E08083E0911103F09112036F
:10255000808180618083E0911103F091120380817A
:1025600088608083E0911103F0911203808180687C
:102570008083E0911103F091120380818F7D80832D
:102580001092C7031092C6031092C5031092C403A1
:102590001092C3031092C2038DE991E09093C90396
:1025A0008093C8039091B803963108F047C02DEB93
:1025B00030E03093C3032093C2032BE931E0309322
:1025C000C5032093C4032CE231E03093C70320936A
:1025D000C6032091680084E0983048F031E09E30D6
:1025E00008F430E081E001C0880F3A95EAF7822BC9
:1025F000809368002DE630E0983050F02BE630E014
:102600009E3030F02CE630E0963110F030E020E0E3
:102610003093C0032093BF03292F30E0983008F097
:10262000FFC181E001C0880F9A95EAF78093C1034A
:102630008091C8039091C9030197F1F78091C60377
:102640009091C703892B49F1E0910402F0910502B2
:1026500093E0EC3AF90709F1309739F0A389B4898E
:102660009C918589809589238C938091CA038E7F64
:102670008093CA0310920302109202028CEA93E044
:102680009093050280930402E091BF03F091C00390
:1026900080819091C103892B808310922E02109229
:1026A0002F021092DC021092FE020E9493048EEE22
:1026B00091E090930902809308028FEE91E090934D
:1026C00007028093060260E084E10E94540184E5E1
:1026D00091E00E942D0C81E591E00E942D0C8091EB
:1026E00098020E94AC0C7CE0872E912CA12CB12C7E
:1026F000DE011796B887AF8322242394312C8CEA0D
:1027000093E00E947303892B49F08CEA93E00E94C6
:102710008B03682F8FEF92E00E9491028FEF92E07F
:102720000E944F02892B49F08FEF92E00E942D0208
:10273000682F8CEA93E00E9417030E94B6008091F4
:10274000CF03882371F01092CF030E94B60081114D
:1027500074C185E691E00E942D0C81E591E00E9414
:102760002D0C80910A0290910B02019709F09AC0FA
:1027700010920B0210920A0282E1809300011092E3
:10278000310211E010933002109301018DE691E0C7
:102790000E942D0C6091060170E090E080E04AE01C
:1027A0000E943A0C89E791E00E942D0C60919D02F5
:1027B00070E090E080E04AE00E943A0C89E791E006
:1027C0000E942D0C809131020E94AC0C1093DB0210
:1027D00088E68093FD021092DC021092FE0260E017
:1027E0008CE993E00E940806809131021AE0612F83
:1027F0000E94EE1B8295807F682F690F8CE993E021
:102800000E94080680919D02612F0E94EE1B829516
:10281000807F682F690F8CE993E00E940806809101
:102820000601612F0E94EE1B8295807F682F690F41
:102830008CE993E00E94080680910201612F0E94BA
:10284000EE1B8295807F682F690F8CE993E00E94D0
:10285000080680913002612F0E94EE1B8295807FD6
:10286000682F690F8CE993E00E94080680910101AE
:10287000612F0E94EE1B8295807F682F690F8CE983
:1028800093E00E94080680910001612F0E94EE1BD8
:102890008295807F682F690F8CE993E00E9408067B
:1028A0000E94D20480910C0290910D02019779F45C
:1028B00010920D0210920C028091980290E00E94FA
:1028C00040076091980290E080E00E94AF1A8091EA
:1028D000A4029091A5029C012F5F3F4F3093A50267
:1028E0002093A40266E970E00E940E1C892B09F077
:1028F00082C12091A2023091A30281E090E0232BBB
:1029000011F090E080E09093A3028093A20281E016
:102910008093DB0288E68093FD021092DC02109225
:10292000FE0260E08CE993E00E9408060E94D20457
:102930000E9490012B013C018091D5028111ACC015
:1029400081E08093D5028093D4029FEF9093D302CD
:102950001092D20296E09093D1028093B0028091BF
:10296000B002806D8093B0028091AF02813009F097
:1029700077C11092AF020E9490012B013C0180911F
:10298000B0028093BB008091D7029091D802A091B1
:10299000D902B091DA02892B8A2B8B2BA1F00E94ED
:1029A00090010091D7021091D8022091D902309164
:1029B000DA026419750986099709061717072807A7
:1029C000390708F48AC08091BC0083FDD8CF85EC1C
:1029D0008093BC000E9490012B013C018091D502A4
:1029E000813009F43FC18091D202873008F05CC188
:1029F0008091D202A1EBB2E0EEE0F2E090E0981715
:102A000009F470C02D9121939F5FF9CFC80130E088
:102A100020E0512C412CD1CC980190E080E0F9CFFE
:102A20009E3040F42850310981E001C0880F2A957A
:102A3000EAF7FCCD2E503109F7CF80919B0290919F
:102A40009C02181619060CF48CCE8091A00290916D
:102A5000A10201969093A1028093A00263E070E02E
:102A60000E940E1C9093A1028093A0028091A0026C
:102A70009091A102029721F430920B0220920A0257
:102A80008091A0029091A102892B09F06ACE309228
:102A90000B0220920A0265CE8091D7029091D80253
:102AA000A091D902B091DA02892B8A2B8B2B09F4E1
:102AB00043CF0E9490010091D7021091D80220913B
:102AC000D9023091DA026419750986099709061747
:102AD00017072807390708F02FCF8091D6020E94E8
:102AE000B10480E010922E0280932F02882309F413
:102AF000E6C48CE993E00E94C805809331028CE91A
:102B000093E00E94C80580939D028CE993E00E94A7
:102B1000C805809306018CE993E00E94C805809364
:102B200002018CE993E00E94C805809330028CE991
:102B300093E00E94C805809301018CE993E00E9414
:102B4000C8058093000190913102809131029295E5
:102B50009F702AE08F70929F800D11248093310224
:102B600090919D0280919D0292959F708F70929F8F
:102B7000800D112480939D02809106013091060101
:102B800090E044E0959587954A95E1F783703F7012
:102B9000829F300D112430930601809102018770CD
:102BA00080930201809130023091300290E054E035
:102BB000959587955A95E1F783703F70829F300D08
:102BC000112430933002909101018091010192957E
:102BD00091708F70299F800D112480930101909135
:102BE00000018091000192959F708F70929F800DDF
:102BF00011248093000110E000E040E050E0BA01B1
:102C0000C8010E94DC060F5F1F4F09311105A9F7AB
:102C10008091A0029091A1028130910509F446C0F3
:102C2000029709F411C1C0909B02D0909C02B1E0C0
:102C3000CB16D10409F458C1E2E0CE16D10409F054
:102C40007EC08091320290913302181619060CF45E
:102C500076C080E091E090933302809332026FC09F
:102C600085EEB6CE8091D7029091D802A091D9027C
:102C7000B091DA02892B8A2B8B2B09F4AFCE0E94FC
:102C800090010091D7021091D8022091D902309181
:102C9000DA026419750986099709061717072807C4
:102CA000390708F09BCE19CF87E0A4CE8091DF03CF
:102CB000823008F0C7C0F89484ED93E00E94F206D9
:102CC0006091DB037091DC038091DD039091DE0362
:102CD000789424E030E040E050E00E94441C290158
:102CE0003A018091070190910801A0910901B091EA
:102CF0000A01481659066A067B0661F040920701F0
:102D0000509208016092090170920A01CA01B9014A
:102D10000E947E0C80919E0290919F0218161906C7
:102D200034F080E091E090939F0280939E02C30173
:102D3000B201A50194010E94441C60930601809198
:102D40000601863030F080910601DD24D394823173
:102D500008F0D12C80910601882331F08091060182
:102D6000CC24C394853008F0C12C809198028C301B
:102D700008F0C12C0091030110E0109305010093AD
:102D80000401D110A9C36091030170E090E080E0DC
:102D90000E94F31A2DEC3CEC4CE45FE3C11004C03C
:102DA0002AE939E949E15FE30E94591B0E94BD1AF3
:102DB000061B170B109305010093040140E050E03F
:102DC000BA0190E080E00E943A0640E050E0BA018B
:102DD000D11008C0409140025091410260914202DE
:102DE0007091430283E090E00E943A0686E0E5E1BC
:102DF000F1E0DE01119601900D928A95E1F7E091E4
:102E00000601E93108F047C1F0E0E75FF84E0C94A5
:102E1000631CEB184518B918BC18BF18C218CB189A
:102E2000CE18D518DA18E118E418EB184518B918B7
:102E3000BC18BF18C218CB18CE18D518DA18E1186C
:102E4000E418EB18F8943CCF8091DF03823008F04F
:102E500049C0F89484ED93E00E94F2066091DB0390
:102E60007091DC038091DD039091DE03789424E07F
:102E700030E040E050E00E94441C29013A0180917A
:102E8000070190910801A0910901B0910A0148162B
:102E900059066A067B0661F04092070150920801CC
:102EA0006092090170920A01CA01B9010E947E0C68
:102EB00080919E0290919F021816190634F080E0CE
:102EC00091E090939F0280939E02C301B201A501FD
:102ED00094010E94441C862F880F880F680F60930E
:102EE0009D022DCFF894BACF8FEF90E0909305011B
:102EF000809304018091990290919A021816190604
:102F000034F080E091E090939A028093990280914E
:102F1000980290E00E944007809198020E94AC0CB9
:102F200010E000E0F801EE0FFF1FEE0FFF1FEC5C5A
:102F3000FD4F4081518162817381C8010E94DC068E
:102F40000F5F1F4F0931110569F74091340250910D
:102F50003502609136027091370290E080E00E9465
:102F60003A064091400250914102609142027091B4
:102F7000430283E090E00E943A06E0919802F0E07C
:102F80008F010F5F1F4FEC30F10508F034C0E5539F
:102F9000F84E0C94631C3918D7173F1814181A18D8
:102FA000DC171E18241827182D183318361810E0AF
:102FB00000E091E1C92ED12CF601EE0FFF1FEE0FBC
:102FC000FF1FEC5CFD4F4081518162817381C6011E
:102FD0000E94DC060115110571F0F801EE0FFF1FCC
:102FE000EE0FFF1FEC5CFD4F4081518162817381C8
:102FF000C8010E94DC0640918C0250918D026091C4
:103000008E0270918F0286E190E00E943A06409114
:10301000940250919502609196027091970288E116
:1030200090E00E943A068BCE10E000E084E1C82ECA
:10303000D12CC2CF680106E010E0BECF0BE010E05B
:10304000BAE0CB2ED12CB8CF02E010E0B5CF0CE027
:1030500010E0A7E0CA2ED12CAFCF10E000E0F0E1E5
:10306000CF2ED12CA9CF05E110E0F9CF01E110E07E
:10307000F6CF10E000E0E5E1CE2ED12C9DCF10E0A0
:1030800000E07FE0C72ED12C97CF85E190E09A83B6
:1030900089831C821B82CE0101966C018C01D801B0
:1030A0008D919D918D01FC01EE0FFF1FEE0FFF1F13
:1030B000EC5CFD4F40815181628173810E94DC068E
:1030C000EF81F8850E171F0751F740918C02509140
:1030D0008D0260918E0270918F0286E190E00E94D5
:1030E0003A06E0919D021A8219821C821B821E827E
:1030F0001D82E550E73308F079C0F0E0EE57F74E57
:103100000C94631CC919C919C919C919C919F2182C
:10311000F218F218F218F218C519C519C519C5190F
:10312000C519CE19CE19CE19CE19CE19D519D51962
:10313000D519D519D519DC19DC19DC19DC19DC19FC
:10314000E319E319E319E319E319F019F019F01978
:10315000F019F019F319F319F319F319F319F61912
:10316000F619F619F619F619F919F919F919F919DB
:10317000F91981E190E08BCF8FE090E088CF84E176
:1031800090E085CF85E090E09A83898386E090E0A7
:103190009C838B8380CF3A822982F8CF8AE090E0AB
:1031A0009A8389838BE090E0F3CF3A82298282E090
:1031B00090E0EECF87E090E09A8389838CE090E006
:1031C000E7CF80E190E063CF80E190E09A8389834C
:1031D00085E190E0DDCF80E190E09A83898381E111
:1031E00090E0D6CF8EE090E09A838983D6018D91CE
:1031F0009D916D01FC01EE0FFF1FEE0FFF1FEC5CB8
:10320000FD4F40815181628173810E94DC060C1563
:103210001D0561F789819A81892B41F48B819C81FD
:10322000892B21F48D819E81892B61F0409194023C
:1032300050919502609196027091970288E190E01A
:103240000E943A068091A0029091A10281309105DE
:1032500009F4D2C0029709F4E5C080919E029091D2
:103260009F0218161906ECF440919E0250919F029D
:1032700080919E0290919F0250E070E060E0762F76
:10328000652F542F4427682B88E090E00E943A066F
:1032900080919E0290919F020C9790939F02809341
:1032A0009E028091990290919A0218161906A4F430
:1032B0004091990250919A0250E070E060E088E0FD
:1032C00090E00E943A068091990290919A020C97A0
:1032D00090939A02809399028091320290913302E6
:1032E00018161906BCF4409132025091330250E096
:1032F00070E060E0BA015527442788E090E00E9422
:103300003A0680913202909133020C9790933302E7
:1033100080933202C0900401DD24D394DC0C6D2C28
:10332000712C762C6624B1E06B1A710800EE13E064
:10333000F8012085D21609F495C0215009F48DC0FA
:10334000FFEFCF1283C030E050E040E06FEF7FEF3F
:1033500080E090E00E94441CD80119964D915C9148
:10336000FA01D80114966D917C91CF01841B950BC5
:103370008617970708F074C06081629FC001639F41
:10338000900D112490833196ECCF8EE090E09A83DB
:10339000898383E190E09C838B8328CF8DE090E04C
:1033A0009A8389838EE090E0F6CF8DE090E09A8357
:1033B00089838EE090E00DC082E190E09A8389835A
:1033C00087E190E0E8CF82E190E09A83898387E10A
:1033D00090E09C838B8383E190E09E838D8306CF76
:1033E00084E090E0DDCF84E090E0E1CF89E090E000
:1033F000D7CF89E090E0DBCF8091A2029091A30229
:1034000040E050E0BA01019741F440918C025091A4
:103410008D0260918E0270918F0286E190E00E9491
:103420003A061BCF8091A2029091A30240E050E0A7
:10343000BA01019741F44091940250919502609134
:1034400096027091970288E190E0E9CF622F70E0D8
:10345000C3010E94FA1B9B017FCF30E020E07CCFAC
:10346000F801D086D80119968D919C91892B19F07D
:10347000C8010E94AC030A5E1F4F0E151F0509F01C
:1034800057CF8091A0029091A1020197C1F0809145
:10349000A0029091A102029791F080919B029091DD
:1034A0009C02019761F080919B0290919C0202978F
:1034B00031F064E670E080E090E00E94B50180E0C9
:1034C00090E0892B09F41BC90E945B02882309F450
:1034D00013C90E9400000CC940913402509135027A
:1034E00060913602709137026CCCCF93DF9383E406
:1034F00091E09093AD038093AC038091040290918E
:1035000005028C5A934071F4E091BF03F091C0031F
:1035100090818091C1038095892380831092050258
:1035200010920402CEE4D4E0669789859A850E94C1
:10353000051D8E819F8197FD03C060E00E945401AC
:1035400083E0C03ED80781F7DF91CF910895F999C4
:10355000FECF92BD81BDF89A992780B50895262F98
:10356000F999FECF1FBA92BD81BD20BD0FB6F89468
:10357000FA9AF99A0FBE019608950E94C41A6894A7
:10358000B1110C94531B08950E94381B88F09F576B
:1035900098F0B92F9927B751B0F0E1F0660F771F77
:1035A000881F991F1AF0BA95C9F714C0B13091F06D
:1035B0000E94521BB1E008950C94521B672F782F84
:1035C0008827B85F39F0B93FCCF386957795679532
:1035D000B395D9F73EF490958095709561957F4F9E
:1035E0008F4F9F4F0895E89409C097FB3EF4909544
:1035F0008095709561957F4F8F4F9F4F9923A9F0CC
:10360000F92F96E9BB279395F6958795779567955A
:10361000B795F111F8CFFAF4BB0F11F460FF1BC09E
:103620006F5F7F4F8F4F9F4F16C0882311F096E931
:1036300011C0772321F09EE8872F762F05C06623DF
:1036400071F096E8862F70E060E02AF09A95660F98
:10365000771F881FDAF7880F9695879597F9089551
:1036600057FD9058440F551F59F05F3F71F0479533
:10367000880F97FB991F61F09F3F79F08795089518
:10368000121613061406551FF2CF4695F1DF08C037
:10369000161617061806991FF1CF86957105610554
:1036A00008940895E894BB2766277727CB0197F9FC
:1036B00008950E946C1B0C94DD1B0E94CF1B38F0F8
:1036C0000E94D61B20F0952311F00C94C61B0C947D
:1036D000CC1B11240C94531B0E94301B70F3959F3C
:1036E000C1F3950F50E0551F629FF001729FBB27F9
:1036F000F00DB11D639FAA27F00DB11DAA1F649F95
:103700006627B00DA11D661F829F2227B00DA11D47
:10371000621F739FB00DA11D621F839FA00D611DCD
:10372000221F749F3327A00D611D231F849F600DEE
:10373000211D822F762F6A2F11249F5750409AF017
:10374000F1F088234AF0EE0FFF1FBB1F661F771FA3
:10375000881F91505040A9F79E3F510580F00C946E
:10376000C61B0C94531B5F3FE4F3983ED4F386953D
:1037700077956795B795F795E7959F5FC1F7FE2B0E
:10378000880F911D9695879597F9089597F99F67EA
:1037900080E870E060E008959FEF80EC08950024D9
:1037A0000A941616170618060906089500240A94A6
:1037B00012161306140605060895092E0394000C2C
:1037C00011F4882352F0BB0F40F4BF2B11F460FFBB
:1037D00004C06F5F7F4F8F4F9F4F0895991B79E013
:1037E00004C0991F961708F0961B881F7A95C9F791
:1037F00080950895AA1BBB1B51E107C0AA1FBB1FE0
:10380000A617B70710F0A61BB70B881F991F5A956C
:10381000A9F780959095BC01CD01089597FB072EDF
:1038200016F4009407D077FD09D00E94FA1B07FC1C
:1038300005D03EF4909581959F4F089570956195C0
:103840007F4F0895A1E21A2EAA1BBB1BFD010DC0DC
:10385000AA1FBB1FEE1FFF1FA217B307E407F50740
:1038600020F0A21BB30BE40BF50B661F771F881F1C
:10387000991F1A9469F760957095809590959B01B2
:10388000AC01BD01CF010895052E97FB1EF40094F5
:103890000E945B1C57FD07D00E94221C07FC03D02E
:1038A0004EF40C945B1C50954095309521953F4FFC
:1038B0004F4F5F4F089590958095709561957F4F1C
:1038C0008F4F9F4F0895EE0FFF1F0590F491E02D4D
:1038D00009940F931F93CF93DF938230910510F4D7
:1038E00082E090E0E0915004F091510430E020E05B
:1038F000B0E0A0E0309799F42115310509F44AC0F1
:10390000281B390B24303105D8F58A819B8161153C
:10391000710589F1FB0193838283FE0111C040810F
:1039200051810281138148175907E0F04817590760
:1039300099F4109761F012960C93129713961C93BA
:103940003296CF01DF91CF911F910F91089500938F
:10395000500410935104F4CF2115310551F0421752
:10396000530738F0A901DB019A01BD01DF01F8011D
:10397000C1CFEF01F9CF9093510480935004CDCF84
:10398000FE01E20FF31F8193919322503109398395
:103990002883D7CF20914E0430914F04232B41F43C
:1039A000209111013091120130934F0420934E0465
:1039B00020910F01309110012115310541F42DB7EF
:1039C0003EB74091130150911401241B350BE09137
:1039D0004E04F0914F04E217F307A0F42E1B3F0BA7
:1039E0002817390778F0AC014E5F5F4F2417350771
:1039F00048F04E0F5F1F50934F0440934E04819345
:103A000091939FCFF0E0E0E09CCFCF93DF930097BE
:103A1000E9F0FC01329713821282A0915004B09118
:103A20005104ED0130E020E01097A1F420813181B4
:103A3000820F931F20914E0430914F0428173907AD
:103A400009F061C0F0934F04E0934E04DF91CF91F1
:103A50000895EA01CE17DF07E8F54A815B819E01F0
:103A600041155105B1F7E901FB83EA834991599169
:103A7000C40FD51FEC17FD0761F480819181029678
:103A8000840F951FE90199838883828193819B83A9
:103A90008A83F0E0E0E012968D919C911397009755
:103AA000B9F52D913C911197CD010296820F931F8C
:103AB00020914E0430914F042817390739F630977A
:103AC00051F51092510410925004B0934F04A093FA
:103AD0004E04BCCFD383C28340815181840F951F94
:103AE000C817D90761F44E5F5F4F88819981480FED
:103AF000591F518340838A819B819383828321153F
:103B0000310509F0B0CFF0935104E09350049ECFFB
:103B1000FD01DC01C0CF13821282D7CF10E0C2E6D4
:103B2000D0E004C0FE010E94631C2196C336D10779
:063B3000C9F7F894FFCF75
:103B3600120101FFFF000C19FCFFFFF001F001006C
:103B46000052048000FFFFFFFFFFFF00000000910E
:103B560002F1011E02DE024F022D024102000000A8
:103B6600000806DB0537061603E701C805B9050098
:103B76000000001703F1013706160373038B03FEDB
:103B8600020D0A002D2D2D207468656D65206E7559
:103B96006D202D2D0070726573736564002053656A
:0C3BA6007454696D65203A20003A00005C
:107E0000112484B714BE81FFF0D085E080938100F7
:107E100082E08093C00088E18093C10086E0809377
:107E2000C20080E18093C4008EE0C9D0259A86E02C
:107E300020E33CEF91E0309385002093840096BBD3
:107E4000B09BFECF1D9AA8958150A9F7CC24DD24C4
:107E500088248394B5E0AB2EA1E19A2EF3E0BF2EE7
:107E6000A2D0813461F49FD0082FAFD0023811F036
:107E7000013811F484E001C083E08DD089C08234E0
:107E800011F484E103C0853419F485E0A6D080C0E4
:107E9000853579F488D0E82EFF2485D0082F10E0AE
:107EA000102F00270E291F29000F111F8ED06801E7
:107EB0006FC0863521F484E090D080E0DECF843638
:107EC00009F040C070D06FD0082F6DD080E0C81688
:107ED00080E7D80618F4F601B7BEE895C0E0D1E017
:107EE00062D089930C17E1F7F0E0CF16F0E7DF06D8
:107EF00018F0F601B7BEE89568D007B600FCFDCFD4
:107F0000A601A0E0B1E02C9130E011968C91119780
:107F100090E0982F8827822B932B1296FA010C0160
:107F200087BEE89511244E5F5F4FF1E0A038BF0790
:107F300051F7F601A7BEE89507B600FCFDCF97BE46
:107F4000E89526C08437B1F42ED02DD0F82E2BD052
:107F50003CD0F601EF2C8F010F5F1F4F84911BD097
:107F6000EA94F801C1F70894C11CD11CFA94CF0C13
:107F7000D11C0EC0853739F428D08EE10CD085E9AC
:107F80000AD08FE07ACF813511F488E018D01DD067
:107F900080E101D065CF982F8091C00085FFFCCF94
:107FA0009093C60008958091C00087FFFCCF809118
:107FB000C00084FD01C0A8958091C6000895E0E648
:107FC000F0E098E1908380830895EDDF803219F02E
:107FD00088E0F5DFFFCF84E1DECF1F93182FE3DFCA
:107FE0001150E9F7F2DF1F91089580E0E8DFEE27F6
:047FF000FF270994CA
:027FFE00040479
:0400000300007E007B
:00000001FF
